{
  "_format": "hh-sol-artifact-1",
  "contractName": "FundChain",
  "sourceName": "contracts/FundChain.sol",
  "abi": [
    {
      "inputs": [],
      "stateMutability": "nonpayable",
      "type": "constructor"
    },
    {
      "anonymous": false,
      "inputs": [
        {
          "indexed": true,
          "internalType": "uint256",
          "name": "id",
          "type": "uint256"
        },
        {
          "indexed": false,
          "internalType": "address",
          "name": "owner",
          "type": "address"
        },
        {
          "indexed": false,
          "internalType": "string",
          "name": "title",
          "type": "string"
        },
        {
          "indexed": false,
          "internalType": "uint256",
          "name": "target",
          "type": "uint256"
        },
        {
          "indexed": false,
          "internalType": "uint256",
          "name": "deadline",
          "type": "uint256"
        }
      ],
      "name": "CampaignCreated",
      "type": "event"
    },
    {
      "anonymous": false,
      "inputs": [
        {
          "indexed": true,
          "internalType": "uint256",
          "name": "campaignId",
          "type": "uint256"
        },
        {
          "indexed": false,
          "internalType": "address",
          "name": "admin",
          "type": "address"
        }
      ],
      "name": "CampaignVerified",
      "type": "event"
    },
    {
      "anonymous": false,
      "inputs": [
        {
          "indexed": true,
          "internalType": "uint256",
          "name": "campaignId",
          "type": "uint256"
        },
        {
          "indexed": false,
          "internalType": "address",
          "name": "donor",
          "type": "address"
        },
        {
          "indexed": false,
          "internalType": "uint256",
          "name": "amount",
          "type": "uint256"
        },
        {
          "indexed": false,
          "internalType": "uint256",
          "name": "totalCollected",
          "type": "uint256"
        }
      ],
      "name": "DonationReceived",
      "type": "event"
    },
    {
      "anonymous": false,
      "inputs": [
        {
          "indexed": true,
          "internalType": "uint256",
          "name": "campaignId",
          "type": "uint256"
        },
        {
          "indexed": false,
          "internalType": "uint256",
          "name": "milestoneId",
          "type": "uint256"
        },
        {
          "indexed": false,
          "internalType": "uint256",
          "name": "amount",
          "type": "uint256"
        }
      ],
      "name": "FundsWithdrawn",
      "type": "event"
    },
    {
      "anonymous": false,
      "inputs": [
        {
          "indexed": true,
          "internalType": "uint256",
          "name": "campaignId",
          "type": "uint256"
        },
        {
          "indexed": false,
          "internalType": "uint256",
          "name": "milestoneId",
          "type": "uint256"
        },
        {
          "indexed": false,
          "internalType": "string",
          "name": "title",
          "type": "string"
        },
        {
          "indexed": false,
          "internalType": "uint256",
          "name": "amount",
          "type": "uint256"
        },
        {
          "indexed": false,
          "internalType": "uint256",
          "name": "requiredApprovals",
          "type": "uint256"
        }
      ],
      "name": "MilestoneAdded",
      "type": "event"
    },
    {
      "anonymous": false,
      "inputs": [
        {
          "indexed": true,
          "internalType": "uint256",
          "name": "campaignId",
          "type": "uint256"
        },
        {
          "indexed": false,
          "internalType": "uint256",
          "name": "milestoneId",
          "type": "uint256"
        },
        {
          "indexed": false,
          "internalType": "address",
          "name": "approver",
          "type": "address"
        }
      ],
      "name": "MilestoneApproved",
      "type": "event"
    },
    {
      "anonymous": false,
      "inputs": [
        {
          "indexed": true,
          "internalType": "uint256",
          "name": "campaignId",
          "type": "uint256"
        },
        {
          "indexed": false,
          "internalType": "uint256",
          "name": "milestoneId",
          "type": "uint256"
        },
        {
          "indexed": false,
          "internalType": "string",
          "name": "ipfsHash",
          "type": "string"
        }
      ],
      "name": "MilestoneProofUploaded",
      "type": "event"
    },
    {
      "anonymous": false,
      "inputs": [
        {
          "indexed": true,
          "internalType": "uint256",
          "name": "campaignId",
          "type": "uint256"
        },
        {
          "indexed": false,
          "internalType": "address",
          "name": "signer",
          "type": "address"
        },
        {
          "indexed": false,
          "internalType": "uint256",
          "name": "confirmations",
          "type": "uint256"
        }
      ],
      "name": "MultiSigConfirmed",
      "type": "event"
    },
    {
      "anonymous": false,
      "inputs": [
        {
          "indexed": true,
          "internalType": "uint256",
          "name": "campaignId",
          "type": "uint256"
        },
        {
          "indexed": false,
          "internalType": "address",
          "name": "donor",
          "type": "address"
        },
        {
          "indexed": false,
          "internalType": "uint256",
          "name": "amount",
          "type": "uint256"
        }
      ],
      "name": "RefundIssued",
      "type": "event"
    },
    {
      "anonymous": false,
      "inputs": [
        {
          "indexed": true,
          "internalType": "uint256",
          "name": "campaignId",
          "type": "uint256"
        }
      ],
      "name": "RefundsEnabled",
      "type": "event"
    },
    {
      "inputs": [
        {
          "internalType": "uint256",
          "name": "_campaignId",
          "type": "uint256"
        },
        {
          "internalType": "string",
          "name": "_title",
          "type": "string"
        },
        {
          "internalType": "uint256",
          "name": "_amount",
          "type": "uint256"
        },
        {
          "internalType": "uint256",
          "name": "_requiredApprovals",
          "type": "uint256"
        }
      ],
      "name": "addMilestone",
      "outputs": [],
      "stateMutability": "nonpayable",
      "type": "function"
    },
    {
      "inputs": [],
      "name": "admin",
      "outputs": [
        {
          "internalType": "address",
          "name": "",
          "type": "address"
        }
      ],
      "stateMutability": "view",
      "type": "function"
    },
    {
      "inputs": [
        {
          "internalType": "uint256",
          "name": "_campaignId",
          "type": "uint256"
        },
        {
          "internalType": "uint256",
          "name": "_milestoneId",
          "type": "uint256"
        }
      ],
      "name": "approveMilestone",
      "outputs": [],
      "stateMutability": "nonpayable",
      "type": "function"
    },
    {
      "inputs": [],
      "name": "campaignCount",
      "outputs": [
        {
          "internalType": "uint256",
          "name": "",
          "type": "uint256"
        }
      ],
      "stateMutability": "view",
      "type": "function"
    },
    {
      "inputs": [
        {
          "internalType": "uint256",
          "name": "",
          "type": "uint256"
        }
      ],
      "name": "campaigns",
      "outputs": [
        {
          "internalType": "address",
          "name": "owner",
          "type": "address"
        },
        {
          "internalType": "string",
          "name": "title",
          "type": "string"
        },
        {
          "internalType": "string",
          "name": "description",
          "type": "string"
        },
        {
          "internalType": "string",
          "name": "category",
          "type": "string"
        },
        {
          "internalType": "string",
          "name": "ipfsImageHash",
          "type": "string"
        },
        {
          "internalType": "uint256",
          "name": "target",
          "type": "uint256"
        },
        {
          "internalType": "uint256",
          "name": "deadline",
          "type": "uint256"
        },
        {
          "internalType": "uint256",
          "name": "amountCollected",
          "type": "uint256"
        },
        {
          "internalType": "bool",
          "name": "withdrawn",
          "type": "bool"
        },
        {
          "internalType": "bool",
          "name": "verified",
          "type": "bool"
        },
        {
          "internalType": "bool",
          "name": "refundsEnabled",
          "type": "bool"
        },
        {
          "internalType": "uint256",
          "name": "milestoneCount",
          "type": "uint256"
        },
        {
          "internalType": "uint256",
          "name": "donorCount",
          "type": "uint256"
        },
        {
          "internalType": "uint256",
          "name": "confirmationCount",
          "type": "uint256"
        }
      ],
      "stateMutability": "view",
      "type": "function"
    },
    {
      "inputs": [
        {
          "internalType": "uint256",
          "name": "_id",
          "type": "uint256"
        }
      ],
      "name": "claimRefund",
      "outputs": [],
      "stateMutability": "nonpayable",
      "type": "function"
    },
    {
      "inputs": [
        {
          "internalType": "uint256",
          "name": "_id",
          "type": "uint256"
        }
      ],
      "name": "confirmWithdrawal",
      "outputs": [],
      "stateMutability": "nonpayable",
      "type": "function"
    },
    {
      "inputs": [
        {
          "internalType": "string",
          "name": "_title",
          "type": "string"
        },
        {
          "internalType": "string",
          "name": "_description",
          "type": "string"
        },
        {
          "internalType": "string",
          "name": "_category",
          "type": "string"
        },
        {
          "internalType": "uint256",
          "name": "_target",
          "type": "uint256"
        },
        {
          "internalType": "uint256",
          "name": "_deadline",
          "type": "uint256"
        },
        {
          "internalType": "string",
          "name": "_ipfsImageHash",
          "type": "string"
        },
        {
          "internalType": "address[]",
          "name": "_multiSigners",
          "type": "address[]"
        }
      ],
      "name": "createCampaign",
      "outputs": [
        {
          "internalType": "uint256",
          "name": "",
          "type": "uint256"
        }
      ],
      "stateMutability": "nonpayable",
      "type": "function"
    },
    {
      "inputs": [
        {
          "internalType": "uint256",
          "name": "_id",
          "type": "uint256"
        }
      ],
      "name": "donate",
      "outputs": [],
      "stateMutability": "payable",
      "type": "function"
    },
    {
      "inputs": [
        {
          "internalType": "uint256",
          "name": "",
          "type": "uint256"
        },
        {
          "internalType": "address",
          "name": "",
          "type": "address"
        }
      ],
      "name": "donations",
      "outputs": [
        {
          "internalType": "uint256",
          "name": "",
          "type": "uint256"
        }
      ],
      "stateMutability": "view",
      "type": "function"
    },
    {
      "inputs": [
        {
          "internalType": "uint256",
          "name": "",
          "type": "uint256"
        },
        {
          "internalType": "uint256",
          "name": "",
          "type": "uint256"
        }
      ],
      "name": "donors",
      "outputs": [
        {
          "internalType": "address",
          "name": "",
          "type": "address"
        }
      ],
      "stateMutability": "view",
      "type": "function"
    },
    {
      "inputs": [
        {
          "internalType": "uint256",
          "name": "_id",
          "type": "uint256"
        }
      ],
      "name": "enableRefunds",
      "outputs": [],
      "stateMutability": "nonpayable",
      "type": "function"
    },
    {
      "inputs": [
        {
          "internalType": "uint256",
          "name": "_id",
          "type": "uint256"
        }
      ],
      "name": "executeMultiSigWithdrawal",
      "outputs": [],
      "stateMutability": "nonpayable",
      "type": "function"
    },
    {
      "inputs": [],
      "name": "getContractBalance",
      "outputs": [
        {
          "internalType": "uint256",
          "name": "",
          "type": "uint256"
        }
      ],
      "stateMutability": "view",
      "type": "function"
    },
    {
      "inputs": [
        {
          "internalType": "uint256",
          "name": "_id",
          "type": "uint256"
        }
      ],
      "name": "getDonors",
      "outputs": [
        {
          "internalType": "address[]",
          "name": "",
          "type": "address[]"
        }
      ],
      "stateMutability": "view",
      "type": "function"
    },
    {
      "inputs": [
        {
          "internalType": "uint256",
          "name": "_campaignId",
          "type": "uint256"
        },
        {
          "internalType": "uint256",
          "name": "_milestoneId",
          "type": "uint256"
        }
      ],
      "name": "getMilestone",
      "outputs": [
        {
          "internalType": "string",
          "name": "title",
          "type": "string"
        },
        {
          "internalType": "uint256",
          "name": "amount",
          "type": "uint256"
        },
        {
          "internalType": "bool",
          "name": "approved",
          "type": "bool"
        },
        {
          "internalType": "bool",
          "name": "fundsReleased",
          "type": "bool"
        },
        {
          "internalType": "uint256",
          "name": "approvalCount",
          "type": "uint256"
        },
        {
          "internalType": "uint256",
          "name": "requiredApprovals",
          "type": "uint256"
        },
        {
          "internalType": "string",
          "name": "ipfsProofHash",
          "type": "string"
        }
      ],
      "stateMutability": "view",
      "type": "function"
    },
    {
      "inputs": [
        {
          "internalType": "uint256",
          "name": "_id",
          "type": "uint256"
        }
      ],
      "name": "getMultiSigners",
      "outputs": [
        {
          "internalType": "address[]",
          "name": "",
          "type": "address[]"
        }
      ],
      "stateMutability": "view",
      "type": "function"
    },
    {
      "inputs": [
        {
          "internalType": "uint256",
          "name": "",
          "type": "uint256"
        },
        {
          "internalType": "uint256",
          "name": "",
          "type": "uint256"
        }
      ],
      "name": "milestones",
      "outputs": [
        {
          "internalType": "string",
          "name": "title",
          "type": "string"
        },
        {
          "internalType": "uint256",
          "name": "amount",
          "type": "uint256"
        },
        {
          "internalType": "bool",
          "name": "approved",
          "type": "bool"
        },
        {
          "internalType": "bool",
          "name": "fundsReleased",
          "type": "bool"
        },
        {
          "internalType": "uint256",
          "name": "approvalCount",
          "type": "uint256"
        },
        {
          "internalType": "uint256",
          "name": "requiredApprovals",
          "type": "uint256"
        },
        {
          "internalType": "string",
          "name": "ipfsProofHash",
          "type": "string"
        }
      ],
      "stateMutability": "view",
      "type": "function"
    },
    {
      "inputs": [
        {
          "internalType": "uint256",
          "name": "_campaignId",
          "type": "uint256"
        },
        {
          "internalType": "uint256",
          "name": "_milestoneId",
          "type": "uint256"
        },
        {
          "internalType": "string",
          "name": "_ipfsHash",
          "type": "string"
        }
      ],
      "name": "uploadMilestoneProof",
      "outputs": [],
      "stateMutability": "nonpayable",
      "type": "function"
    },
    {
      "inputs": [
        {
          "internalType": "uint256",
          "name": "_id",
          "type": "uint256"
        }
      ],
      "name": "verifyCampaign",
      "outputs": [],
      "stateMutability": "nonpayable",
      "type": "function"
    },
    {
      "inputs": [
        {
          "internalType": "uint256",
          "name": "_campaignId",
          "type": "uint256"
        },
        {
          "internalType": "uint256",
          "name": "_milestoneId",
          "type": "uint256"
        }
      ],
      "name": "withdrawFunds",
      "outputs": [],
      "stateMutability": "nonpayable",
      "type": "function"
    }
  ],
  "bytecode": "0x6080806040523461002857600580546001600160a01b03191633179055612197908161002e8239f35b600080fdfe6080604052600436101561001257600080fd5b60003560e01c8063141961bc14611bc85780631c376c6314611b7157806320913da51461192757806329516511146118b457806352b2380914611837578063571b0cef1461114a5780635b7baf6414610f465780636728da9d14610d775780636f9fb98a14610d5b5780637274e30d14610d3d57806383bd62dd14610cf35780638ed9895c14610c8657806393d17e2514610a24578063ba1294721461086f578063e5253105146105fb578063ee1554a3146105ae578063f00bffa614610528578063f14faf6f14610354578063f3b38690146101b1578063f52cb29b146101315763f851a4401461010357600080fd5b3461012c57600036600319011261012c576005546040516001600160a01b039091168152602090f35b600080fd5b3461012c57602036600319011261012c5760043561015a60018060a01b03600554163314611ff8565b6101676004548210611f92565b806000526000602052600860406000200161010061ff00198254161790557fcd3ac142ca63f77a9b68e9d6ca66363c24d59be6fade6c25b9ef29c1cd0a82dd6020604051338152a2005b3461012c5760208060031936011261012c57600435906101d46004548310611f92565b8160005260008152604060002090600080600b84018054915b828110610316575b5050508015610303575b156102bf57600c8201903360005281815260ff60406000205416610287577f03e3ee959d51be77c5c7847de477f80beeca9dbcea2fb1b0f5afaa8765caee8a9261028292600d9233600052526040600020600160ff19825416179055016102668154611f6c565b9081905560408051338152602081019290925290918291820190565b0390a2005b6064906040519062461bcd60e51b825260048201526011602482015270105b1c9958591e4818dbdb999a5c9b5959607a1b6044820152fd5b6064906040519062461bcd60e51b82526004820152601860248201527f4e6f7420616e20617574686f72697a6564207369676e657200000000000000006044820152fd5b5081546001600160a01b031633146101ff565b6103208183611f3e565b905460039190911b1c6001600160a01b031633146103465761034190611f6c565b6101ed565b5050505060018480806101f5565b60208060031936011261012c57600435906103726004548310611f92565b816000526000815260406000209060068201544210156104f35734156104bf578260005260028152604060002033600052815260406000205415610420575b60609060077f3dbea1b4ce5f95137fdcac9b1d685825c3d70ace830df1ca5a181d3887add410938560005260028352604060002033600052835260406000206103fb348254611fde565b905501610409348254611fde565b8091556040519133835234908301526040820152a2005b82600052600381526040600020908154600160401b8110156104a9577f3dbea1b4ce5f95137fdcac9b1d685825c3d70ace830df1ca5a181d3887add41093610472826060956001600795018155611f3e565b81546001600160a01b0360039290921b91821b19163390911b179055600a8101805461049d90611f6c565b905593505090506103b1565b634e487b7160e01b600052604160045260246000fd5b6064906040519062461bcd60e51b82526004820152600d60248201526c09aeae6e840e6cadcc8408aa89609b1b6044820152fd5b6064906040519062461bcd60e51b82526004820152600e60248201526d10d85b5c185a59db88195b99195960921b6044820152fd5b3461012c5760208060031936011261012c5760043560005260008152600b60406000200190604051908181845491828152019360005281600020916000905b82821061058e5761058a8561057e81890382611d29565b60405191829182611e98565b0390f35b83546001600160a01b031686529485019460019384019390910190610567565b3461012c57604036600319011261012c576024356001600160a01b0381169081900361012c5760043560005260026020526040600020906000526020526020604060002054604051908152f35b3461012c5761060936611e38565b6106166004548310611f92565b8160005260206000815260018060a01b0361063981604060002054163314612030565b8360005260008252604060002090600183526040600020846000528352604060002090600282019283549360ff85161561081e5760ff8560081c166107e0576001479401946106f1865495610700603961069289612071565b61069b84612071565b8c60405196879375024b739bab33334b1b4b2b73a103130b630b731b29d160551b838601526106d38151809285603689019101611df0565b840191620101f160ed1b603684015283519384918785019101611df0565b01036019810185520183611d29565b86116107ba575061ff0019166101001790555460009283928392839291165af13d156107b5573d61073081611edc565b9061073e6040519283611d29565b81526000843d92013e5b1561077e575460408051938452918301527fd5550c71ca14cc44783a664cd798ecb70dcefed6b3cfdf323041ce6d221f2d7291a2005b60405162461bcd60e51b815260048101839052600f60248201526e151c985b9cd9995c8819985a5b1959608a1b6044820152606490fd5b610748565b876107dc60405192839262461bcd60e51b845260048401526024830190611e13565b0390fd5b60405162461bcd60e51b8152600481018790526016602482015275119d5b991cc8185b1c9958591e481c995b19585cd95960521b6044820152606490fd5b60405162461bcd60e51b8152600481018790526024808201527f4d696c6573746f6e65206e6f742079657420617070726f76656420627920646f6044820152636e6f727360e01b6064820152608490fd5b3461012c5760208060031936011261012c57600435906108926004548310611f92565b816000526000815260018060a01b036108b381604060002054163314612030565b8260005260008252604060002090600b82015460011c60018101809111610a0e57600d830154106109c957600882019182549260ff84166109905760078201549384156109555784600094859485946001869560ff1916179055541682f115610949577fd5550c71ca14cc44783a664cd798ecb70dcefed6b3cfdf323041ce6d221f2d72916040918251916000198352820152a2005b6040513d6000823e3d90fd5b60405162461bcd60e51b81526004810187905260136024820152724e6f7468696e6720746f20776974686472617760681b6044820152606490fd5b60405162461bcd60e51b815260048101869052601160248201527020b63932b0b23c903bb4ba34323930bbb760791b6044820152606490fd5b60405162461bcd60e51b815260048101849052601860248201527f4e6f7420656e6f75676820636f6e6669726d6174696f6e7300000000000000006044820152606490fd5b634e487b7160e01b600052601160045260246000fd5b3461012c57608036600319011261012c576001600160401b0360043560243582811161012c57610a58903690600401611ef7565b916044359060643591610a6e6004548510611f92565b8360005260209260008452610a9160018060a01b03604060002054163314612030565b8015610c41578460005260008452600960406000200192835493610ab485611f6c565b9055856000526001808652604060002085600052865260406000209188519081116104a957610ae38354611cef565b601f8111610c06575b5086601f8211600114610b7a57610b5f93867f9a9d239b8adb10007d5005bf50c7aa61972faf2aeff3e1eefe642dd9e1487d979a9b94848895600495600091610b6f575b50600019600383901b1c191690821b1783555b8201550155608060405196879687528601526080850190611e13565b91604084015260608301520390a2005b90508701518f610b30565b601f1982169084600052886000209160005b818110610bf15750847f9a9d239b8adb10007d5005bf50c7aa61972faf2aeff3e1eefe642dd9e1487d979b9c9585600495610b5f99958b988d9610610bd8575b5050811b018355610b43565b89015160001960f88460031b161c191690558f80610bcc565b8c830151845592850192918a01918a01610b8c565b610c31908460005288600020601f840160051c8101918a8510610c37575b601f0160051c0190611f7b565b89610aec565b9091508190610c24565b60405162461bcd60e51b815260048101859052601860248201527f4e656564206174206c65617374203120617070726f76616c00000000000000006044820152606490fd5b3461012c57610c9436611e38565b9060005260016020526040600020906000526020526040600020600181015461058a60028301546003840154600485015490610cdb6005610cd488611d4a565b9701611d4a565b9260405196879660ff808460081c1693169188611e4e565b3461012c57610d0136611e38565b9060005260036020526040600020805482101561012c57602091610d2491611f3e565b905460405160039290921b1c6001600160a01b03168152f35b3461012c57600036600319011261012c576020600454604051908152f35b3461012c57600036600319011261012c57602047604051908152f35b3461012c57606036600319011261012c576024356004356001600160401b0360443581811161012c57610dae903690600401611ef7565b92610dbc6004548410611f92565b8260005260209160008352610ddf60018060a01b03604060002054163314612030565b83600052600190818452604060002083600052845260056040600020019186519182116104a957610e108354611cef565b601f8111610f16575b5084601f8311600114610e8c5791808061028295937fa242dc265ec329d765b4d1175eb5f3d36f052da4b6bf61b340d71ca9846ca7a2999a95600093610e81575b501b916000199060031b1c19161790555b6040805194859485528401526040830190611e13565b86015192508b610e5a565b601f9291921982169084600052866000209160005b818110610f01575091839161028296947fa242dc265ec329d765b4d1175eb5f3d36f052da4b6bf61b340d71ca9846ca7a29a9b969410610ee8575b5050811b019055610e6b565b85015160001960f88460031b161c191690558980610edc565b8a830151845592850192918801918801610ea1565b610f40908460005286600020601f850160051c810191888610610c3757601f0160051c0190611f7b565b87610e19565b3461012c5760208060031936011261012c5760043590610f696004548310611f92565b81600052600081526040600020600681015442111561110d576007810190815460058201541180156110fc575b156110b7576008015460ff166110725782600052600282526040600020336000528252604060002054918215611036578360005260028152604060002090336000525260006040812055610feb828254611feb565b90556000808080843382f115610949576040805133815260208101929092527f7a482fdeb6bc9a1376f597068a214a7a39472bb2eff1b8cad21ba04f49ddca1b919081908101610282565b6064906040519062461bcd60e51b825260048201526015602482015274139bc8191bdb985d1a5bdb881d1bc81c99599d5b99605a1b6044820152fd5b60405162461bcd60e51b815260048101839052601760248201527f416c72656164792066756c6c792077697468647261776e0000000000000000006044820152606490fd5b60405162461bcd60e51b815260048101849052601760248201527f4e6f7420656c696769626c6520666f7220726566756e640000000000000000006044820152606490fd5b5060ff600882015460101c16610f96565b60405162461bcd60e51b815260048101839052601560248201527443616d706169676e207374696c6c2061637469766560581b6044820152606490fd5b3461012c5760e036600319011261012c576004356001600160401b03811161012c5761117a903690600401611ef7565b6024356001600160401b03811161012c57611199903690600401611ef7565b906044356001600160401b03811161012c576111b9903690600401611ef7565b9060a4356001600160401b03811161012c576111d9903690600401611ef7565b9260c435906001600160401b03821161012c573660238301121561012c578160040135946001600160401b0386116104a9578560051b92604051966112216020860189611d29565b87526020870190602482958201019036821161012c57602401915b818310611817575050504260843511156117d25760643515611798576004549461126586611f6c565b600455856000526000602052604060002092336bffffffffffffffffffffffff60a01b85541617845585516001600160401b0381116104a9576112ab6001860154611cef565b601f8111611763575b50806020601f82116001146116f6576000916116eb575b508160011b916000199060031b1c19161760018501555b8051906001600160401b0382116104a95781906113026002870154611cef565b601f81116116b6575b50602090601f831160011461164457600092611639575b50508160011b916000199060031b1c19161760028401555b8051906001600160401b0382116104a957819061135a6003860154611cef565b601f8111611604575b50602090601f831160011461159257600092611587575b50508160011b916000199060031b1c19161760038301555b8051906001600160401b0382116104a9576113b06004840154611cef565b601f8111611552575b50602090601f83116001146114df57600b939291600091836114d4575b50508160011b916000199060031b1c19161760048201555b60643560058201556084356006820155019351906001600160401b0382116104a957600160401b82116104a95784548286558083106114b6575b5093600052602060002060005b82811061149957602085807fdc26653af5b99b2da33e2ad69ee6600d9aeccc82b034501db4338309615ca23861147e886040519182913383526080888401526080830190611e13565b606435604083015260843560608301520390a2604051908152f35b85516001600160a01b031681830155602090950194600101611435565b6114ce90866000528360206000209182019101611f7b565b85611428565b0151905088806113d6565b906004840160005260206000209160005b601f198516811061153a5750918391600193600b9695601f19811610611521575b505050811b0160048201556113ee565b015160001960f88460031b161c19169055888080611511565b919260206001819286850151815501940192016114f0565b61158190600485016000526020600020601f850160051c81019160208610610c3757601f0160051c0190611f7b565b876113b9565b01519050888061137a565b9250600385016000526020600020906000935b601f19841685106115e9576001945083601f198116106115d0575b505050811b016003830155611392565b015160001960f88460031b161c191690558880806115c0565b818101518355602094850194600190930192909101906115a5565b61163390600387016000526020600020601f850160051c81019160208610610c3757601f0160051c0190611f7b565b89611363565b015190508980611322565b9250600286016000526020600020906000935b601f198416851061169b576001945083601f19811610611682575b505050811b01600284015561133a565b015160001960f88460031b161c19169055898080611672565b81810151835560209485019460019093019290910190611657565b6116e590600288016000526020600020601f850160051c81019160208610610c3757601f0160051c0190611f7b565b8a61130b565b90508701518a6112cb565b91506001860160005260206000206000925b601f198316841061174b576001935082601f19811610611732575b5050811b0160018501556112e2565b89015160001960f88460031b161c191690558a80611723565b89810151825560209384019360019092019101611708565b61179290600187016000526020600020601f840160051c81019160208510610c3757601f0160051c0190611f7b565b896112b4565b60405162461bcd60e51b81526020600482015260126024820152710546172676574206d757374206265203e20360741b6044820152606490fd5b60405162461bcd60e51b815260206004820152601a60248201527f446561646c696e65206d75737420626520696e206675747572650000000000006044820152606490fd5b82356001600160a01b038116810361012c5781526020928301920161123c565b3461012c57602036600319011261012c5760043561186060018060a01b03600554163314611ff8565b61186d6004548210611f92565b80600052600060205260086040600020016201000062ff0000198254161790557f01fd9d9d9f159bbb346cbe96d08df5b61108b672fa79a2d53fb9c67b9717d273600080a2005b3461012c5760208060031936011261012c5760043560005260038152604060002090604051908181845491828152019360005281600020916000905b8282106119075761058a8561057e81890382611d29565b83546001600160a01b0316865294850194600193840193909101906118f0565b3461012c5761193536611e38565b906119436004548210611f92565b80600052602060028152604060002033600052815260406000205415611b2d578160005260008152600960406000200154831015611af257816000526001815260406000208360005281526040600020916004830190815415611aad5760068401943360005285845260ff60406000205416611a7857600285019560ff875416611a33577f9ffbb52f2a1362273cd74689a516ca4f52c4282dc13e2e68b7e0646a9a7af7a3916040913360005286526003826000209760ff199860018a8254161790550195611a128754611f6c565b80975582519182523390820152a2541115611a2957005b8154166001179055005b60405162461bcd60e51b815260048101869052601a60248201527f4d696c6573746f6e6520616c726561647920617070726f7665640000000000006044820152606490fd5b60405162461bcd60e51b815260048101859052600d60248201526c105b1c9958591e481d9bdd1959609a1b6044820152606490fd5b60405162461bcd60e51b815260048101849052601960248201527f4d696c6573746f6e65206e6f7420696e697469616c697a6564000000000000006044820152606490fd5b6064906040519062461bcd60e51b825260048201526014602482015273125b9d985b1a59081b5a5b195cdd1bdb9948125160621b6044820152fd5b6064906040519062461bcd60e51b82526004820152601760248201527f4d757374206265206120646f6e6f7220746f20766f74650000000000000000006044820152fd5b3461012c57611b7f36611e38565b9060005260016020526040600020906000526020526040600020611ba281611d4a565b9061058a6001820154916002810154906003810154610cdb600560048401549301611d4a565b3461012c57602036600319011261012c57600435600090815260208190526040902080546001600160a01b0316611c0160018301611d4a565b91611c0e60028201611d4a565b611c1a60038301611d4a565b91611c2760048201611d4a565b926005820154936006830154600784015490600885015492600986015494600a87015496600d0154976040519b8c9b8c528b6101c06020819201528c01611c6d91611e13565b8b810360408d0152611c7e91611e13565b8a810360608c0152611c8f91611e13565b89810360808b0152611ca091611e13565b9660a089015260c088015260e087015260ff811615156101008701528060081c60ff16151561012087015260101c60ff1615156101408601526101608501526101808401526101a08301520390f35b90600182811c92168015611d1f575b6020831014611d0957565b634e487b7160e01b600052602260045260246000fd5b91607f1691611cfe565b90601f801991011681019081106001600160401b038211176104a957604052565b9060405191826000825492611d5e84611cef565b908184526001948581169081600014611dcd5750600114611d8a575b5050611d8892500383611d29565b565b9093915060005260209081600020936000915b818310611db5575050611d8893508201013880611d7a565b85548884018501529485019487945091830191611d9d565b915050611d8894506020925060ff191682840152151560051b8201013880611d7a565b60005b838110611e035750506000910152565b8181015183820152602001611df3565b90602091611e2c81518092818552858086019101611df0565b601f01601f1916010190565b604090600319011261012c576004359060243590565b939092611e6a611e95989693979460e0875260e0870190611e13565b9660208601521515604085015215156060840152608083015260a082015260c0818403910152611e13565b90565b6020908160408183019282815285518094520193019160005b828110611ebf575050505090565b83516001600160a01b031685529381019392810192600101611eb1565b6001600160401b0381116104a957601f01601f191660200190565b81601f8201121561012c57803590611f0e82611edc565b92611f1c6040519485611d29565b8284526020838301011161012c57816000926020809301838601378301015290565b8054821015611f565760005260206000200190600090565b634e487b7160e01b600052603260045260246000fd5b6000198114610a0e5760010190565b818110611f86575050565b60008155600101611f7b565b15611f9957565b60405162461bcd60e51b815260206004820152601760248201527f43616d706169676e20646f6573206e6f742065786973740000000000000000006044820152606490fd5b91908201809211610a0e57565b91908203918211610a0e57565b15611fff57565b60405162461bcd60e51b81526020600482015260096024820152682737ba1030b236b4b760b91b6044820152606490fd5b1561203757565b60405162461bcd60e51b81526020600482015260126024820152712737ba1031b0b6b830b4b3b71037bbb732b960711b6044820152606490fd5b80156121335780816000925b61211f575061208b82611edc565b916120996040519384611d29565b80835281601f196120a983611edc565b01916020923684870137925b6120bf5750505090565b6000198301928311610a0e5782600a80830492818402918483041484151715610a0e576120ef60ff928392611feb565b16603001908111610a0e578551821015611f565760f81b6001600160f81b03191660001a908501830153806120b5565b9161212b600a91611f6c565b92048061207d565b50604051604081018181106001600160401b038211176104a95760405260018152600360fc1b60208201529056fea26469706673582212201ed651352b257f23e0f7ff7704b951cadee44720805da3b7dd7e5e68d643e5fe64736f6c63430008130033",
  "linkReferences": {},
  "deployedLinkReferences": {}
}