{
  "_format": "hh-sol-artifact-1",
  "contractName": "FundChain",
  "sourceName": "contracts/FundChain.sol",
  "abi": [
    {
      "inputs": [],
      "stateMutability": "nonpayable",
      "type": "constructor"
    },
    {
      "anonymous": false,
      "inputs": [
        {
          "indexed": true,
          "internalType": "uint256",
          "name": "id",
          "type": "uint256"
        },
        {
          "indexed": false,
          "internalType": "address",
          "name": "owner",
          "type": "address"
        },
        {
          "indexed": false,
          "internalType": "string",
          "name": "title",
          "type": "string"
        },
        {
          "indexed": false,
          "internalType": "uint256",
          "name": "target",
          "type": "uint256"
        }
      ],
      "name": "CampaignCreated",
      "type": "event"
    },
    {
      "anonymous": false,
      "inputs": [
        {
          "indexed": true,
          "internalType": "uint256",
          "name": "campaignId",
          "type": "uint256"
        },
        {
          "indexed": false,
          "internalType": "address",
          "name": "donor",
          "type": "address"
        },
        {
          "indexed": false,
          "internalType": "uint256",
          "name": "amount",
          "type": "uint256"
        }
      ],
      "name": "DonationReceived",
      "type": "event"
    },
    {
      "anonymous": false,
      "inputs": [
        {
          "indexed": true,
          "internalType": "uint256",
          "name": "campaignId",
          "type": "uint256"
        },
        {
          "indexed": false,
          "internalType": "uint256",
          "name": "amount",
          "type": "uint256"
        }
      ],
      "name": "FundsWithdrawn",
      "type": "event"
    },
    {
      "anonymous": false,
      "inputs": [
        {
          "indexed": true,
          "internalType": "uint256",
          "name": "campaignId",
          "type": "uint256"
        },
        {
          "indexed": false,
          "internalType": "uint256",
          "name": "milestoneId",
          "type": "uint256"
        }
      ],
      "name": "MilestoneApproved",
      "type": "event"
    },
    {
      "anonymous": false,
      "inputs": [
        {
          "indexed": true,
          "internalType": "uint256",
          "name": "campaignId",
          "type": "uint256"
        },
        {
          "indexed": false,
          "internalType": "address",
          "name": "donor",
          "type": "address"
        },
        {
          "indexed": false,
          "internalType": "uint256",
          "name": "amount",
          "type": "uint256"
        }
      ],
      "name": "RefundIssued",
      "type": "event"
    },
    {
      "inputs": [],
      "name": "admin",
      "outputs": [
        {
          "internalType": "address",
          "name": "",
          "type": "address"
        }
      ],
      "stateMutability": "view",
      "type": "function"
    },
    {
      "inputs": [
        {
          "internalType": "uint256",
          "name": "_campaignId",
          "type": "uint256"
        },
        {
          "internalType": "uint256",
          "name": "_milestoneId",
          "type": "uint256"
        }
      ],
      "name": "approveMilestone",
      "outputs": [],
      "stateMutability": "nonpayable",
      "type": "function"
    },
    {
      "inputs": [],
      "name": "campaignCount",
      "outputs": [
        {
          "internalType": "uint256",
          "name": "",
          "type": "uint256"
        }
      ],
      "stateMutability": "view",
      "type": "function"
    },
    {
      "inputs": [
        {
          "internalType": "uint256",
          "name": "",
          "type": "uint256"
        }
      ],
      "name": "campaigns",
      "outputs": [
        {
          "internalType": "address",
          "name": "owner",
          "type": "address"
        },
        {
          "internalType": "string",
          "name": "title",
          "type": "string"
        },
        {
          "internalType": "string",
          "name": "description",
          "type": "string"
        },
        {
          "internalType": "string",
          "name": "category",
          "type": "string"
        },
        {
          "internalType": "uint256",
          "name": "target",
          "type": "uint256"
        },
        {
          "internalType": "uint256",
          "name": "deadline",
          "type": "uint256"
        },
        {
          "internalType": "uint256",
          "name": "amountCollected",
          "type": "uint256"
        },
        {
          "internalType": "bool",
          "name": "withdrawn",
          "type": "bool"
        },
        {
          "internalType": "bool",
          "name": "verified",
          "type": "bool"
        },
        {
          "internalType": "uint256",
          "name": "milestoneCount",
          "type": "uint256"
        }
      ],
      "stateMutability": "view",
      "type": "function"
    },
    {
      "inputs": [
        {
          "internalType": "uint256",
          "name": "_id",
          "type": "uint256"
        }
      ],
      "name": "claimRefund",
      "outputs": [],
      "stateMutability": "nonpayable",
      "type": "function"
    },
    {
      "inputs": [
        {
          "internalType": "string",
          "name": "_title",
          "type": "string"
        },
        {
          "internalType": "string",
          "name": "_description",
          "type": "string"
        },
        {
          "internalType": "string",
          "name": "_category",
          "type": "string"
        },
        {
          "internalType": "uint256",
          "name": "_target",
          "type": "uint256"
        },
        {
          "internalType": "uint256",
          "name": "_deadline",
          "type": "uint256"
        },
        {
          "internalType": "string[]",
          "name": "_milestoneTitles",
          "type": "string[]"
        },
        {
          "internalType": "uint256[]",
          "name": "_milestoneAmounts",
          "type": "uint256[]"
        }
      ],
      "name": "createCampaign",
      "outputs": [
        {
          "internalType": "uint256",
          "name": "",
          "type": "uint256"
        }
      ],
      "stateMutability": "nonpayable",
      "type": "function"
    },
    {
      "inputs": [
        {
          "internalType": "uint256",
          "name": "_id",
          "type": "uint256"
        }
      ],
      "name": "donate",
      "outputs": [],
      "stateMutability": "payable",
      "type": "function"
    },
    {
      "inputs": [
        {
          "internalType": "uint256",
          "name": "",
          "type": "uint256"
        },
        {
          "internalType": "address",
          "name": "",
          "type": "address"
        }
      ],
      "name": "donations",
      "outputs": [
        {
          "internalType": "uint256",
          "name": "",
          "type": "uint256"
        }
      ],
      "stateMutability": "view",
      "type": "function"
    },
    {
      "inputs": [
        {
          "internalType": "uint256",
          "name": "",
          "type": "uint256"
        },
        {
          "internalType": "uint256",
          "name": "",
          "type": "uint256"
        }
      ],
      "name": "donors",
      "outputs": [
        {
          "internalType": "address",
          "name": "",
          "type": "address"
        }
      ],
      "stateMutability": "view",
      "type": "function"
    },
    {
      "inputs": [
        {
          "internalType": "uint256",
          "name": "",
          "type": "uint256"
        },
        {
          "internalType": "uint256",
          "name": "",
          "type": "uint256"
        }
      ],
      "name": "milestones",
      "outputs": [
        {
          "internalType": "string",
          "name": "title",
          "type": "string"
        },
        {
          "internalType": "uint256",
          "name": "amount",
          "type": "uint256"
        },
        {
          "internalType": "bool",
          "name": "approved",
          "type": "bool"
        },
        {
          "internalType": "uint256",
          "name": "approvalCount",
          "type": "uint256"
        },
        {
          "internalType": "uint256",
          "name": "requiredApprovals",
          "type": "uint256"
        }
      ],
      "stateMutability": "view",
      "type": "function"
    },
    {
      "inputs": [
        {
          "internalType": "uint256",
          "name": "_id",
          "type": "uint256"
        }
      ],
      "name": "verifyCampaign",
      "outputs": [],
      "stateMutability": "nonpayable",
      "type": "function"
    },
    {
      "inputs": [
        {
          "internalType": "uint256",
          "name": "_id",
          "type": "uint256"
        },
        {
          "internalType": "uint256",
          "name": "_milestoneId",
          "type": "uint256"
        }
      ],
      "name": "withdrawFunds",
      "outputs": [],
      "stateMutability": "nonpayable",
      "type": "function"
    }
  ],
  "bytecode": "0x608060405234801561001057600080fd5b5033600560006101000a81548173ffffffffffffffffffffffffffffffffffffffff021916908373ffffffffffffffffffffffffffffffffffffffff16021790555061251f806100616000396000f3fe6080604052600436106100a75760003560e01c8063bb5b754c11610064578063bb5b754c146101ed578063e52531051461022a578063ee1554a314610253578063f14faf6f14610290578063f52cb29b146102ac578063f851a440146102d5576100a7565b8063141961bc146100ac5780631c376c63146100f257806320913da5146101335780635b7baf641461015c5780637274e30d1461018557806383bd62dd146101b0575b600080fd5b3480156100b857600080fd5b506100d360048036038101906100ce9190611321565b610300565b6040516100e99a99989796959493929190611449565b60405180910390f35b3480156100fe57600080fd5b50610119600480360381019061011491906114fa565b610526565b60405161012a95949392919061153a565b60405180910390f35b34801561013f57600080fd5b5061015a600480360381019061015591906114fa565b6105fe565b005b34801561016857600080fd5b50610183600480360381019061017e9190611321565b610826565b005b34801561019157600080fd5b5061019a610aad565b6040516101a79190611594565b60405180910390f35b3480156101bc57600080fd5b506101d760048036038101906101d291906114fa565b610ab3565b6040516101e491906115af565b60405180910390f35b3480156101f957600080fd5b50610214600480360381019061020f91906118a8565b610b01565b6040516102219190611594565b60405180910390f35b34801561023657600080fd5b50610251600480360381019061024c91906114fa565b610d80565b005b34801561025f57600080fd5b5061027a60048036038101906102759190611a02565b610f9f565b6040516102879190611594565b60405180910390f35b6102aa60048036038101906102a59190611321565b610fc4565b005b3480156102b857600080fd5b506102d360048036038101906102ce9190611321565b6111f0565b005b3480156102e157600080fd5b506102ea6112b1565b6040516102f791906115af565b60405180910390f35b60006020528060005260406000206000915090508060000160009054906101000a900473ffffffffffffffffffffffffffffffffffffffff169080600101805461034990611a71565b80601f016020809104026020016040519081016040528092919081815260200182805461037590611a71565b80156103c25780601f10610397576101008083540402835291602001916103c2565b820191906000526020600020905b8154815290600101906020018083116103a557829003601f168201915b5050505050908060020180546103d790611a71565b80601f016020809104026020016040519081016040528092919081815260200182805461040390611a71565b80156104505780601f1061042557610100808354040283529160200191610450565b820191906000526020600020905b81548152906001019060200180831161043357829003601f168201915b50505050509080600301805461046590611a71565b80601f016020809104026020016040519081016040528092919081815260200182805461049190611a71565b80156104de5780601f106104b3576101008083540402835291602001916104de565b820191906000526020600020905b8154815290600101906020018083116104c157829003601f168201915b5050505050908060040154908060050154908060060154908060070160009054906101000a900460ff16908060070160019054906101000a900460ff1690806008015490508a565b60016020528160005260406000206020528060005260406000206000915091505080600001805461055690611a71565b80601f016020809104026020016040519081016040528092919081815260200182805461058290611a71565b80156105cf5780601f106105a4576101008083540402835291602001916105cf565b820191906000526020600020905b8154815290600101906020018083116105b257829003601f168201915b5050505050908060010154908060020160009054906101000a900460ff16908060030154908060040154905085565b60006002600084815260200190815260200160002060003373ffffffffffffffffffffffffffffffffffffffff1673ffffffffffffffffffffffffffffffffffffffff1681526020019081526020016000205411610691576040517f08c379a000000000000000000000000000000000000000000000000000000000815260040161068890611aee565b60405180910390fd5b600060016000848152602001908152602001600020600083815260200190815260200160002090508060050160003373ffffffffffffffffffffffffffffffffffffffff1673ffffffffffffffffffffffffffffffffffffffff16815260200190815260200160002060009054906101000a900460ff1615610748576040517f08c379a000000000000000000000000000000000000000000000000000000000815260040161073f90611b5a565b60405180910390fd5b60018160050160003373ffffffffffffffffffffffffffffffffffffffff1673ffffffffffffffffffffffffffffffffffffffff16815260200190815260200160002060006101000a81548160ff0219169083151502179055508060030160008154809291906107b790611ba9565b919050555080600401548160030154106108215760018160020160006101000a81548160ff021916908315150217905550827f939da3b627c123c81fe5aacebf925163337a0d4f8a03724640618078cad24894836040516108189190611594565b60405180910390a25b505050565b6000806000838152602001908152602001600020905080600501544211610882576040517f08c379a000000000000000000000000000000000000000000000000000000000815260040161087990611c3d565b60405180910390fd5b80600401548160060154106108cc576040517f08c379a00000000000000000000000000000000000000000000000000000000081526004016108c390611ca9565b60405180910390fd5b8060070160009054906101000a900460ff161561091e576040517f08c379a000000000000000000000000000000000000000000000000000000000815260040161091590611d15565b60405180910390fd5b60006002600084815260200190815260200160002060003373ffffffffffffffffffffffffffffffffffffffff1673ffffffffffffffffffffffffffffffffffffffff168152602001908152602001600020549050600081116109b6576040517f08c379a00000000000000000000000000000000000000000000000000000000081526004016109ad90611d81565b60405180910390fd5b60006002600085815260200190815260200160002060003373ffffffffffffffffffffffffffffffffffffffff1673ffffffffffffffffffffffffffffffffffffffff1681526020019081526020016000208190555080826006016000828254610a209190611da1565b925050819055503373ffffffffffffffffffffffffffffffffffffffff166108fc829081150290604051600060405180830381858888f19350505050158015610a6d573d6000803e3d6000fd5b50827f7a482fdeb6bc9a1376f597068a214a7a39472bb2eff1b8cad21ba04f49ddca1b3383604051610aa0929190611dd5565b60405180910390a2505050565b60045481565b60036020528160005260406000208181548110610acf57600080fd5b906000526020600020016000915091509054906101000a900473ffffffffffffffffffffffffffffffffffffffff1681565b6000428411610b45576040517f08c379a0000000000000000000000000000000000000000000000000000000008152600401610b3c90611e4a565b60405180910390fd5b60008511610b88576040517f08c379a0000000000000000000000000000000000000000000000000000000008152600401610b7f90611eb6565b60405180910390fd5b8151835114610bcc576040517f08c379a0000000000000000000000000000000000000000000000000000000008152600401610bc390611f22565b60405180910390fd5b600060046000815480929190610be190611ba9565b91905055905060008060008381526020019081526020016000209050338160000160006101000a81548173ffffffffffffffffffffffffffffffffffffffff021916908373ffffffffffffffffffffffffffffffffffffffff16021790555089816001019081610c5191906120ee565b5088816002019081610c6391906120ee565b5087816003019081610c7591906120ee565b508681600401819055508581600501819055508451816008018190555060005b8551811015610d335760006001600085815260200190815260200160002060008381526020019081526020016000209050868281518110610cd957610cd86121c0565b5b6020026020010151816000019081610cf191906120ee565b50858281518110610d0557610d046121c0565b5b6020026020010151816001018190555060018160040181905550508080610d2b90611ba9565b915050610c95565b50817f825fb10f7650ed27414d6f86acdf7d5946927d9b25001f045f1a2435deec02fe338c8a604051610d68939291906121ef565b60405180910390a28192505050979650505050505050565b600080600084815260200190815260200160002090508060000160009054906101000a900473ffffffffffffffffffffffffffffffffffffffff1673ffffffffffffffffffffffffffffffffffffffff163373ffffffffffffffffffffffffffffffffffffffff1614610e28576040517f08c379a0000000000000000000000000000000000000000000000000000000008152600401610e1f90612279565b60405180910390fd5b806004015481600601541015610e73576040517f08c379a0000000000000000000000000000000000000000000000000000000008152600401610e6a906122e5565b60405180910390fd5b600060016000858152602001908152602001600020600084815260200190815260200160002090508060020160009054906101000a900460ff16610eec576040517f08c379a0000000000000000000000000000000000000000000000000000000008152600401610ee390612351565b60405180910390fd5b6000816001015490508260000160009054906101000a900473ffffffffffffffffffffffffffffffffffffffff1673ffffffffffffffffffffffffffffffffffffffff166108fc829081150290604051600060405180830381858888f19350505050158015610f5f573d6000803e3d6000fd5b50847fd66662c0ded9e58fd31d5e44944bcfd07ffc15e6927ecc1382e7941cb7bd24c482604051610f909190611594565b60405180910390a25050505050565b6002602052816000526040600020602052806000526040600020600091509150505481565b6000806000838152602001908152602001600020905080600501544210611020576040517f08c379a0000000000000000000000000000000000000000000000000000000008152600401611017906123bd565b60405180910390fd5b60003411611063576040517f08c379a000000000000000000000000000000000000000000000000000000000815260040161105a90612429565b60405180910390fd5b60006002600084815260200190815260200160002060003373ffffffffffffffffffffffffffffffffffffffff1673ffffffffffffffffffffffffffffffffffffffff16815260200190815260200160002054036111305760036000838152602001908152602001600020339080600181540180825580915050600190039060005260206000200160009091909190916101000a81548173ffffffffffffffffffffffffffffffffffffffff021916908373ffffffffffffffffffffffffffffffffffffffff1602179055505b346002600084815260200190815260200160002060003373ffffffffffffffffffffffffffffffffffffffff1673ffffffffffffffffffffffffffffffffffffffff16815260200190815260200160002060008282546111909190612449565b92505081905550348160060160008282546111ab9190612449565b92505081905550817f0b5b4c52969ff7329ecf7ee536409fda87812b15a8622bc6e8cdeab3aee14a2633346040516111e4929190611dd5565b60405180910390a25050565b600560009054906101000a900473ffffffffffffffffffffffffffffffffffffffff1673ffffffffffffffffffffffffffffffffffffffff163373ffffffffffffffffffffffffffffffffffffffff1614611280576040517f08c379a0000000000000000000000000000000000000000000000000000000008152600401611277906124c9565b60405180910390fd5b600160008083815260200190815260200160002060070160016101000a81548160ff02191690831515021790555050565b600560009054906101000a900473ffffffffffffffffffffffffffffffffffffffff1681565b6000604051905090565b600080fd5b600080fd5b6000819050919050565b6112fe816112eb565b811461130957600080fd5b50565b60008135905061131b816112f5565b92915050565b600060208284031215611337576113366112e1565b5b60006113458482850161130c565b91505092915050565b600073ffffffffffffffffffffffffffffffffffffffff82169050919050565b60006113798261134e565b9050919050565b6113898161136e565b82525050565b600081519050919050565b600082825260208201905092915050565b60005b838110156113c95780820151818401526020810190506113ae565b60008484015250505050565b6000601f19601f8301169050919050565b60006113f18261138f565b6113fb818561139a565b935061140b8185602086016113ab565b611414816113d5565b840191505092915050565b611428816112eb565b82525050565b60008115159050919050565b6114438161142e565b82525050565b60006101408201905061145f600083018d611380565b8181036020830152611471818c6113e6565b90508181036040830152611485818b6113e6565b90508181036060830152611499818a6113e6565b90506114a8608083018961141f565b6114b560a083018861141f565b6114c260c083018761141f565b6114cf60e083018661143a565b6114dd61010083018561143a565b6114eb61012083018461141f565b9b9a5050505050505050505050565b60008060408385031215611511576115106112e1565b5b600061151f8582860161130c565b92505060206115308582860161130c565b9150509250929050565b600060a082019050818103600083015261155481886113e6565b9050611563602083018761141f565b611570604083018661143a565b61157d606083018561141f565b61158a608083018461141f565b9695505050505050565b60006020820190506115a9600083018461141f565b92915050565b60006020820190506115c46000830184611380565b92915050565b600080fd5b600080fd5b7f4e487b7100000000000000000000000000000000000000000000000000000000600052604160045260246000fd5b61160c826113d5565b810181811067ffffffffffffffff8211171561162b5761162a6115d4565b5b80604052505050565b600061163e6112d7565b905061164a8282611603565b919050565b600067ffffffffffffffff82111561166a576116696115d4565b5b611673826113d5565b9050602081019050919050565b82818337600083830152505050565b60006116a261169d8461164f565b611634565b9050828152602081018484840111156116be576116bd6115cf565b5b6116c9848285611680565b509392505050565b600082601f8301126116e6576116e56115ca565b5b81356116f684826020860161168f565b91505092915050565b600067ffffffffffffffff82111561171a576117196115d4565b5b602082029050602081019050919050565b600080fd5b600061174361173e846116ff565b611634565b905080838252602082019050602084028301858111156117665761176561172b565b5b835b818110156117ad57803567ffffffffffffffff81111561178b5761178a6115ca565b5b80860161179889826116d1565b85526020850194505050602081019050611768565b5050509392505050565b600082601f8301126117cc576117cb6115ca565b5b81356117dc848260208601611730565b91505092915050565b600067ffffffffffffffff821115611800576117ff6115d4565b5b602082029050602081019050919050565b600061182461181f846117e5565b611634565b905080838252602082019050602084028301858111156118475761184661172b565b5b835b81811015611870578061185c888261130c565b845260208401935050602081019050611849565b5050509392505050565b600082601f83011261188f5761188e6115ca565b5b813561189f848260208601611811565b91505092915050565b600080600080600080600060e0888a0312156118c7576118c66112e1565b5b600088013567ffffffffffffffff8111156118e5576118e46112e6565b5b6118f18a828b016116d1565b975050602088013567ffffffffffffffff811115611912576119116112e6565b5b61191e8a828b016116d1565b965050604088013567ffffffffffffffff81111561193f5761193e6112e6565b5b61194b8a828b016116d1565b955050606061195c8a828b0161130c565b945050608061196d8a828b0161130c565b93505060a088013567ffffffffffffffff81111561198e5761198d6112e6565b5b61199a8a828b016117b7565b92505060c088013567ffffffffffffffff8111156119bb576119ba6112e6565b5b6119c78a828b0161187a565b91505092959891949750929550565b6119df8161136e565b81146119ea57600080fd5b50565b6000813590506119fc816119d6565b92915050565b60008060408385031215611a1957611a186112e1565b5b6000611a278582860161130c565b9250506020611a38858286016119ed565b9150509250929050565b7f4e487b7100000000000000000000000000000000000000000000000000000000600052602260045260246000fd5b60006002820490506001821680611a8957607f821691505b602082108103611a9c57611a9b611a42565b5b50919050565b7f4e6f74206120646f6e6f72000000000000000000000000000000000000000000600082015250565b6000611ad8600b8361139a565b9150611ae382611aa2565b602082019050919050565b60006020820190508181036000830152611b0781611acb565b9050919050565b7f416c726561647920617070726f76656400000000000000000000000000000000600082015250565b6000611b4460108361139a565b9150611b4f82611b0e565b602082019050919050565b60006020820190508181036000830152611b7381611b37565b9050919050565b7f4e487b7100000000000000000000000000000000000000000000000000000000600052601160045260246000fd5b6000611bb4826112eb565b91507fffffffffffffffffffffffffffffffffffffffffffffffffffffffffffffffff8203611be657611be5611b7a565b5b600182019050919050565b7f43616d706169676e207374696c6c206163746976650000000000000000000000600082015250565b6000611c2760158361139a565b9150611c3282611bf1565b602082019050919050565b60006020820190508181036000830152611c5681611c1a565b9050919050565b7f54617267657420776173206d6574000000000000000000000000000000000000600082015250565b6000611c93600e8361139a565b9150611c9e82611c5d565b602082019050919050565b60006020820190508181036000830152611cc281611c86565b9050919050565b7f416c72656164792077697468647261776e000000000000000000000000000000600082015250565b6000611cff60118361139a565b9150611d0a82611cc9565b602082019050919050565b60006020820190508181036000830152611d2e81611cf2565b9050919050565b7f4e6f20646f6e6174696f6e20666f756e64000000000000000000000000000000600082015250565b6000611d6b60118361139a565b9150611d7682611d35565b602082019050919050565b60006020820190508181036000830152611d9a81611d5e565b9050919050565b6000611dac826112eb565b9150611db7836112eb565b9250828203905081811115611dcf57611dce611b7a565b5b92915050565b6000604082019050611dea6000830185611380565b611df7602083018461141f565b9392505050565b7f446561646c696e65206d75737420626520696e20667574757265000000000000600082015250565b6000611e34601a8361139a565b9150611e3f82611dfe565b602082019050919050565b60006020820190508181036000830152611e6381611e27565b9050919050565b7f546172676574206d757374206265203e20300000000000000000000000000000600082015250565b6000611ea060128361139a565b9150611eab82611e6a565b602082019050919050565b60006020820190508181036000830152611ecf81611e93565b9050919050565b7f4d696c6573746f6e65206d69736d617463680000000000000000000000000000600082015250565b6000611f0c60128361139a565b9150611f1782611ed6565b602082019050919050565b60006020820190508181036000830152611f3b81611eff565b9050919050565b60008190508160005260206000209050919050565b60006020601f8301049050919050565b600082821b905092915050565b600060088302611fa47fffffffffffffffffffffffffffffffffffffffffffffffffffffffffffffffff82611f67565b611fae8683611f67565b95508019841693508086168417925050509392505050565b6000819050919050565b6000611feb611fe6611fe1846112eb565b611fc6565b6112eb565b9050919050565b6000819050919050565b61200583611fd0565b61201961201182611ff2565b848454611f74565b825550505050565b600090565b61202e612021565b612039818484611ffc565b505050565b5b8181101561205d57612052600082612026565b60018101905061203f565b5050565b601f8211156120a25761207381611f42565b61207c84611f57565b8101602085101561208b578190505b61209f61209785611f57565b83018261203e565b50505b505050565b600082821c905092915050565b60006120c5600019846008026120a7565b1980831691505092915050565b60006120de83836120b4565b9150826002028217905092915050565b6120f78261138f565b67ffffffffffffffff8111156121105761210f6115d4565b5b61211a8254611a71565b612125828285612061565b600060209050601f8311600181146121585760008415612146578287015190505b61215085826120d2565b8655506121b8565b601f19841661216686611f42565b60005b8281101561218e57848901518255600182019150602085019450602081019050612169565b868310156121ab57848901516121a7601f8916826120b4565b8355505b6001600288020188555050505b505050505050565b7f4e487b7100000000000000000000000000000000000000000000000000000000600052603260045260246000fd5b60006060820190506122046000830186611380565b818103602083015261221681856113e6565b9050612225604083018461141f565b949350505050565b7f4e6f74206f776e65720000000000000000000000000000000000000000000000600082015250565b600061226360098361139a565b915061226e8261222d565b602082019050919050565b6000602082019050818103600083015261229281612256565b9050919050565b7f546172676574206e6f74206d6574000000000000000000000000000000000000600082015250565b60006122cf600e8361139a565b91506122da82612299565b602082019050919050565b600060208201905081810360008301526122fe816122c2565b9050919050565b7f4d696c6573746f6e65206e6f7420617070726f76656400000000000000000000600082015250565b600061233b60168361139a565b915061234682612305565b602082019050919050565b6000602082019050818103600083015261236a8161232e565b9050919050565b7f43616d706169676e20656e646564000000000000000000000000000000000000600082015250565b60006123a7600e8361139a565b91506123b282612371565b602082019050919050565b600060208201905081810360008301526123d68161239a565b9050919050565b7f4d7573742073656e642045544800000000000000000000000000000000000000600082015250565b6000612413600d8361139a565b915061241e826123dd565b602082019050919050565b6000602082019050818103600083015261244281612406565b9050919050565b6000612454826112eb565b915061245f836112eb565b925082820190508082111561247757612476611b7a565b5b92915050565b7f4e6f742061646d696e0000000000000000000000000000000000000000000000600082015250565b60006124b360098361139a565b91506124be8261247d565b602082019050919050565b600060208201905081810360008301526124e2816124a6565b905091905056fea26469706673582212205c1db0039ace82ed2efd98d322a0cb6509493897a9db1653d1656a9da599b67b64736f6c63430008130033",
  "linkReferences": {},
  "deployedLinkReferences": {}
}