{
  "_format": "hh-sol-artifact-1",
  "contractName": "FundChain",
  "sourceName": "contracts/FundChain.sol",
  "abi": [
    {
      "inputs": [],
      "stateMutability": "nonpayable",
      "type": "constructor"
    },
    {
      "anonymous": false,
      "inputs": [
        {
          "indexed": true,
          "internalType": "uint256",
          "name": "id",
          "type": "uint256"
        },
        {
          "indexed": false,
          "internalType": "address",
          "name": "owner",
          "type": "address"
        },
        {
          "indexed": false,
          "internalType": "string",
          "name": "title",
          "type": "string"
        },
        {
          "indexed": false,
          "internalType": "uint256",
          "name": "target",
          "type": "uint256"
        },
        {
          "indexed": false,
          "internalType": "uint256",
          "name": "deadline",
          "type": "uint256"
        }
      ],
      "name": "CampaignCreated",
      "type": "event"
    },
    {
      "anonymous": false,
      "inputs": [
        {
          "indexed": true,
          "internalType": "uint256",
          "name": "campaignId",
          "type": "uint256"
        },
        {
          "indexed": false,
          "internalType": "address",
          "name": "admin",
          "type": "address"
        }
      ],
      "name": "CampaignVerified",
      "type": "event"
    },
    {
      "anonymous": false,
      "inputs": [
        {
          "indexed": true,
          "internalType": "uint256",
          "name": "campaignId",
          "type": "uint256"
        },
        {
          "indexed": false,
          "internalType": "address",
          "name": "donor",
          "type": "address"
        },
        {
          "indexed": false,
          "internalType": "uint256",
          "name": "amount",
          "type": "uint256"
        },
        {
          "indexed": false,
          "internalType": "uint256",
          "name": "totalCollected",
          "type": "uint256"
        }
      ],
      "name": "DonationReceived",
      "type": "event"
    },
    {
      "anonymous": false,
      "inputs": [
        {
          "indexed": true,
          "internalType": "uint256",
          "name": "campaignId",
          "type": "uint256"
        },
        {
          "indexed": false,
          "internalType": "uint256",
          "name": "milestoneId",
          "type": "uint256"
        },
        {
          "indexed": false,
          "internalType": "uint256",
          "name": "amount",
          "type": "uint256"
        }
      ],
      "name": "FundsWithdrawn",
      "type": "event"
    },
    {
      "anonymous": false,
      "inputs": [
        {
          "indexed": true,
          "internalType": "uint256",
          "name": "campaignId",
          "type": "uint256"
        },
        {
          "indexed": false,
          "internalType": "uint256",
          "name": "milestoneId",
          "type": "uint256"
        },
        {
          "indexed": false,
          "internalType": "string",
          "name": "title",
          "type": "string"
        },
        {
          "indexed": false,
          "internalType": "uint256",
          "name": "amount",
          "type": "uint256"
        }
      ],
      "name": "MilestoneAdded",
      "type": "event"
    },
    {
      "anonymous": false,
      "inputs": [
        {
          "indexed": true,
          "internalType": "uint256",
          "name": "campaignId",
          "type": "uint256"
        },
        {
          "indexed": false,
          "internalType": "uint256",
          "name": "milestoneId",
          "type": "uint256"
        },
        {
          "indexed": false,
          "internalType": "address",
          "name": "approver",
          "type": "address"
        }
      ],
      "name": "MilestoneApproved",
      "type": "event"
    },
    {
      "anonymous": false,
      "inputs": [
        {
          "indexed": true,
          "internalType": "uint256",
          "name": "campaignId",
          "type": "uint256"
        },
        {
          "indexed": false,
          "internalType": "address",
          "name": "signer",
          "type": "address"
        },
        {
          "indexed": false,
          "internalType": "uint256",
          "name": "confirmations",
          "type": "uint256"
        }
      ],
      "name": "MultiSigConfirmed",
      "type": "event"
    },
    {
      "anonymous": false,
      "inputs": [
        {
          "indexed": true,
          "internalType": "uint256",
          "name": "campaignId",
          "type": "uint256"
        },
        {
          "indexed": false,
          "internalType": "address",
          "name": "donor",
          "type": "address"
        },
        {
          "indexed": false,
          "internalType": "uint256",
          "name": "amount",
          "type": "uint256"
        }
      ],
      "name": "RefundIssued",
      "type": "event"
    },
    {
      "anonymous": false,
      "inputs": [
        {
          "indexed": true,
          "internalType": "uint256",
          "name": "campaignId",
          "type": "uint256"
        }
      ],
      "name": "RefundsEnabled",
      "type": "event"
    },
    {
      "inputs": [
        {
          "internalType": "uint256",
          "name": "_campaignId",
          "type": "uint256"
        },
        {
          "internalType": "string",
          "name": "_title",
          "type": "string"
        },
        {
          "internalType": "uint256",
          "name": "_amount",
          "type": "uint256"
        },
        {
          "internalType": "uint256",
          "name": "_requiredApprovals",
          "type": "uint256"
        }
      ],
      "name": "addMilestone",
      "outputs": [],
      "stateMutability": "nonpayable",
      "type": "function"
    },
    {
      "inputs": [],
      "name": "admin",
      "outputs": [
        {
          "internalType": "address",
          "name": "",
          "type": "address"
        }
      ],
      "stateMutability": "view",
      "type": "function"
    },
    {
      "inputs": [
        {
          "internalType": "uint256",
          "name": "_campaignId",
          "type": "uint256"
        },
        {
          "internalType": "uint256",
          "name": "_milestoneId",
          "type": "uint256"
        }
      ],
      "name": "approveMilestone",
      "outputs": [],
      "stateMutability": "nonpayable",
      "type": "function"
    },
    {
      "inputs": [],
      "name": "campaignCount",
      "outputs": [
        {
          "internalType": "uint256",
          "name": "",
          "type": "uint256"
        }
      ],
      "stateMutability": "view",
      "type": "function"
    },
    {
      "inputs": [
        {
          "internalType": "uint256",
          "name": "",
          "type": "uint256"
        }
      ],
      "name": "campaigns",
      "outputs": [
        {
          "internalType": "address",
          "name": "owner",
          "type": "address"
        },
        {
          "internalType": "string",
          "name": "title",
          "type": "string"
        },
        {
          "internalType": "string",
          "name": "description",
          "type": "string"
        },
        {
          "internalType": "string",
          "name": "category",
          "type": "string"
        },
        {
          "internalType": "string",
          "name": "ipfsImageHash",
          "type": "string"
        },
        {
          "internalType": "uint256",
          "name": "target",
          "type": "uint256"
        },
        {
          "internalType": "uint256",
          "name": "deadline",
          "type": "uint256"
        },
        {
          "internalType": "uint256",
          "name": "amountCollected",
          "type": "uint256"
        },
        {
          "internalType": "bool",
          "name": "withdrawn",
          "type": "bool"
        },
        {
          "internalType": "bool",
          "name": "verified",
          "type": "bool"
        },
        {
          "internalType": "bool",
          "name": "refundsEnabled",
          "type": "bool"
        },
        {
          "internalType": "uint256",
          "name": "milestoneCount",
          "type": "uint256"
        },
        {
          "internalType": "uint256",
          "name": "donorCount",
          "type": "uint256"
        },
        {
          "internalType": "uint256",
          "name": "confirmationCount",
          "type": "uint256"
        }
      ],
      "stateMutability": "view",
      "type": "function"
    },
    {
      "inputs": [
        {
          "internalType": "uint256",
          "name": "_id",
          "type": "uint256"
        }
      ],
      "name": "claimRefund",
      "outputs": [],
      "stateMutability": "nonpayable",
      "type": "function"
    },
    {
      "inputs": [
        {
          "internalType": "uint256",
          "name": "_id",
          "type": "uint256"
        }
      ],
      "name": "confirmWithdrawal",
      "outputs": [],
      "stateMutability": "nonpayable",
      "type": "function"
    },
    {
      "inputs": [
        {
          "internalType": "string",
          "name": "_title",
          "type": "string"
        },
        {
          "internalType": "string",
          "name": "_description",
          "type": "string"
        },
        {
          "internalType": "string",
          "name": "_category",
          "type": "string"
        },
        {
          "internalType": "uint256",
          "name": "_target",
          "type": "uint256"
        },
        {
          "internalType": "uint256",
          "name": "_deadline",
          "type": "uint256"
        },
        {
          "internalType": "string",
          "name": "_ipfsImageHash",
          "type": "string"
        },
        {
          "internalType": "address[]",
          "name": "_multiSigners",
          "type": "address[]"
        }
      ],
      "name": "createCampaign",
      "outputs": [
        {
          "internalType": "uint256",
          "name": "",
          "type": "uint256"
        }
      ],
      "stateMutability": "nonpayable",
      "type": "function"
    },
    {
      "inputs": [
        {
          "internalType": "uint256",
          "name": "_id",
          "type": "uint256"
        }
      ],
      "name": "donate",
      "outputs": [],
      "stateMutability": "payable",
      "type": "function"
    },
    {
      "inputs": [
        {
          "internalType": "uint256",
          "name": "",
          "type": "uint256"
        },
        {
          "internalType": "address",
          "name": "",
          "type": "address"
        }
      ],
      "name": "donations",
      "outputs": [
        {
          "internalType": "uint256",
          "name": "",
          "type": "uint256"
        }
      ],
      "stateMutability": "view",
      "type": "function"
    },
    {
      "inputs": [
        {
          "internalType": "uint256",
          "name": "",
          "type": "uint256"
        },
        {
          "internalType": "uint256",
          "name": "",
          "type": "uint256"
        }
      ],
      "name": "donors",
      "outputs": [
        {
          "internalType": "address",
          "name": "",
          "type": "address"
        }
      ],
      "stateMutability": "view",
      "type": "function"
    },
    {
      "inputs": [
        {
          "internalType": "uint256",
          "name": "_id",
          "type": "uint256"
        }
      ],
      "name": "enableRefunds",
      "outputs": [],
      "stateMutability": "nonpayable",
      "type": "function"
    },
    {
      "inputs": [
        {
          "internalType": "uint256",
          "name": "_id",
          "type": "uint256"
        }
      ],
      "name": "executeMultiSigWithdrawal",
      "outputs": [],
      "stateMutability": "nonpayable",
      "type": "function"
    },
    {
      "inputs": [],
      "name": "getContractBalance",
      "outputs": [
        {
          "internalType": "uint256",
          "name": "",
          "type": "uint256"
        }
      ],
      "stateMutability": "view",
      "type": "function"
    },
    {
      "inputs": [
        {
          "internalType": "uint256",
          "name": "_id",
          "type": "uint256"
        }
      ],
      "name": "getDonors",
      "outputs": [
        {
          "internalType": "address[]",
          "name": "",
          "type": "address[]"
        }
      ],
      "stateMutability": "view",
      "type": "function"
    },
    {
      "inputs": [
        {
          "internalType": "uint256",
          "name": "_campaignId",
          "type": "uint256"
        },
        {
          "internalType": "uint256",
          "name": "_milestoneId",
          "type": "uint256"
        }
      ],
      "name": "getMilestone",
      "outputs": [
        {
          "internalType": "string",
          "name": "title",
          "type": "string"
        },
        {
          "internalType": "uint256",
          "name": "amount",
          "type": "uint256"
        },
        {
          "internalType": "bool",
          "name": "approved",
          "type": "bool"
        },
        {
          "internalType": "bool",
          "name": "fundsReleased",
          "type": "bool"
        },
        {
          "internalType": "uint256",
          "name": "approvalCount",
          "type": "uint256"
        },
        {
          "internalType": "uint256",
          "name": "requiredApprovals",
          "type": "uint256"
        },
        {
          "internalType": "string",
          "name": "ipfsProofHash",
          "type": "string"
        }
      ],
      "stateMutability": "view",
      "type": "function"
    },
    {
      "inputs": [
        {
          "internalType": "uint256",
          "name": "_id",
          "type": "uint256"
        }
      ],
      "name": "getMultiSigners",
      "outputs": [
        {
          "internalType": "address[]",
          "name": "",
          "type": "address[]"
        }
      ],
      "stateMutability": "view",
      "type": "function"
    },
    {
      "inputs": [
        {
          "internalType": "uint256",
          "name": "",
          "type": "uint256"
        },
        {
          "internalType": "uint256",
          "name": "",
          "type": "uint256"
        }
      ],
      "name": "milestones",
      "outputs": [
        {
          "internalType": "string",
          "name": "title",
          "type": "string"
        },
        {
          "internalType": "uint256",
          "name": "amount",
          "type": "uint256"
        },
        {
          "internalType": "bool",
          "name": "approved",
          "type": "bool"
        },
        {
          "internalType": "bool",
          "name": "fundsReleased",
          "type": "bool"
        },
        {
          "internalType": "uint256",
          "name": "approvalCount",
          "type": "uint256"
        },
        {
          "internalType": "uint256",
          "name": "requiredApprovals",
          "type": "uint256"
        },
        {
          "internalType": "string",
          "name": "ipfsProofHash",
          "type": "string"
        }
      ],
      "stateMutability": "view",
      "type": "function"
    },
    {
      "inputs": [
        {
          "internalType": "uint256",
          "name": "_campaignId",
          "type": "uint256"
        },
        {
          "internalType": "uint256",
          "name": "_milestoneId",
          "type": "uint256"
        },
        {
          "internalType": "string",
          "name": "_ipfsHash",
          "type": "string"
        }
      ],
      "name": "uploadMilestoneProof",
      "outputs": [],
      "stateMutability": "nonpayable",
      "type": "function"
    },
    {
      "inputs": [
        {
          "internalType": "uint256",
          "name": "_id",
          "type": "uint256"
        }
      ],
      "name": "verifyCampaign",
      "outputs": [],
      "stateMutability": "nonpayable",
      "type": "function"
    },
    {
      "inputs": [
        {
          "internalType": "uint256",
          "name": "_campaignId",
          "type": "uint256"
        },
        {
          "internalType": "uint256",
          "name": "_milestoneId",
          "type": "uint256"
        }
      ],
      "name": "withdrawFunds",
      "outputs": [],
      "stateMutability": "nonpayable",
      "type": "function"
    }
  ],
  "bytecode": "0x6080806040523461002857600580546001600160a01b03191633179055611f33908161002e8239f35b600080fdfe6080604052600436101561001257600080fd5b60003560e01c8063141961bc14611a755780631c376c6314611a1e57806320913da514611875578063295165111461180257806352b2380914611785578063571b0cef146110985780635b7baf6414610e935780636728da9d14610d235780636f9fb98a14610d075780637274e30d14610ce957806383bd62dd14610c9f5780638ed9895c14610c3257806393d17e25146109d5578063ba1294721461082c578063e5253105146105fb578063ee1554a3146105ae578063f00bffa614610528578063f14faf6f14610354578063f3b38690146101b1578063f52cb29b146101315763f851a4401461010357600080fd5b3461012c57600036600319011261012c576005546040516001600160a01b039091168152602090f35b600080fd5b3461012c57602036600319011261012c5760043561015a60018060a01b03600554163314611e84565b6101676004548210611e2b565b806000526000602052600860406000200161010061ff00198254161790557fcd3ac142ca63f77a9b68e9d6ca66363c24d59be6fade6c25b9ef29c1cd0a82dd6020604051338152a2005b3461012c5760208060031936011261012c57600435906101d46004548310611e2b565b8160005260008152604060002090600080600b84018054915b828110610316575b5050508015610303575b156102bf57600c8201903360005281815260ff60406000205416610287577f03e3ee959d51be77c5c7847de477f80beeca9dbcea2fb1b0f5afaa8765caee8a9261028292600d9233600052526040600020600160ff19825416179055016102668154611e05565b9081905560408051338152602081019290925290918291820190565b0390a2005b6064906040519062461bcd60e51b825260048201526011602482015270105b1c9958591e4818dbdb999a5c9b5959607a1b6044820152fd5b6064906040519062461bcd60e51b82526004820152601860248201527f4e6f7420616e20617574686f72697a6564207369676e657200000000000000006044820152fd5b5081546001600160a01b031633146101ff565b6103208183611dd7565b905460039190911b1c6001600160a01b031633146103465761034190611e05565b6101ed565b5050505060018480806101f5565b60208060031936011261012c57600435906103726004548310611e2b565b816000526000815260406000209060068201544210156104f35734156104bf578260005260028152604060002033600052815260406000205415610420575b60609060077f3dbea1b4ce5f95137fdcac9b1d685825c3d70ace830df1ca5a181d3887add410938560005260028352604060002033600052835260406000206103fb348254611e77565b905501610409348254611e77565b8091556040519133835234908301526040820152a2005b82600052600381526040600020908154600160401b8110156104a9577f3dbea1b4ce5f95137fdcac9b1d685825c3d70ace830df1ca5a181d3887add41093610472826060956001600795018155611dd7565b81546001600160a01b0360039290921b91821b19163390911b179055600a8101805461049d90611e05565b905593505090506103b1565b634e487b7160e01b600052604160045260246000fd5b6064906040519062461bcd60e51b82526004820152600d60248201526c09aeae6e840e6cadcc8408aa89609b1b6044820152fd5b6064906040519062461bcd60e51b82526004820152600e60248201526d10d85b5c185a59db88195b99195960921b6044820152fd5b3461012c5760208060031936011261012c5760043560005260008152600b60406000200190604051908181845491828152019360005281600020916000905b82821061058e5761058a8561057e81890382611bd6565b60405191829182611d3d565b0390f35b83546001600160a01b031686529485019460019384019390910190610567565b3461012c57604036600319011261012c576024356001600160a01b0381169081900361012c5760043560005260026020526040600020906000526020526020604060002054604051908152f35b3461012c5761060936611cdd565b6106166004548310611e2b565b816000526020906000825260018060a01b039061063b82604060002054163314611ebc565b8360005260008352604060002091600783015460058401541180159061081f575b156107e45784600052600184526040600020826000528452604060002090600282019384549260ff8416156107935760ff8460081c1661075557600101948554934785116107105761ff001916610100179055546000928392839283929116828215610707575bf1156106fb577fd5550c71ca14cc44783a664cd798ecb70dcefed6b3cfdf323041ce6d221f2d729260409254908351928352820152a2005b6040513d6000823e3d90fd5b506108fc6106c3565b60405162461bcd60e51b815260048101899052601d60248201527f496e73756666696369656e7420636f6e74726163742062616c616e63650000006044820152606490fd5b60405162461bcd60e51b8152600481018890526016602482015275119d5b991cc8185b1c9958591e481c995b19585cd95960521b6044820152606490fd5b60405162461bcd60e51b8152600481018890526024808201527f4d696c6573746f6e65206e6f742079657420617070726f76656420627920646f6044820152636e6f727360e01b6064820152608490fd5b60405162461bcd60e51b815260048101859052601360248201527246756e6472616973696e67206f6e676f696e6760681b6044820152606490fd5b506006830154421161065c565b3461012c5760208060031936011261012c576004359061084f6004548310611e2b565b816000526000815260018060a01b0361087081604060002054163314611ebc565b8260005260008252604060002090600b82015460011c600181018091116109bf57600d8301541061097a57600882019182549260ff84166109415760078201549384156109065784600094859485946001869560ff1916179055541682f1156106fb577fd5550c71ca14cc44783a664cd798ecb70dcefed6b3cfdf323041ce6d221f2d72916040918251916000198352820152a2005b60405162461bcd60e51b81526004810187905260136024820152724e6f7468696e6720746f20776974686472617760681b6044820152606490fd5b60405162461bcd60e51b815260048101869052601160248201527020b63932b0b23c903bb4ba34323930bbb760791b6044820152606490fd5b60405162461bcd60e51b815260048101849052601860248201527f4e6f7420656e6f75676820636f6e6669726d6174696f6e7300000000000000006044820152606490fd5b634e487b7160e01b600052601160045260246000fd5b3461012c57608036600319011261012c576001600160401b0360243581811161012c57610a06903690600401611d81565b9060045490610a19600435928310611e2b565b8160005260209060008252610a3c60018060a01b03604060002054163314611ebc565b606435908115610bed578360005260008352600960406000200191825492610a6384611e05565b905584600052600191828552604060002084600052855260406000209087519081116104a957610a938254611b9c565b601f8111610bb2575b5085601f8211600114610b28577fc67423104bf96f5ca8826913ae711e8c2254e1b2c04af907b2312853ed4cbed297989282610b129593600493600091610b1d575b50600019600383901b1c191690871b1781555b60443580968201550155606060405195869586528501526060840190611c9d565b9060408301520390a2005b90508501518c610ade565b8260005286600020906000601f198416905b818110610b9d5750836004937fc67423104bf96f5ca8826913ae711e8c2254e1b2c04af907b2312853ed4cbed29b9c9693610b1298968a9410610b84575b5050811b018155610af1565b87015160001960f88460031b161c191690558c80610b78565b8b830151845592870192918901918901610b3a565b610bdd908360005287600020601f840160051c810191898510610be3575b601f0160051c0190611e14565b88610a9c565b9091508190610bd0565b60405162461bcd60e51b815260048101849052601860248201527f4e656564206174206c65617374203120617070726f76616c00000000000000006044820152606490fd5b3461012c57610c4036611cdd565b9060005260016020526040600020906000526020526040600020600181015461058a60028301546003840154600485015490610c876005610c8088611bf7565b9701611bf7565b9260405196879660ff808460081c1693169188611cf3565b3461012c57610cad36611cdd565b9060005260036020526040600020805482101561012c57602091610cd091611dd7565b905460405160039290921b1c6001600160a01b03168152f35b3461012c57600036600319011261012c576020600454604051908152f35b3461012c57600036600319011261012c57602047604051908152f35b3461012c57606036600319011261012c576001600160401b0360043560443582811161012c57610d57903690600401611d81565b91610d656004548310611e2b565b8160005260209160008352610d8860018060a01b03604060002054163314611ebc565b6000526001918281526040600020602435600052815260056040600020019380519283116104a957610dba8554611b9c565b601f8111610e63575b5081601f8411600114610e005750928293918392600094610df5575b50501b916000199060031b1c1916179055600080f35b015192508580610ddf565b919083601f1981168760005284600020946000905b88838310610e495750505010610e30575b505050811b019055005b015160001960f88460031b161c19169055838080610e26565b858701518855909601959485019487935090810190610e15565b610e8d908660005283600020601f860160051c810191858710610be357601f0160051c0190611e14565b85610dc3565b3461012c5760208060031936011261012c5760043590610eb66004548310611e2b565b81600052600081526040600020600681015442111561105b5760078101908154600582015411801561104a575b15611005576008015460ff16610fc05782600052600282526040600020336000528252604060002054918215610f845783600052600281526040600020903360005252600060408120558054908282039182116109bf57556000808080843382f1156106fb576040805133815260208101929092527f7a482fdeb6bc9a1376f597068a214a7a39472bb2eff1b8cad21ba04f49ddca1b919081908101610282565b6064906040519062461bcd60e51b825260048201526015602482015274139bc8191bdb985d1a5bdb881d1bc81c99599d5b99605a1b6044820152fd5b60405162461bcd60e51b815260048101839052601760248201527f416c72656164792066756c6c792077697468647261776e0000000000000000006044820152606490fd5b60405162461bcd60e51b815260048101849052601760248201527f4e6f7420656c696769626c6520666f7220726566756e640000000000000000006044820152606490fd5b5060ff600882015460101c16610ee3565b60405162461bcd60e51b815260048101839052601560248201527443616d706169676e207374696c6c2061637469766560581b6044820152606490fd5b3461012c5760e036600319011261012c576004356001600160401b03811161012c576110c8903690600401611d81565b6024356001600160401b03811161012c576110e7903690600401611d81565b906044356001600160401b03811161012c57611107903690600401611d81565b9060a4356001600160401b03811161012c57611127903690600401611d81565b9260c435906001600160401b03821161012c573660238301121561012c578160040135946001600160401b0386116104a9578560051b926040519661116f6020860189611bd6565b87526020870190602482958201019036821161012c57602401915b8183106117655750505042608435111561172057606435156116e657600454946111b386611e05565b600455856000526000602052604060002092336bffffffffffffffffffffffff60a01b85541617845585516001600160401b0381116104a9576111f96001860154611b9c565b601f81116116b1575b50806020601f821160011461164457600091611639575b508160011b916000199060031b1c19161760018501555b8051906001600160401b0382116104a95781906112506002870154611b9c565b601f8111611604575b50602090601f831160011461159257600092611587575b50508160011b916000199060031b1c19161760028401555b8051906001600160401b0382116104a95781906112a86003860154611b9c565b601f8111611552575b50602090601f83116001146114e0576000926114d5575b50508160011b916000199060031b1c19161760038301555b8051906001600160401b0382116104a9576112fe6004840154611b9c565b601f81116114a0575b50602090601f831160011461142d57600b93929160009183611422575b50508160011b916000199060031b1c19161760048201555b60643560058201556084356006820155019351906001600160401b0382116104a957600160401b82116104a9578454828655808310611404575b5093600052602060002060005b8281106113e757602085807fdc26653af5b99b2da33e2ad69ee6600d9aeccc82b034501db4338309615ca2386113cc886040519182913383526080888401526080830190611c9d565b606435604083015260843560608301520390a2604051908152f35b85516001600160a01b031681830155602090950194600101611383565b61141c90866000528360206000209182019101611e14565b85611376565b015190508880611324565b906004840160005260206000209160005b601f19851681106114885750918391600193600b9695601f1981161061146f575b505050811b01600482015561133c565b015160001960f88460031b161c1916905588808061145f565b9192602060018192868501518155019401920161143e565b6114cf90600485016000526020600020601f850160051c81019160208610610be357601f0160051c0190611e14565b87611307565b0151905088806112c8565b9250600385016000526020600020906000935b601f1984168510611537576001945083601f1981161061151e575b505050811b0160038301556112e0565b015160001960f88460031b161c1916905588808061150e565b818101518355602094850194600190930192909101906114f3565b61158190600387016000526020600020601f850160051c81019160208610610be357601f0160051c0190611e14565b896112b1565b015190508980611270565b9250600286016000526020600020906000935b601f19841685106115e9576001945083601f198116106115d0575b505050811b016002840155611288565b015160001960f88460031b161c191690558980806115c0565b818101518355602094850194600190930192909101906115a5565b61163390600288016000526020600020601f850160051c81019160208610610be357601f0160051c0190611e14565b8a611259565b90508701518a611219565b91506001860160005260206000206000925b601f1983168410611699576001935082601f19811610611680575b5050811b016001850155611230565b89015160001960f88460031b161c191690558a80611671565b89810151825560209384019360019092019101611656565b6116e090600187016000526020600020601f840160051c81019160208510610be357601f0160051c0190611e14565b89611202565b60405162461bcd60e51b81526020600482015260126024820152710546172676574206d757374206265203e20360741b6044820152606490fd5b60405162461bcd60e51b815260206004820152601a60248201527f446561646c696e65206d75737420626520696e206675747572650000000000006044820152606490fd5b82356001600160a01b038116810361012c5781526020928301920161118a565b3461012c57602036600319011261012c576004356117ae60018060a01b03600554163314611e84565b6117bb6004548210611e2b565b80600052600060205260086040600020016201000062ff0000198254161790557f01fd9d9d9f159bbb346cbe96d08df5b61108b672fa79a2d53fb9c67b9717d273600080a2005b3461012c5760208060031936011261012c5760043560005260038152604060002090604051908181845491828152019360005281600020916000905b8282106118555761058a8561057e81890382611bd6565b83546001600160a01b03168652948501946001938401939091019061183e565b3461012c5761188336611cdd565b6118906004548310611e2b565b816000526020600281526040600020336000528152604060002054156119da5782600052600181526040600020826000528152604060002060068101933360005284835260ff604060002054166119a557600282019460ff8654166119605790600492913360005284527f9ffbb52f2a1362273cd74689a516ca4f52c4282dc13e2e68b7e0646a9a7af7a36040806000209660ff1997600189825416179055600385019661193e8854611e05565b80985582519182523390820152a20154111561195657005b8154166001179055005b60405162461bcd60e51b815260048101859052601a60248201527f4d696c6573746f6e6520616c726561647920617070726f7665640000000000006044820152606490fd5b60405162461bcd60e51b815260048101849052600d60248201526c105b1c9958591e481d9bdd1959609a1b6044820152606490fd5b6064906040519062461bcd60e51b82526004820152601760248201527f4d757374206265206120646f6e6f7220746f20766f74650000000000000000006044820152fd5b3461012c57611a2c36611cdd565b9060005260016020526040600020906000526020526040600020611a4f81611bf7565b9061058a6001820154916002810154906003810154610c87600560048401549301611bf7565b3461012c57602036600319011261012c57600435600090815260208190526040902080546001600160a01b0316611aae60018301611bf7565b91611abb60028201611bf7565b611ac760038301611bf7565b91611ad460048201611bf7565b926005820154936006830154600784015490600885015492600986015494600a87015496600d0154976040519b8c9b8c528b6101c06020819201528c01611b1a91611c9d565b8b810360408d0152611b2b91611c9d565b8a810360608c0152611b3c91611c9d565b89810360808b0152611b4d91611c9d565b9660a089015260c088015260e087015260ff811615156101008701528060081c60ff16151561012087015260101c60ff1615156101408601526101608501526101808401526101a08301520390f35b90600182811c92168015611bcc575b6020831014611bb657565b634e487b7160e01b600052602260045260246000fd5b91607f1691611bab565b90601f801991011681019081106001600160401b038211176104a957604052565b9060405191826000825492611c0b84611b9c565b908184526001948581169081600014611c7a5750600114611c37575b5050611c3592500383611bd6565b565b9093915060005260209081600020936000915b818310611c62575050611c3593508201013880611c27565b85548884018501529485019487945091830191611c4a565b915050611c3594506020925060ff191682840152151560051b8201013880611c27565b919082519283825260005b848110611cc9575050826000602080949584010152601f8019910116010190565b602081830181015184830182015201611ca8565b604090600319011261012c576004359060243590565b939092611d0f611d3a989693979460e0875260e0870190611c9d565b9660208601521515604085015215156060840152608083015260a082015260c0818403910152611c9d565b90565b6020908160408183019282815285518094520193019160005b828110611d64575050505090565b83516001600160a01b031685529381019392810192600101611d56565b81601f8201121561012c578035906001600160401b0382116104a95760405192611db5601f8401601f191660200185611bd6565b8284526020838301011161012c57816000926020809301838601378301015290565b8054821015611def5760005260206000200190600090565b634e487b7160e01b600052603260045260246000fd5b60001981146109bf5760010190565b818110611e1f575050565b60008155600101611e14565b15611e3257565b60405162461bcd60e51b815260206004820152601760248201527f43616d706169676e20646f6573206e6f742065786973740000000000000000006044820152606490fd5b919082018092116109bf57565b15611e8b57565b60405162461bcd60e51b81526020600482015260096024820152682737ba1030b236b4b760b91b6044820152606490fd5b15611ec357565b60405162461bcd60e51b81526020600482015260126024820152712737ba1031b0b6b830b4b3b71037bbb732b960711b6044820152606490fdfea2646970667358221220f2fc0b06017df03554a7bc6cda5b1e7b7e930ef0641ce54e44d59e8c5a763c9a64736f6c63430008130033",
  "linkReferences": {},
  "deployedLinkReferences": {}
}