{"contracts/FundChain.sol":{"FundChain":{"abi":[{"inputs":[],"stateMutability":"nonpayable","type":"constructor"},{"anonymous":false,"inputs":[{"indexed":true,"internalType":"uint256","name":"id","type":"uint256"},{"indexed":false,"internalType":"address","name":"owner","type":"address"},{"indexed":false,"internalType":"string","name":"title","type":"string"},{"indexed":false,"internalType":"uint256","name":"target","type":"uint256"},{"indexed":false,"internalType":"uint256","name":"deadline","type":"uint256"}],"name":"CampaignCreated","type":"event"},{"anonymous":false,"inputs":[{"indexed":true,"internalType":"uint256","name":"campaignId","type":"uint256"},{"indexed":false,"internalType":"address","name":"admin","type":"address"}],"name":"CampaignVerified","type":"event"},{"anonymous":false,"inputs":[{"indexed":true,"internalType":"uint256","name":"campaignId","type":"uint256"},{"indexed":false,"internalType":"address","name":"donor","type":"address"},{"indexed":false,"internalType":"uint256","name":"amount","type":"uint256"},{"indexed":false,"internalType":"uint256","name":"totalCollected","type":"uint256"}],"name":"DonationReceived","type":"event"},{"anonymous":false,"inputs":[{"indexed":true,"internalType":"uint256","name":"campaignId","type":"uint256"},{"indexed":false,"internalType":"uint256","name":"milestoneId","type":"uint256"},{"indexed":false,"internalType":"uint256","name":"amount","type":"uint256"}],"name":"FundsWithdrawn","type":"event"},{"anonymous":false,"inputs":[{"indexed":true,"internalType":"uint256","name":"campaignId","type":"uint256"},{"indexed":false,"internalType":"uint256","name":"milestoneId","type":"uint256"},{"indexed":false,"internalType":"string","name":"title","type":"string"},{"indexed":false,"internalType":"uint256","name":"amount","type":"uint256"}],"name":"MilestoneAdded","type":"event"},{"anonymous":false,"inputs":[{"indexed":true,"internalType":"uint256","name":"campaignId","type":"uint256"},{"indexed":false,"internalType":"uint256","name":"milestoneId","type":"uint256"},{"indexed":false,"internalType":"address","name":"approver","type":"address"}],"name":"MilestoneApproved","type":"event"},{"anonymous":false,"inputs":[{"indexed":true,"internalType":"uint256","name":"campaignId","type":"uint256"},{"indexed":false,"internalType":"address","name":"signer","type":"address"},{"indexed":false,"internalType":"uint256","name":"confirmations","type":"uint256"}],"name":"MultiSigConfirmed","type":"event"},{"anonymous":false,"inputs":[{"indexed":true,"internalType":"uint256","name":"campaignId","type":"uint256"},{"indexed":false,"internalType":"address","name":"donor","type":"address"},{"indexed":false,"internalType":"uint256","name":"amount","type":"uint256"}],"name":"RefundIssued","type":"event"},{"anonymous":false,"inputs":[{"indexed":true,"internalType":"uint256","name":"campaignId","type":"uint256"}],"name":"RefundsEnabled","type":"event"},{"inputs":[{"internalType":"uint256","name":"_campaignId","type":"uint256"},{"internalType":"string","name":"_title","type":"string"},{"internalType":"uint256","name":"_amount","type":"uint256"},{"internalType":"uint256","name":"_requiredApprovals","type":"uint256"}],"name":"addMilestone","outputs":[],"stateMutability":"nonpayable","type":"function"},{"inputs":[],"name":"admin","outputs":[{"internalType":"address","name":"","type":"address"}],"stateMutability":"view","type":"function"},{"inputs":[{"internalType":"uint256","name":"_campaignId","type":"uint256"},{"internalType":"uint256","name":"_milestoneId","type":"uint256"}],"name":"approveMilestone","outputs":[],"stateMutability":"nonpayable","type":"function"},{"inputs":[],"name":"campaignCount","outputs":[{"internalType":"uint256","name":"","type":"uint256"}],"stateMutability":"view","type":"function"},{"inputs":[{"internalType":"uint256","name":"","type":"uint256"}],"name":"campaigns","outputs":[{"internalType":"address","name":"owner","type":"address"},{"internalType":"string","name":"title","type":"string"},{"internalType":"string","name":"description","type":"string"},{"internalType":"string","name":"category","type":"string"},{"internalType":"string","name":"ipfsImageHash","type":"string"},{"internalType":"uint256","name":"target","type":"uint256"},{"internalType":"uint256","name":"deadline","type":"uint256"},{"internalType":"uint256","name":"amountCollected","type":"uint256"},{"internalType":"bool","name":"withdrawn","type":"bool"},{"internalType":"bool","name":"verified","type":"bool"},{"internalType":"bool","name":"refundsEnabled","type":"bool"},{"internalType":"uint256","name":"milestoneCount","type":"uint256"},{"internalType":"uint256","name":"donorCount","type":"uint256"},{"internalType":"uint256","name":"confirmationCount","type":"uint256"}],"stateMutability":"view","type":"function"},{"inputs":[{"internalType":"uint256","name":"_id","type":"uint256"}],"name":"claimRefund","outputs":[],"stateMutability":"nonpayable","type":"function"},{"inputs":[{"internalType":"uint256","name":"_id","type":"uint256"}],"name":"confirmWithdrawal","outputs":[],"stateMutability":"nonpayable","type":"function"},{"inputs":[{"internalType":"string","name":"_title","type":"string"},{"internalType":"string","name":"_description","type":"string"},{"internalType":"string","name":"_category","type":"string"},{"internalType":"uint256","name":"_target","type":"uint256"},{"internalType":"uint256","name":"_deadline","type":"uint256"},{"internalType":"string","name":"_ipfsImageHash","type":"string"},{"internalType":"address[]","name":"_multiSigners","type":"address[]"}],"name":"createCampaign","outputs":[{"internalType":"uint256","name":"","type":"uint256"}],"stateMutability":"nonpayable","type":"function"},{"inputs":[{"internalType":"uint256","name":"_id","type":"uint256"}],"name":"donate","outputs":[],"stateMutability":"payable","type":"function"},{"inputs":[{"internalType":"uint256","name":"","type":"uint256"},{"internalType":"address","name":"","type":"address"}],"name":"donations","outputs":[{"internalType":"uint256","name":"","type":"uint256"}],"stateMutability":"view","type":"function"},{"inputs":[{"internalType":"uint256","name":"","type":"uint256"},{"internalType":"uint256","name":"","type":"uint256"}],"name":"donors","outputs":[{"internalType":"address","name":"","type":"address"}],"stateMutability":"view","type":"function"},{"inputs":[{"internalType":"uint256","name":"_id","type":"uint256"}],"name":"enableRefunds","outputs":[],"stateMutability":"nonpayable","type":"function"},{"inputs":[{"internalType":"uint256","name":"_id","type":"uint256"}],"name":"executeMultiSigWithdrawal","outputs":[],"stateMutability":"nonpayable","type":"function"},{"inputs":[],"name":"getContractBalance","outputs":[{"internalType":"uint256","name":"","type":"uint256"}],"stateMutability":"view","type":"function"},{"inputs":[{"internalType":"uint256","name":"_id","type":"uint256"}],"name":"getDonors","outputs":[{"internalType":"address[]","name":"","type":"address[]"}],"stateMutability":"view","type":"function"},{"inputs":[{"internalType":"uint256","name":"_campaignId","type":"uint256"},{"internalType":"uint256","name":"_milestoneId","type":"uint256"}],"name":"getMilestone","outputs":[{"internalType":"string","name":"title","type":"string"},{"internalType":"uint256","name":"amount","type":"uint256"},{"internalType":"bool","name":"approved","type":"bool"},{"internalType":"bool","name":"fundsReleased","type":"bool"},{"internalType":"uint256","name":"approvalCount","type":"uint256"},{"internalType":"uint256","name":"requiredApprovals","type":"uint256"},{"internalType":"string","name":"ipfsProofHash","type":"string"}],"stateMutability":"view","type":"function"},{"inputs":[{"internalType":"uint256","name":"_id","type":"uint256"}],"name":"getMultiSigners","outputs":[{"internalType":"address[]","name":"","type":"address[]"}],"stateMutability":"view","type":"function"},{"inputs":[{"internalType":"uint256","name":"","type":"uint256"},{"internalType":"uint256","name":"","type":"uint256"}],"name":"milestones","outputs":[{"internalType":"string","name":"title","type":"string"},{"internalType":"uint256","name":"amount","type":"uint256"},{"internalType":"bool","name":"approved","type":"bool"},{"internalType":"bool","name":"fundsReleased","type":"bool"},{"internalType":"uint256","name":"approvalCount","type":"uint256"},{"internalType":"uint256","name":"requiredApprovals","type":"uint256"},{"internalType":"string","name":"ipfsProofHash","type":"string"}],"stateMutability":"view","type":"function"},{"inputs":[{"internalType":"uint256","name":"_campaignId","type":"uint256"},{"internalType":"uint256","name":"_milestoneId","type":"uint256"},{"internalType":"string","name":"_ipfsHash","type":"string"}],"name":"uploadMilestoneProof","outputs":[],"stateMutability":"nonpayable","type":"function"},{"inputs":[{"internalType":"uint256","name":"_id","type":"uint256"}],"name":"verifyCampaign","outputs":[],"stateMutability":"nonpayable","type":"function"},{"inputs":[{"internalType":"uint256","name":"_campaignId","type":"uint256"},{"internalType":"uint256","name":"_milestoneId","type":"uint256"}],"name":"withdrawFunds","outputs":[],"stateMutability":"nonpayable","type":"function"}],"evm":{"bytecode":{"linkReferences":{},"object":"6080806040523461002857600580546001600160a01b03191633179055611f33908161002e8239f35b600080fdfe6080604052600436101561001257600080fd5b60003560e01c8063141961bc14611a755780631c376c6314611a1e57806320913da514611875578063295165111461180257806352b2380914611785578063571b0cef146110985780635b7baf6414610e935780636728da9d14610d235780636f9fb98a14610d075780637274e30d14610ce957806383bd62dd14610c9f5780638ed9895c14610c3257806393d17e25146109d5578063ba1294721461082c578063e5253105146105fb578063ee1554a3146105ae578063f00bffa614610528578063f14faf6f14610354578063f3b38690146101b1578063f52cb29b146101315763f851a4401461010357600080fd5b3461012c57600036600319011261012c576005546040516001600160a01b039091168152602090f35b600080fd5b3461012c57602036600319011261012c5760043561015a60018060a01b03600554163314611e84565b6101676004548210611e2b565b806000526000602052600860406000200161010061ff00198254161790557fcd3ac142ca63f77a9b68e9d6ca66363c24d59be6fade6c25b9ef29c1cd0a82dd6020604051338152a2005b3461012c5760208060031936011261012c57600435906101d46004548310611e2b565b8160005260008152604060002090600080600b84018054915b828110610316575b5050508015610303575b156102bf57600c8201903360005281815260ff60406000205416610287577f03e3ee959d51be77c5c7847de477f80beeca9dbcea2fb1b0f5afaa8765caee8a9261028292600d9233600052526040600020600160ff19825416179055016102668154611e05565b9081905560408051338152602081019290925290918291820190565b0390a2005b6064906040519062461bcd60e51b825260048201526011602482015270105b1c9958591e4818dbdb999a5c9b5959607a1b6044820152fd5b6064906040519062461bcd60e51b82526004820152601860248201527f4e6f7420616e20617574686f72697a6564207369676e657200000000000000006044820152fd5b5081546001600160a01b031633146101ff565b6103208183611dd7565b905460039190911b1c6001600160a01b031633146103465761034190611e05565b6101ed565b5050505060018480806101f5565b60208060031936011261012c57600435906103726004548310611e2b565b816000526000815260406000209060068201544210156104f35734156104bf578260005260028152604060002033600052815260406000205415610420575b60609060077f3dbea1b4ce5f95137fdcac9b1d685825c3d70ace830df1ca5a181d3887add410938560005260028352604060002033600052835260406000206103fb348254611e77565b905501610409348254611e77565b8091556040519133835234908301526040820152a2005b82600052600381526040600020908154600160401b8110156104a9577f3dbea1b4ce5f95137fdcac9b1d685825c3d70ace830df1ca5a181d3887add41093610472826060956001600795018155611dd7565b81546001600160a01b0360039290921b91821b19163390911b179055600a8101805461049d90611e05565b905593505090506103b1565b634e487b7160e01b600052604160045260246000fd5b6064906040519062461bcd60e51b82526004820152600d60248201526c09aeae6e840e6cadcc8408aa89609b1b6044820152fd5b6064906040519062461bcd60e51b82526004820152600e60248201526d10d85b5c185a59db88195b99195960921b6044820152fd5b3461012c5760208060031936011261012c5760043560005260008152600b60406000200190604051908181845491828152019360005281600020916000905b82821061058e5761058a8561057e81890382611bd6565b60405191829182611d3d565b0390f35b83546001600160a01b031686529485019460019384019390910190610567565b3461012c57604036600319011261012c576024356001600160a01b0381169081900361012c5760043560005260026020526040600020906000526020526020604060002054604051908152f35b3461012c5761060936611cdd565b6106166004548310611e2b565b816000526020906000825260018060a01b039061063b82604060002054163314611ebc565b8360005260008352604060002091600783015460058401541180159061081f575b156107e45784600052600184526040600020826000528452604060002090600282019384549260ff8416156107935760ff8460081c1661075557600101948554934785116107105761ff001916610100179055546000928392839283929116828215610707575bf1156106fb577fd5550c71ca14cc44783a664cd798ecb70dcefed6b3cfdf323041ce6d221f2d729260409254908351928352820152a2005b6040513d6000823e3d90fd5b506108fc6106c3565b60405162461bcd60e51b815260048101899052601d60248201527f496e73756666696369656e7420636f6e74726163742062616c616e63650000006044820152606490fd5b60405162461bcd60e51b8152600481018890526016602482015275119d5b991cc8185b1c9958591e481c995b19585cd95960521b6044820152606490fd5b60405162461bcd60e51b8152600481018890526024808201527f4d696c6573746f6e65206e6f742079657420617070726f76656420627920646f6044820152636e6f727360e01b6064820152608490fd5b60405162461bcd60e51b815260048101859052601360248201527246756e6472616973696e67206f6e676f696e6760681b6044820152606490fd5b506006830154421161065c565b3461012c5760208060031936011261012c576004359061084f6004548310611e2b565b816000526000815260018060a01b0361087081604060002054163314611ebc565b8260005260008252604060002090600b82015460011c600181018091116109bf57600d8301541061097a57600882019182549260ff84166109415760078201549384156109065784600094859485946001869560ff1916179055541682f1156106fb577fd5550c71ca14cc44783a664cd798ecb70dcefed6b3cfdf323041ce6d221f2d72916040918251916000198352820152a2005b60405162461bcd60e51b81526004810187905260136024820152724e6f7468696e6720746f20776974686472617760681b6044820152606490fd5b60405162461bcd60e51b815260048101869052601160248201527020b63932b0b23c903bb4ba34323930bbb760791b6044820152606490fd5b60405162461bcd60e51b815260048101849052601860248201527f4e6f7420656e6f75676820636f6e6669726d6174696f6e7300000000000000006044820152606490fd5b634e487b7160e01b600052601160045260246000fd5b3461012c57608036600319011261012c576001600160401b0360243581811161012c57610a06903690600401611d81565b9060045490610a19600435928310611e2b565b8160005260209060008252610a3c60018060a01b03604060002054163314611ebc565b606435908115610bed578360005260008352600960406000200191825492610a6384611e05565b905584600052600191828552604060002084600052855260406000209087519081116104a957610a938254611b9c565b601f8111610bb2575b5085601f8211600114610b28577fc67423104bf96f5ca8826913ae711e8c2254e1b2c04af907b2312853ed4cbed297989282610b129593600493600091610b1d575b50600019600383901b1c191690871b1781555b60443580968201550155606060405195869586528501526060840190611c9d565b9060408301520390a2005b90508501518c610ade565b8260005286600020906000601f198416905b818110610b9d5750836004937fc67423104bf96f5ca8826913ae711e8c2254e1b2c04af907b2312853ed4cbed29b9c9693610b1298968a9410610b84575b5050811b018155610af1565b87015160001960f88460031b161c191690558c80610b78565b8b830151845592870192918901918901610b3a565b610bdd908360005287600020601f840160051c810191898510610be3575b601f0160051c0190611e14565b88610a9c565b9091508190610bd0565b60405162461bcd60e51b815260048101849052601860248201527f4e656564206174206c65617374203120617070726f76616c00000000000000006044820152606490fd5b3461012c57610c4036611cdd565b9060005260016020526040600020906000526020526040600020600181015461058a60028301546003840154600485015490610c876005610c8088611bf7565b9701611bf7565b9260405196879660ff808460081c1693169188611cf3565b3461012c57610cad36611cdd565b9060005260036020526040600020805482101561012c57602091610cd091611dd7565b905460405160039290921b1c6001600160a01b03168152f35b3461012c57600036600319011261012c576020600454604051908152f35b3461012c57600036600319011261012c57602047604051908152f35b3461012c57606036600319011261012c576001600160401b0360043560443582811161012c57610d57903690600401611d81565b91610d656004548310611e2b565b8160005260209160008352610d8860018060a01b03604060002054163314611ebc565b6000526001918281526040600020602435600052815260056040600020019380519283116104a957610dba8554611b9c565b601f8111610e63575b5081601f8411600114610e005750928293918392600094610df5575b50501b916000199060031b1c1916179055600080f35b015192508580610ddf565b919083601f1981168760005284600020946000905b88838310610e495750505010610e30575b505050811b019055005b015160001960f88460031b161c19169055838080610e26565b858701518855909601959485019487935090810190610e15565b610e8d908660005283600020601f860160051c810191858710610be357601f0160051c0190611e14565b85610dc3565b3461012c5760208060031936011261012c5760043590610eb66004548310611e2b565b81600052600081526040600020600681015442111561105b5760078101908154600582015411801561104a575b15611005576008015460ff16610fc05782600052600282526040600020336000528252604060002054918215610f845783600052600281526040600020903360005252600060408120558054908282039182116109bf57556000808080843382f1156106fb576040805133815260208101929092527f7a482fdeb6bc9a1376f597068a214a7a39472bb2eff1b8cad21ba04f49ddca1b919081908101610282565b6064906040519062461bcd60e51b825260048201526015602482015274139bc8191bdb985d1a5bdb881d1bc81c99599d5b99605a1b6044820152fd5b60405162461bcd60e51b815260048101839052601760248201527f416c72656164792066756c6c792077697468647261776e0000000000000000006044820152606490fd5b60405162461bcd60e51b815260048101849052601760248201527f4e6f7420656c696769626c6520666f7220726566756e640000000000000000006044820152606490fd5b5060ff600882015460101c16610ee3565b60405162461bcd60e51b815260048101839052601560248201527443616d706169676e207374696c6c2061637469766560581b6044820152606490fd5b3461012c5760e036600319011261012c576004356001600160401b03811161012c576110c8903690600401611d81565b6024356001600160401b03811161012c576110e7903690600401611d81565b906044356001600160401b03811161012c57611107903690600401611d81565b9060a4356001600160401b03811161012c57611127903690600401611d81565b9260c435906001600160401b03821161012c573660238301121561012c578160040135946001600160401b0386116104a9578560051b926040519661116f6020860189611bd6565b87526020870190602482958201019036821161012c57602401915b8183106117655750505042608435111561172057606435156116e657600454946111b386611e05565b600455856000526000602052604060002092336bffffffffffffffffffffffff60a01b85541617845585516001600160401b0381116104a9576111f96001860154611b9c565b601f81116116b1575b50806020601f821160011461164457600091611639575b508160011b916000199060031b1c19161760018501555b8051906001600160401b0382116104a95781906112506002870154611b9c565b601f8111611604575b50602090601f831160011461159257600092611587575b50508160011b916000199060031b1c19161760028401555b8051906001600160401b0382116104a95781906112a86003860154611b9c565b601f8111611552575b50602090601f83116001146114e0576000926114d5575b50508160011b916000199060031b1c19161760038301555b8051906001600160401b0382116104a9576112fe6004840154611b9c565b601f81116114a0575b50602090601f831160011461142d57600b93929160009183611422575b50508160011b916000199060031b1c19161760048201555b60643560058201556084356006820155019351906001600160401b0382116104a957600160401b82116104a9578454828655808310611404575b5093600052602060002060005b8281106113e757602085807fdc26653af5b99b2da33e2ad69ee6600d9aeccc82b034501db4338309615ca2386113cc886040519182913383526080888401526080830190611c9d565b606435604083015260843560608301520390a2604051908152f35b85516001600160a01b031681830155602090950194600101611383565b61141c90866000528360206000209182019101611e14565b85611376565b015190508880611324565b906004840160005260206000209160005b601f19851681106114885750918391600193600b9695601f1981161061146f575b505050811b01600482015561133c565b015160001960f88460031b161c1916905588808061145f565b9192602060018192868501518155019401920161143e565b6114cf90600485016000526020600020601f850160051c81019160208610610be357601f0160051c0190611e14565b87611307565b0151905088806112c8565b9250600385016000526020600020906000935b601f1984168510611537576001945083601f1981161061151e575b505050811b0160038301556112e0565b015160001960f88460031b161c1916905588808061150e565b818101518355602094850194600190930192909101906114f3565b61158190600387016000526020600020601f850160051c81019160208610610be357601f0160051c0190611e14565b896112b1565b015190508980611270565b9250600286016000526020600020906000935b601f19841685106115e9576001945083601f198116106115d0575b505050811b016002840155611288565b015160001960f88460031b161c191690558980806115c0565b818101518355602094850194600190930192909101906115a5565b61163390600288016000526020600020601f850160051c81019160208610610be357601f0160051c0190611e14565b8a611259565b90508701518a611219565b91506001860160005260206000206000925b601f1983168410611699576001935082601f19811610611680575b5050811b016001850155611230565b89015160001960f88460031b161c191690558a80611671565b89810151825560209384019360019092019101611656565b6116e090600187016000526020600020601f840160051c81019160208510610be357601f0160051c0190611e14565b89611202565b60405162461bcd60e51b81526020600482015260126024820152710546172676574206d757374206265203e20360741b6044820152606490fd5b60405162461bcd60e51b815260206004820152601a60248201527f446561646c696e65206d75737420626520696e206675747572650000000000006044820152606490fd5b82356001600160a01b038116810361012c5781526020928301920161118a565b3461012c57602036600319011261012c576004356117ae60018060a01b03600554163314611e84565b6117bb6004548210611e2b565b80600052600060205260086040600020016201000062ff0000198254161790557f01fd9d9d9f159bbb346cbe96d08df5b61108b672fa79a2d53fb9c67b9717d273600080a2005b3461012c5760208060031936011261012c5760043560005260038152604060002090604051908181845491828152019360005281600020916000905b8282106118555761058a8561057e81890382611bd6565b83546001600160a01b03168652948501946001938401939091019061183e565b3461012c5761188336611cdd565b6118906004548310611e2b565b816000526020600281526040600020336000528152604060002054156119da5782600052600181526040600020826000528152604060002060068101933360005284835260ff604060002054166119a557600282019460ff8654166119605790600492913360005284527f9ffbb52f2a1362273cd74689a516ca4f52c4282dc13e2e68b7e0646a9a7af7a36040806000209660ff1997600189825416179055600385019661193e8854611e05565b80985582519182523390820152a20154111561195657005b8154166001179055005b60405162461bcd60e51b815260048101859052601a60248201527f4d696c6573746f6e6520616c726561647920617070726f7665640000000000006044820152606490fd5b60405162461bcd60e51b815260048101849052600d60248201526c105b1c9958591e481d9bdd1959609a1b6044820152606490fd5b6064906040519062461bcd60e51b82526004820152601760248201527f4d757374206265206120646f6e6f7220746f20766f74650000000000000000006044820152fd5b3461012c57611a2c36611cdd565b9060005260016020526040600020906000526020526040600020611a4f81611bf7565b9061058a6001820154916002810154906003810154610c87600560048401549301611bf7565b3461012c57602036600319011261012c57600435600090815260208190526040902080546001600160a01b0316611aae60018301611bf7565b91611abb60028201611bf7565b611ac760038301611bf7565b91611ad460048201611bf7565b926005820154936006830154600784015490600885015492600986015494600a87015496600d0154976040519b8c9b8c528b6101c06020819201528c01611b1a91611c9d565b8b810360408d0152611b2b91611c9d565b8a810360608c0152611b3c91611c9d565b89810360808b0152611b4d91611c9d565b9660a089015260c088015260e087015260ff811615156101008701528060081c60ff16151561012087015260101c60ff1615156101408601526101608501526101808401526101a08301520390f35b90600182811c92168015611bcc575b6020831014611bb657565b634e487b7160e01b600052602260045260246000fd5b91607f1691611bab565b90601f801991011681019081106001600160401b038211176104a957604052565b9060405191826000825492611c0b84611b9c565b908184526001948581169081600014611c7a5750600114611c37575b5050611c3592500383611bd6565b565b9093915060005260209081600020936000915b818310611c62575050611c3593508201013880611c27565b85548884018501529485019487945091830191611c4a565b915050611c3594506020925060ff191682840152151560051b8201013880611c27565b919082519283825260005b848110611cc9575050826000602080949584010152601f8019910116010190565b602081830181015184830182015201611ca8565b604090600319011261012c576004359060243590565b939092611d0f611d3a989693979460e0875260e0870190611c9d565b9660208601521515604085015215156060840152608083015260a082015260c0818403910152611c9d565b90565b6020908160408183019282815285518094520193019160005b828110611d64575050505090565b83516001600160a01b031685529381019392810192600101611d56565b81601f8201121561012c578035906001600160401b0382116104a95760405192611db5601f8401601f191660200185611bd6565b8284526020838301011161012c57816000926020809301838601378301015290565b8054821015611def5760005260206000200190600090565b634e487b7160e01b600052603260045260246000fd5b60001981146109bf5760010190565b818110611e1f575050565b60008155600101611e14565b15611e3257565b60405162461bcd60e51b815260206004820152601760248201527f43616d706169676e20646f6573206e6f742065786973740000000000000000006044820152606490fd5b919082018092116109bf57565b15611e8b57565b60405162461bcd60e51b81526020600482015260096024820152682737ba1030b236b4b760b91b6044820152606490fd5b15611ec357565b60405162461bcd60e51b81526020600482015260126024820152712737ba1031b0b6b830b4b3b71037bbb732b960711b6044820152606490fdfea2646970667358221220f2fc0b06017df03554a7bc6cda5b1e7b7e930ef0641ce54e44d59e8c5a763c9a64736f6c63430008130033","opcodes":"PUSH1 0x80 DUP1 PUSH1 0x40 MSTORE CALLVALUE PUSH2 0x28 JUMPI PUSH1 0x5 DUP1 SLOAD PUSH1 0x1 PUSH1 0x1 PUSH1 0xA0 SHL SUB NOT AND CALLER OR SWAP1 SSTORE PUSH2 0x1F33 SWAP1 DUP2 PUSH2 0x2E DUP3 CODECOPY RETURN JUMPDEST PUSH1 0x0 DUP1 REVERT INVALID PUSH1 0x80 PUSH1 0x40 MSTORE PUSH1 0x4 CALLDATASIZE LT ISZERO PUSH2 0x12 JUMPI PUSH1 0x0 DUP1 REVERT JUMPDEST PUSH1 0x0 CALLDATALOAD PUSH1 0xE0 SHR DUP1 PUSH4 0x141961BC EQ PUSH2 0x1A75 JUMPI DUP1 PUSH4 0x1C376C63 EQ PUSH2 0x1A1E JUMPI DUP1 PUSH4 0x20913DA5 EQ PUSH2 0x1875 JUMPI DUP1 PUSH4 0x29516511 EQ PUSH2 0x1802 JUMPI DUP1 PUSH4 0x52B23809 EQ PUSH2 0x1785 JUMPI DUP1 PUSH4 0x571B0CEF EQ PUSH2 0x1098 JUMPI DUP1 PUSH4 0x5B7BAF64 EQ PUSH2 0xE93 JUMPI DUP1 PUSH4 0x6728DA9D EQ PUSH2 0xD23 JUMPI DUP1 PUSH4 0x6F9FB98A EQ PUSH2 0xD07 JUMPI DUP1 PUSH4 0x7274E30D EQ PUSH2 0xCE9 JUMPI DUP1 PUSH4 0x83BD62DD EQ PUSH2 0xC9F JUMPI DUP1 PUSH4 0x8ED9895C EQ PUSH2 0xC32 JUMPI DUP1 PUSH4 0x93D17E25 EQ PUSH2 0x9D5 JUMPI DUP1 PUSH4 0xBA129472 EQ PUSH2 0x82C JUMPI DUP1 PUSH4 0xE5253105 EQ PUSH2 0x5FB JUMPI DUP1 PUSH4 0xEE1554A3 EQ PUSH2 0x5AE JUMPI DUP1 PUSH4 0xF00BFFA6 EQ PUSH2 0x528 JUMPI DUP1 PUSH4 0xF14FAF6F EQ PUSH2 0x354 JUMPI DUP1 PUSH4 0xF3B38690 EQ PUSH2 0x1B1 JUMPI DUP1 PUSH4 0xF52CB29B EQ PUSH2 0x131 JUMPI PUSH4 0xF851A440 EQ PUSH2 0x103 JUMPI PUSH1 0x0 DUP1 REVERT JUMPDEST CALLVALUE PUSH2 0x12C JUMPI PUSH1 0x0 CALLDATASIZE PUSH1 0x3 NOT ADD SLT PUSH2 0x12C JUMPI PUSH1 0x5 SLOAD PUSH1 0x40 MLOAD PUSH1 0x1 PUSH1 0x1 PUSH1 0xA0 SHL SUB SWAP1 SWAP2 AND DUP2 MSTORE PUSH1 0x20 SWAP1 RETURN JUMPDEST PUSH1 0x0 DUP1 REVERT JUMPDEST CALLVALUE PUSH2 0x12C JUMPI PUSH1 0x20 CALLDATASIZE PUSH1 0x3 NOT ADD SLT PUSH2 0x12C JUMPI PUSH1 0x4 CALLDATALOAD PUSH2 0x15A PUSH1 0x1 DUP1 PUSH1 0xA0 SHL SUB PUSH1 0x5 SLOAD AND CALLER EQ PUSH2 0x1E84 JUMP JUMPDEST PUSH2 0x167 PUSH1 0x4 SLOAD DUP3 LT PUSH2 0x1E2B JUMP JUMPDEST DUP1 PUSH1 0x0 MSTORE PUSH1 0x0 PUSH1 0x20 MSTORE PUSH1 0x8 PUSH1 0x40 PUSH1 0x0 KECCAK256 ADD PUSH2 0x100 PUSH2 0xFF00 NOT DUP3 SLOAD AND OR SWAP1 SSTORE PUSH32 0xCD3AC142CA63F77A9B68E9D6CA66363C24D59BE6FADE6C25B9EF29C1CD0A82DD PUSH1 0x20 PUSH1 0x40 MLOAD CALLER DUP2 MSTORE LOG2 STOP JUMPDEST CALLVALUE PUSH2 0x12C JUMPI PUSH1 0x20 DUP1 PUSH1 0x3 NOT CALLDATASIZE ADD SLT PUSH2 0x12C JUMPI PUSH1 0x4 CALLDATALOAD SWAP1 PUSH2 0x1D4 PUSH1 0x4 SLOAD DUP4 LT PUSH2 0x1E2B JUMP JUMPDEST DUP2 PUSH1 0x0 MSTORE PUSH1 0x0 DUP2 MSTORE PUSH1 0x40 PUSH1 0x0 KECCAK256 SWAP1 PUSH1 0x0 DUP1 PUSH1 0xB DUP5 ADD DUP1 SLOAD SWAP2 JUMPDEST DUP3 DUP2 LT PUSH2 0x316 JUMPI JUMPDEST POP POP POP DUP1 ISZERO PUSH2 0x303 JUMPI JUMPDEST ISZERO PUSH2 0x2BF JUMPI PUSH1 0xC DUP3 ADD SWAP1 CALLER PUSH1 0x0 MSTORE DUP2 DUP2 MSTORE PUSH1 0xFF PUSH1 0x40 PUSH1 0x0 KECCAK256 SLOAD AND PUSH2 0x287 JUMPI PUSH32 0x3E3EE959D51BE77C5C7847DE477F80BEECA9DBCEA2FB1B0F5AFAA8765CAEE8A SWAP3 PUSH2 0x282 SWAP3 PUSH1 0xD SWAP3 CALLER PUSH1 0x0 MSTORE MSTORE PUSH1 0x40 PUSH1 0x0 KECCAK256 PUSH1 0x1 PUSH1 0xFF NOT DUP3 SLOAD AND OR SWAP1 SSTORE ADD PUSH2 0x266 DUP2 SLOAD PUSH2 0x1E05 JUMP JUMPDEST SWAP1 DUP2 SWAP1 SSTORE PUSH1 0x40 DUP1 MLOAD CALLER DUP2 MSTORE PUSH1 0x20 DUP2 ADD SWAP3 SWAP1 SWAP3 MSTORE SWAP1 SWAP2 DUP3 SWAP2 DUP3 ADD SWAP1 JUMP JUMPDEST SUB SWAP1 LOG2 STOP JUMPDEST PUSH1 0x64 SWAP1 PUSH1 0x40 MLOAD SWAP1 PUSH3 0x461BCD PUSH1 0xE5 SHL DUP3 MSTORE PUSH1 0x4 DUP3 ADD MSTORE PUSH1 0x11 PUSH1 0x24 DUP3 ADD MSTORE PUSH17 0x105B1C9958591E4818DBDB999A5C9B5959 PUSH1 0x7A SHL PUSH1 0x44 DUP3 ADD MSTORE REVERT JUMPDEST PUSH1 0x64 SWAP1 PUSH1 0x40 MLOAD SWAP1 PUSH3 0x461BCD PUSH1 0xE5 SHL DUP3 MSTORE PUSH1 0x4 DUP3 ADD MSTORE PUSH1 0x18 PUSH1 0x24 DUP3 ADD MSTORE PUSH32 0x4E6F7420616E20617574686F72697A6564207369676E65720000000000000000 PUSH1 0x44 DUP3 ADD MSTORE REVERT JUMPDEST POP DUP2 SLOAD PUSH1 0x1 PUSH1 0x1 PUSH1 0xA0 SHL SUB AND CALLER EQ PUSH2 0x1FF JUMP JUMPDEST PUSH2 0x320 DUP2 DUP4 PUSH2 0x1DD7 JUMP JUMPDEST SWAP1 SLOAD PUSH1 0x3 SWAP2 SWAP1 SWAP2 SHL SHR PUSH1 0x1 PUSH1 0x1 PUSH1 0xA0 SHL SUB AND CALLER EQ PUSH2 0x346 JUMPI PUSH2 0x341 SWAP1 PUSH2 0x1E05 JUMP JUMPDEST PUSH2 0x1ED JUMP JUMPDEST POP POP POP POP PUSH1 0x1 DUP5 DUP1 DUP1 PUSH2 0x1F5 JUMP JUMPDEST PUSH1 0x20 DUP1 PUSH1 0x3 NOT CALLDATASIZE ADD SLT PUSH2 0x12C JUMPI PUSH1 0x4 CALLDATALOAD SWAP1 PUSH2 0x372 PUSH1 0x4 SLOAD DUP4 LT PUSH2 0x1E2B JUMP JUMPDEST DUP2 PUSH1 0x0 MSTORE PUSH1 0x0 DUP2 MSTORE PUSH1 0x40 PUSH1 0x0 KECCAK256 SWAP1 PUSH1 0x6 DUP3 ADD SLOAD TIMESTAMP LT ISZERO PUSH2 0x4F3 JUMPI CALLVALUE ISZERO PUSH2 0x4BF JUMPI DUP3 PUSH1 0x0 MSTORE PUSH1 0x2 DUP2 MSTORE PUSH1 0x40 PUSH1 0x0 KECCAK256 CALLER PUSH1 0x0 MSTORE DUP2 MSTORE PUSH1 0x40 PUSH1 0x0 KECCAK256 SLOAD ISZERO PUSH2 0x420 JUMPI JUMPDEST PUSH1 0x60 SWAP1 PUSH1 0x7 PUSH32 0x3DBEA1B4CE5F95137FDCAC9B1D685825C3D70ACE830DF1CA5A181D3887ADD410 SWAP4 DUP6 PUSH1 0x0 MSTORE PUSH1 0x2 DUP4 MSTORE PUSH1 0x40 PUSH1 0x0 KECCAK256 CALLER PUSH1 0x0 MSTORE DUP4 MSTORE PUSH1 0x40 PUSH1 0x0 KECCAK256 PUSH2 0x3FB CALLVALUE DUP3 SLOAD PUSH2 0x1E77 JUMP JUMPDEST SWAP1 SSTORE ADD PUSH2 0x409 CALLVALUE DUP3 SLOAD PUSH2 0x1E77 JUMP JUMPDEST DUP1 SWAP2 SSTORE PUSH1 0x40 MLOAD SWAP2 CALLER DUP4 MSTORE CALLVALUE SWAP1 DUP4 ADD MSTORE PUSH1 0x40 DUP3 ADD MSTORE LOG2 STOP JUMPDEST DUP3 PUSH1 0x0 MSTORE PUSH1 0x3 DUP2 MSTORE PUSH1 0x40 PUSH1 0x0 KECCAK256 SWAP1 DUP2 SLOAD PUSH1 0x1 PUSH1 0x40 SHL DUP2 LT ISZERO PUSH2 0x4A9 JUMPI PUSH32 0x3DBEA1B4CE5F95137FDCAC9B1D685825C3D70ACE830DF1CA5A181D3887ADD410 SWAP4 PUSH2 0x472 DUP3 PUSH1 0x60 SWAP6 PUSH1 0x1 PUSH1 0x7 SWAP6 ADD DUP2 SSTORE PUSH2 0x1DD7 JUMP JUMPDEST DUP2 SLOAD PUSH1 0x1 PUSH1 0x1 PUSH1 0xA0 SHL SUB PUSH1 0x3 SWAP3 SWAP1 SWAP3 SHL SWAP2 DUP3 SHL NOT AND CALLER SWAP1 SWAP2 SHL OR SWAP1 SSTORE PUSH1 0xA DUP2 ADD DUP1 SLOAD PUSH2 0x49D SWAP1 PUSH2 0x1E05 JUMP JUMPDEST SWAP1 SSTORE SWAP4 POP POP SWAP1 POP PUSH2 0x3B1 JUMP JUMPDEST PUSH4 0x4E487B71 PUSH1 0xE0 SHL PUSH1 0x0 MSTORE PUSH1 0x41 PUSH1 0x4 MSTORE PUSH1 0x24 PUSH1 0x0 REVERT JUMPDEST PUSH1 0x64 SWAP1 PUSH1 0x40 MLOAD SWAP1 PUSH3 0x461BCD PUSH1 0xE5 SHL DUP3 MSTORE PUSH1 0x4 DUP3 ADD MSTORE PUSH1 0xD PUSH1 0x24 DUP3 ADD MSTORE PUSH13 0x9AEAE6E840E6CADCC8408AA89 PUSH1 0x9B SHL PUSH1 0x44 DUP3 ADD MSTORE REVERT JUMPDEST PUSH1 0x64 SWAP1 PUSH1 0x40 MLOAD SWAP1 PUSH3 0x461BCD PUSH1 0xE5 SHL DUP3 MSTORE PUSH1 0x4 DUP3 ADD MSTORE PUSH1 0xE PUSH1 0x24 DUP3 ADD MSTORE PUSH14 0x10D85B5C185A59DB88195B991959 PUSH1 0x92 SHL PUSH1 0x44 DUP3 ADD MSTORE REVERT JUMPDEST CALLVALUE PUSH2 0x12C JUMPI PUSH1 0x20 DUP1 PUSH1 0x3 NOT CALLDATASIZE ADD SLT PUSH2 0x12C JUMPI PUSH1 0x4 CALLDATALOAD PUSH1 0x0 MSTORE PUSH1 0x0 DUP2 MSTORE PUSH1 0xB PUSH1 0x40 PUSH1 0x0 KECCAK256 ADD SWAP1 PUSH1 0x40 MLOAD SWAP1 DUP2 DUP2 DUP5 SLOAD SWAP2 DUP3 DUP2 MSTORE ADD SWAP4 PUSH1 0x0 MSTORE DUP2 PUSH1 0x0 KECCAK256 SWAP2 PUSH1 0x0 SWAP1 JUMPDEST DUP3 DUP3 LT PUSH2 0x58E JUMPI PUSH2 0x58A DUP6 PUSH2 0x57E DUP2 DUP10 SUB DUP3 PUSH2 0x1BD6 JUMP JUMPDEST PUSH1 0x40 MLOAD SWAP2 DUP3 SWAP2 DUP3 PUSH2 0x1D3D JUMP JUMPDEST SUB SWAP1 RETURN JUMPDEST DUP4 SLOAD PUSH1 0x1 PUSH1 0x1 PUSH1 0xA0 SHL SUB AND DUP7 MSTORE SWAP5 DUP6 ADD SWAP5 PUSH1 0x1 SWAP4 DUP5 ADD SWAP4 SWAP1 SWAP2 ADD SWAP1 PUSH2 0x567 JUMP JUMPDEST CALLVALUE PUSH2 0x12C JUMPI PUSH1 0x40 CALLDATASIZE PUSH1 0x3 NOT ADD SLT PUSH2 0x12C JUMPI PUSH1 0x24 CALLDATALOAD PUSH1 0x1 PUSH1 0x1 PUSH1 0xA0 SHL SUB DUP2 AND SWAP1 DUP2 SWAP1 SUB PUSH2 0x12C JUMPI PUSH1 0x4 CALLDATALOAD PUSH1 0x0 MSTORE PUSH1 0x2 PUSH1 0x20 MSTORE PUSH1 0x40 PUSH1 0x0 KECCAK256 SWAP1 PUSH1 0x0 MSTORE PUSH1 0x20 MSTORE PUSH1 0x20 PUSH1 0x40 PUSH1 0x0 KECCAK256 SLOAD PUSH1 0x40 MLOAD SWAP1 DUP2 MSTORE RETURN JUMPDEST CALLVALUE PUSH2 0x12C JUMPI PUSH2 0x609 CALLDATASIZE PUSH2 0x1CDD JUMP JUMPDEST PUSH2 0x616 PUSH1 0x4 SLOAD DUP4 LT PUSH2 0x1E2B JUMP JUMPDEST DUP2 PUSH1 0x0 MSTORE PUSH1 0x20 SWAP1 PUSH1 0x0 DUP3 MSTORE PUSH1 0x1 DUP1 PUSH1 0xA0 SHL SUB SWAP1 PUSH2 0x63B DUP3 PUSH1 0x40 PUSH1 0x0 KECCAK256 SLOAD AND CALLER EQ PUSH2 0x1EBC JUMP JUMPDEST DUP4 PUSH1 0x0 MSTORE PUSH1 0x0 DUP4 MSTORE PUSH1 0x40 PUSH1 0x0 KECCAK256 SWAP2 PUSH1 0x7 DUP4 ADD SLOAD PUSH1 0x5 DUP5 ADD SLOAD GT DUP1 ISZERO SWAP1 PUSH2 0x81F JUMPI JUMPDEST ISZERO PUSH2 0x7E4 JUMPI DUP5 PUSH1 0x0 MSTORE PUSH1 0x1 DUP5 MSTORE PUSH1 0x40 PUSH1 0x0 KECCAK256 DUP3 PUSH1 0x0 MSTORE DUP5 MSTORE PUSH1 0x40 PUSH1 0x0 KECCAK256 SWAP1 PUSH1 0x2 DUP3 ADD SWAP4 DUP5 SLOAD SWAP3 PUSH1 0xFF DUP5 AND ISZERO PUSH2 0x793 JUMPI PUSH1 0xFF DUP5 PUSH1 0x8 SHR AND PUSH2 0x755 JUMPI PUSH1 0x1 ADD SWAP5 DUP6 SLOAD SWAP4 SELFBALANCE DUP6 GT PUSH2 0x710 JUMPI PUSH2 0xFF00 NOT AND PUSH2 0x100 OR SWAP1 SSTORE SLOAD PUSH1 0x0 SWAP3 DUP4 SWAP3 DUP4 SWAP3 DUP4 SWAP3 SWAP2 AND DUP3 DUP3 ISZERO PUSH2 0x707 JUMPI JUMPDEST CALL ISZERO PUSH2 0x6FB JUMPI PUSH32 0xD5550C71CA14CC44783A664CD798ECB70DCEFED6B3CFDF323041CE6D221F2D72 SWAP3 PUSH1 0x40 SWAP3 SLOAD SWAP1 DUP4 MLOAD SWAP3 DUP4 MSTORE DUP3 ADD MSTORE LOG2 STOP JUMPDEST PUSH1 0x40 MLOAD RETURNDATASIZE PUSH1 0x0 DUP3 RETURNDATACOPY RETURNDATASIZE SWAP1 REVERT JUMPDEST POP PUSH2 0x8FC PUSH2 0x6C3 JUMP JUMPDEST PUSH1 0x40 MLOAD PUSH3 0x461BCD PUSH1 0xE5 SHL DUP2 MSTORE PUSH1 0x4 DUP2 ADD DUP10 SWAP1 MSTORE PUSH1 0x1D PUSH1 0x24 DUP3 ADD MSTORE PUSH32 0x496E73756666696369656E7420636F6E74726163742062616C616E6365000000 PUSH1 0x44 DUP3 ADD MSTORE PUSH1 0x64 SWAP1 REVERT JUMPDEST PUSH1 0x40 MLOAD PUSH3 0x461BCD PUSH1 0xE5 SHL DUP2 MSTORE PUSH1 0x4 DUP2 ADD DUP9 SWAP1 MSTORE PUSH1 0x16 PUSH1 0x24 DUP3 ADD MSTORE PUSH22 0x119D5B991CC8185B1C9958591E481C995B19585CD959 PUSH1 0x52 SHL PUSH1 0x44 DUP3 ADD MSTORE PUSH1 0x64 SWAP1 REVERT JUMPDEST PUSH1 0x40 MLOAD PUSH3 0x461BCD PUSH1 0xE5 SHL DUP2 MSTORE PUSH1 0x4 DUP2 ADD DUP9 SWAP1 MSTORE PUSH1 0x24 DUP1 DUP3 ADD MSTORE PUSH32 0x4D696C6573746F6E65206E6F742079657420617070726F76656420627920646F PUSH1 0x44 DUP3 ADD MSTORE PUSH4 0x6E6F7273 PUSH1 0xE0 SHL PUSH1 0x64 DUP3 ADD MSTORE PUSH1 0x84 SWAP1 REVERT JUMPDEST PUSH1 0x40 MLOAD PUSH3 0x461BCD PUSH1 0xE5 SHL DUP2 MSTORE PUSH1 0x4 DUP2 ADD DUP6 SWAP1 MSTORE PUSH1 0x13 PUSH1 0x24 DUP3 ADD MSTORE PUSH19 0x46756E6472616973696E67206F6E676F696E67 PUSH1 0x68 SHL PUSH1 0x44 DUP3 ADD MSTORE PUSH1 0x64 SWAP1 REVERT JUMPDEST POP PUSH1 0x6 DUP4 ADD SLOAD TIMESTAMP GT PUSH2 0x65C JUMP JUMPDEST CALLVALUE PUSH2 0x12C JUMPI PUSH1 0x20 DUP1 PUSH1 0x3 NOT CALLDATASIZE ADD SLT PUSH2 0x12C JUMPI PUSH1 0x4 CALLDATALOAD SWAP1 PUSH2 0x84F PUSH1 0x4 SLOAD DUP4 LT PUSH2 0x1E2B JUMP JUMPDEST DUP2 PUSH1 0x0 MSTORE PUSH1 0x0 DUP2 MSTORE PUSH1 0x1 DUP1 PUSH1 0xA0 SHL SUB PUSH2 0x870 DUP2 PUSH1 0x40 PUSH1 0x0 KECCAK256 SLOAD AND CALLER EQ PUSH2 0x1EBC JUMP JUMPDEST DUP3 PUSH1 0x0 MSTORE PUSH1 0x0 DUP3 MSTORE PUSH1 0x40 PUSH1 0x0 KECCAK256 SWAP1 PUSH1 0xB DUP3 ADD SLOAD PUSH1 0x1 SHR PUSH1 0x1 DUP2 ADD DUP1 SWAP2 GT PUSH2 0x9BF JUMPI PUSH1 0xD DUP4 ADD SLOAD LT PUSH2 0x97A JUMPI PUSH1 0x8 DUP3 ADD SWAP2 DUP3 SLOAD SWAP3 PUSH1 0xFF DUP5 AND PUSH2 0x941 JUMPI PUSH1 0x7 DUP3 ADD SLOAD SWAP4 DUP5 ISZERO PUSH2 0x906 JUMPI DUP5 PUSH1 0x0 SWAP5 DUP6 SWAP5 DUP6 SWAP5 PUSH1 0x1 DUP7 SWAP6 PUSH1 0xFF NOT AND OR SWAP1 SSTORE SLOAD AND DUP3 CALL ISZERO PUSH2 0x6FB JUMPI PUSH32 0xD5550C71CA14CC44783A664CD798ECB70DCEFED6B3CFDF323041CE6D221F2D72 SWAP2 PUSH1 0x40 SWAP2 DUP3 MLOAD SWAP2 PUSH1 0x0 NOT DUP4 MSTORE DUP3 ADD MSTORE LOG2 STOP JUMPDEST PUSH1 0x40 MLOAD PUSH3 0x461BCD PUSH1 0xE5 SHL DUP2 MSTORE PUSH1 0x4 DUP2 ADD DUP8 SWAP1 MSTORE PUSH1 0x13 PUSH1 0x24 DUP3 ADD MSTORE PUSH19 0x4E6F7468696E6720746F207769746864726177 PUSH1 0x68 SHL PUSH1 0x44 DUP3 ADD MSTORE PUSH1 0x64 SWAP1 REVERT JUMPDEST PUSH1 0x40 MLOAD PUSH3 0x461BCD PUSH1 0xE5 SHL DUP2 MSTORE PUSH1 0x4 DUP2 ADD DUP7 SWAP1 MSTORE PUSH1 0x11 PUSH1 0x24 DUP3 ADD MSTORE PUSH17 0x20B63932B0B23C903BB4BA34323930BBB7 PUSH1 0x79 SHL PUSH1 0x44 DUP3 ADD MSTORE PUSH1 0x64 SWAP1 REVERT JUMPDEST PUSH1 0x40 MLOAD PUSH3 0x461BCD PUSH1 0xE5 SHL DUP2 MSTORE PUSH1 0x4 DUP2 ADD DUP5 SWAP1 MSTORE PUSH1 0x18 PUSH1 0x24 DUP3 ADD MSTORE PUSH32 0x4E6F7420656E6F75676820636F6E6669726D6174696F6E730000000000000000 PUSH1 0x44 DUP3 ADD MSTORE PUSH1 0x64 SWAP1 REVERT JUMPDEST PUSH4 0x4E487B71 PUSH1 0xE0 SHL PUSH1 0x0 MSTORE PUSH1 0x11 PUSH1 0x4 MSTORE PUSH1 0x24 PUSH1 0x0 REVERT JUMPDEST CALLVALUE PUSH2 0x12C JUMPI PUSH1 0x80 CALLDATASIZE PUSH1 0x3 NOT ADD SLT PUSH2 0x12C JUMPI PUSH1 0x1 PUSH1 0x1 PUSH1 0x40 SHL SUB PUSH1 0x24 CALLDATALOAD DUP2 DUP2 GT PUSH2 0x12C JUMPI PUSH2 0xA06 SWAP1 CALLDATASIZE SWAP1 PUSH1 0x4 ADD PUSH2 0x1D81 JUMP JUMPDEST SWAP1 PUSH1 0x4 SLOAD SWAP1 PUSH2 0xA19 PUSH1 0x4 CALLDATALOAD SWAP3 DUP4 LT PUSH2 0x1E2B JUMP JUMPDEST DUP2 PUSH1 0x0 MSTORE PUSH1 0x20 SWAP1 PUSH1 0x0 DUP3 MSTORE PUSH2 0xA3C PUSH1 0x1 DUP1 PUSH1 0xA0 SHL SUB PUSH1 0x40 PUSH1 0x0 KECCAK256 SLOAD AND CALLER EQ PUSH2 0x1EBC JUMP JUMPDEST PUSH1 0x64 CALLDATALOAD SWAP1 DUP2 ISZERO PUSH2 0xBED JUMPI DUP4 PUSH1 0x0 MSTORE PUSH1 0x0 DUP4 MSTORE PUSH1 0x9 PUSH1 0x40 PUSH1 0x0 KECCAK256 ADD SWAP2 DUP3 SLOAD SWAP3 PUSH2 0xA63 DUP5 PUSH2 0x1E05 JUMP JUMPDEST SWAP1 SSTORE DUP5 PUSH1 0x0 MSTORE PUSH1 0x1 SWAP2 DUP3 DUP6 MSTORE PUSH1 0x40 PUSH1 0x0 KECCAK256 DUP5 PUSH1 0x0 MSTORE DUP6 MSTORE PUSH1 0x40 PUSH1 0x0 KECCAK256 SWAP1 DUP8 MLOAD SWAP1 DUP2 GT PUSH2 0x4A9 JUMPI PUSH2 0xA93 DUP3 SLOAD PUSH2 0x1B9C JUMP JUMPDEST PUSH1 0x1F DUP2 GT PUSH2 0xBB2 JUMPI JUMPDEST POP DUP6 PUSH1 0x1F DUP3 GT PUSH1 0x1 EQ PUSH2 0xB28 JUMPI PUSH32 0xC67423104BF96F5CA8826913AE711E8C2254E1B2C04AF907B2312853ED4CBED2 SWAP8 SWAP9 SWAP3 DUP3 PUSH2 0xB12 SWAP6 SWAP4 PUSH1 0x4 SWAP4 PUSH1 0x0 SWAP2 PUSH2 0xB1D JUMPI JUMPDEST POP PUSH1 0x0 NOT PUSH1 0x3 DUP4 SWAP1 SHL SHR NOT AND SWAP1 DUP8 SHL OR DUP2 SSTORE JUMPDEST PUSH1 0x44 CALLDATALOAD DUP1 SWAP7 DUP3 ADD SSTORE ADD SSTORE PUSH1 0x60 PUSH1 0x40 MLOAD SWAP6 DUP7 SWAP6 DUP7 MSTORE DUP6 ADD MSTORE PUSH1 0x60 DUP5 ADD SWAP1 PUSH2 0x1C9D JUMP JUMPDEST SWAP1 PUSH1 0x40 DUP4 ADD MSTORE SUB SWAP1 LOG2 STOP JUMPDEST SWAP1 POP DUP6 ADD MLOAD DUP13 PUSH2 0xADE JUMP JUMPDEST DUP3 PUSH1 0x0 MSTORE DUP7 PUSH1 0x0 KECCAK256 SWAP1 PUSH1 0x0 PUSH1 0x1F NOT DUP5 AND SWAP1 JUMPDEST DUP2 DUP2 LT PUSH2 0xB9D JUMPI POP DUP4 PUSH1 0x4 SWAP4 PUSH32 0xC67423104BF96F5CA8826913AE711E8C2254E1B2C04AF907B2312853ED4CBED2 SWAP12 SWAP13 SWAP7 SWAP4 PUSH2 0xB12 SWAP9 SWAP7 DUP11 SWAP5 LT PUSH2 0xB84 JUMPI JUMPDEST POP POP DUP2 SHL ADD DUP2 SSTORE PUSH2 0xAF1 JUMP JUMPDEST DUP8 ADD MLOAD PUSH1 0x0 NOT PUSH1 0xF8 DUP5 PUSH1 0x3 SHL AND SHR NOT AND SWAP1 SSTORE DUP13 DUP1 PUSH2 0xB78 JUMP JUMPDEST DUP12 DUP4 ADD MLOAD DUP5 SSTORE SWAP3 DUP8 ADD SWAP3 SWAP2 DUP10 ADD SWAP2 DUP10 ADD PUSH2 0xB3A JUMP JUMPDEST PUSH2 0xBDD SWAP1 DUP4 PUSH1 0x0 MSTORE DUP8 PUSH1 0x0 KECCAK256 PUSH1 0x1F DUP5 ADD PUSH1 0x5 SHR DUP2 ADD SWAP2 DUP10 DUP6 LT PUSH2 0xBE3 JUMPI JUMPDEST PUSH1 0x1F ADD PUSH1 0x5 SHR ADD SWAP1 PUSH2 0x1E14 JUMP JUMPDEST DUP9 PUSH2 0xA9C JUMP JUMPDEST SWAP1 SWAP2 POP DUP2 SWAP1 PUSH2 0xBD0 JUMP JUMPDEST PUSH1 0x40 MLOAD PUSH3 0x461BCD PUSH1 0xE5 SHL DUP2 MSTORE PUSH1 0x4 DUP2 ADD DUP5 SWAP1 MSTORE PUSH1 0x18 PUSH1 0x24 DUP3 ADD MSTORE PUSH32 0x4E656564206174206C65617374203120617070726F76616C0000000000000000 PUSH1 0x44 DUP3 ADD MSTORE PUSH1 0x64 SWAP1 REVERT JUMPDEST CALLVALUE PUSH2 0x12C JUMPI PUSH2 0xC40 CALLDATASIZE PUSH2 0x1CDD JUMP JUMPDEST SWAP1 PUSH1 0x0 MSTORE PUSH1 0x1 PUSH1 0x20 MSTORE PUSH1 0x40 PUSH1 0x0 KECCAK256 SWAP1 PUSH1 0x0 MSTORE PUSH1 0x20 MSTORE PUSH1 0x40 PUSH1 0x0 KECCAK256 PUSH1 0x1 DUP2 ADD SLOAD PUSH2 0x58A PUSH1 0x2 DUP4 ADD SLOAD PUSH1 0x3 DUP5 ADD SLOAD PUSH1 0x4 DUP6 ADD SLOAD SWAP1 PUSH2 0xC87 PUSH1 0x5 PUSH2 0xC80 DUP9 PUSH2 0x1BF7 JUMP JUMPDEST SWAP8 ADD PUSH2 0x1BF7 JUMP JUMPDEST SWAP3 PUSH1 0x40 MLOAD SWAP7 DUP8 SWAP7 PUSH1 0xFF DUP1 DUP5 PUSH1 0x8 SHR AND SWAP4 AND SWAP2 DUP9 PUSH2 0x1CF3 JUMP JUMPDEST CALLVALUE PUSH2 0x12C JUMPI PUSH2 0xCAD CALLDATASIZE PUSH2 0x1CDD JUMP JUMPDEST SWAP1 PUSH1 0x0 MSTORE PUSH1 0x3 PUSH1 0x20 MSTORE PUSH1 0x40 PUSH1 0x0 KECCAK256 DUP1 SLOAD DUP3 LT ISZERO PUSH2 0x12C JUMPI PUSH1 0x20 SWAP2 PUSH2 0xCD0 SWAP2 PUSH2 0x1DD7 JUMP JUMPDEST SWAP1 SLOAD PUSH1 0x40 MLOAD PUSH1 0x3 SWAP3 SWAP1 SWAP3 SHL SHR PUSH1 0x1 PUSH1 0x1 PUSH1 0xA0 SHL SUB AND DUP2 MSTORE RETURN JUMPDEST CALLVALUE PUSH2 0x12C JUMPI PUSH1 0x0 CALLDATASIZE PUSH1 0x3 NOT ADD SLT PUSH2 0x12C JUMPI PUSH1 0x20 PUSH1 0x4 SLOAD PUSH1 0x40 MLOAD SWAP1 DUP2 MSTORE RETURN JUMPDEST CALLVALUE PUSH2 0x12C JUMPI PUSH1 0x0 CALLDATASIZE PUSH1 0x3 NOT ADD SLT PUSH2 0x12C JUMPI PUSH1 0x20 SELFBALANCE PUSH1 0x40 MLOAD SWAP1 DUP2 MSTORE RETURN JUMPDEST CALLVALUE PUSH2 0x12C JUMPI PUSH1 0x60 CALLDATASIZE PUSH1 0x3 NOT ADD SLT PUSH2 0x12C JUMPI PUSH1 0x1 PUSH1 0x1 PUSH1 0x40 SHL SUB PUSH1 0x4 CALLDATALOAD PUSH1 0x44 CALLDATALOAD DUP3 DUP2 GT PUSH2 0x12C JUMPI PUSH2 0xD57 SWAP1 CALLDATASIZE SWAP1 PUSH1 0x4 ADD PUSH2 0x1D81 JUMP JUMPDEST SWAP2 PUSH2 0xD65 PUSH1 0x4 SLOAD DUP4 LT PUSH2 0x1E2B JUMP JUMPDEST DUP2 PUSH1 0x0 MSTORE PUSH1 0x20 SWAP2 PUSH1 0x0 DUP4 MSTORE PUSH2 0xD88 PUSH1 0x1 DUP1 PUSH1 0xA0 SHL SUB PUSH1 0x40 PUSH1 0x0 KECCAK256 SLOAD AND CALLER EQ PUSH2 0x1EBC JUMP JUMPDEST PUSH1 0x0 MSTORE PUSH1 0x1 SWAP2 DUP3 DUP2 MSTORE PUSH1 0x40 PUSH1 0x0 KECCAK256 PUSH1 0x24 CALLDATALOAD PUSH1 0x0 MSTORE DUP2 MSTORE PUSH1 0x5 PUSH1 0x40 PUSH1 0x0 KECCAK256 ADD SWAP4 DUP1 MLOAD SWAP3 DUP4 GT PUSH2 0x4A9 JUMPI PUSH2 0xDBA DUP6 SLOAD PUSH2 0x1B9C JUMP JUMPDEST PUSH1 0x1F DUP2 GT PUSH2 0xE63 JUMPI JUMPDEST POP DUP2 PUSH1 0x1F DUP5 GT PUSH1 0x1 EQ PUSH2 0xE00 JUMPI POP SWAP3 DUP3 SWAP4 SWAP2 DUP4 SWAP3 PUSH1 0x0 SWAP5 PUSH2 0xDF5 JUMPI JUMPDEST POP POP SHL SWAP2 PUSH1 0x0 NOT SWAP1 PUSH1 0x3 SHL SHR NOT AND OR SWAP1 SSTORE PUSH1 0x0 DUP1 RETURN JUMPDEST ADD MLOAD SWAP3 POP DUP6 DUP1 PUSH2 0xDDF JUMP JUMPDEST SWAP2 SWAP1 DUP4 PUSH1 0x1F NOT DUP2 AND DUP8 PUSH1 0x0 MSTORE DUP5 PUSH1 0x0 KECCAK256 SWAP5 PUSH1 0x0 SWAP1 JUMPDEST DUP9 DUP4 DUP4 LT PUSH2 0xE49 JUMPI POP POP POP LT PUSH2 0xE30 JUMPI JUMPDEST POP POP POP DUP2 SHL ADD SWAP1 SSTORE STOP JUMPDEST ADD MLOAD PUSH1 0x0 NOT PUSH1 0xF8 DUP5 PUSH1 0x3 SHL AND SHR NOT AND SWAP1 SSTORE DUP4 DUP1 DUP1 PUSH2 0xE26 JUMP JUMPDEST DUP6 DUP8 ADD MLOAD DUP9 SSTORE SWAP1 SWAP7 ADD SWAP6 SWAP5 DUP6 ADD SWAP5 DUP8 SWAP4 POP SWAP1 DUP2 ADD SWAP1 PUSH2 0xE15 JUMP JUMPDEST PUSH2 0xE8D SWAP1 DUP7 PUSH1 0x0 MSTORE DUP4 PUSH1 0x0 KECCAK256 PUSH1 0x1F DUP7 ADD PUSH1 0x5 SHR DUP2 ADD SWAP2 DUP6 DUP8 LT PUSH2 0xBE3 JUMPI PUSH1 0x1F ADD PUSH1 0x5 SHR ADD SWAP1 PUSH2 0x1E14 JUMP JUMPDEST DUP6 PUSH2 0xDC3 JUMP JUMPDEST CALLVALUE PUSH2 0x12C JUMPI PUSH1 0x20 DUP1 PUSH1 0x3 NOT CALLDATASIZE ADD SLT PUSH2 0x12C JUMPI PUSH1 0x4 CALLDATALOAD SWAP1 PUSH2 0xEB6 PUSH1 0x4 SLOAD DUP4 LT PUSH2 0x1E2B JUMP JUMPDEST DUP2 PUSH1 0x0 MSTORE PUSH1 0x0 DUP2 MSTORE PUSH1 0x40 PUSH1 0x0 KECCAK256 PUSH1 0x6 DUP2 ADD SLOAD TIMESTAMP GT ISZERO PUSH2 0x105B JUMPI PUSH1 0x7 DUP2 ADD SWAP1 DUP2 SLOAD PUSH1 0x5 DUP3 ADD SLOAD GT DUP1 ISZERO PUSH2 0x104A JUMPI JUMPDEST ISZERO PUSH2 0x1005 JUMPI PUSH1 0x8 ADD SLOAD PUSH1 0xFF AND PUSH2 0xFC0 JUMPI DUP3 PUSH1 0x0 MSTORE PUSH1 0x2 DUP3 MSTORE PUSH1 0x40 PUSH1 0x0 KECCAK256 CALLER PUSH1 0x0 MSTORE DUP3 MSTORE PUSH1 0x40 PUSH1 0x0 KECCAK256 SLOAD SWAP2 DUP3 ISZERO PUSH2 0xF84 JUMPI DUP4 PUSH1 0x0 MSTORE PUSH1 0x2 DUP2 MSTORE PUSH1 0x40 PUSH1 0x0 KECCAK256 SWAP1 CALLER PUSH1 0x0 MSTORE MSTORE PUSH1 0x0 PUSH1 0x40 DUP2 KECCAK256 SSTORE DUP1 SLOAD SWAP1 DUP3 DUP3 SUB SWAP2 DUP3 GT PUSH2 0x9BF JUMPI SSTORE PUSH1 0x0 DUP1 DUP1 DUP1 DUP5 CALLER DUP3 CALL ISZERO PUSH2 0x6FB JUMPI PUSH1 0x40 DUP1 MLOAD CALLER DUP2 MSTORE PUSH1 0x20 DUP2 ADD SWAP3 SWAP1 SWAP3 MSTORE PUSH32 0x7A482FDEB6BC9A1376F597068A214A7A39472BB2EFF1B8CAD21BA04F49DDCA1B SWAP2 SWAP1 DUP2 SWAP1 DUP2 ADD PUSH2 0x282 JUMP JUMPDEST PUSH1 0x64 SWAP1 PUSH1 0x40 MLOAD SWAP1 PUSH3 0x461BCD PUSH1 0xE5 SHL DUP3 MSTORE PUSH1 0x4 DUP3 ADD MSTORE PUSH1 0x15 PUSH1 0x24 DUP3 ADD MSTORE PUSH21 0x139BC8191BDB985D1A5BDB881D1BC81C99599D5B99 PUSH1 0x5A SHL PUSH1 0x44 DUP3 ADD MSTORE REVERT JUMPDEST PUSH1 0x40 MLOAD PUSH3 0x461BCD PUSH1 0xE5 SHL DUP2 MSTORE PUSH1 0x4 DUP2 ADD DUP4 SWAP1 MSTORE PUSH1 0x17 PUSH1 0x24 DUP3 ADD MSTORE PUSH32 0x416C72656164792066756C6C792077697468647261776E000000000000000000 PUSH1 0x44 DUP3 ADD MSTORE PUSH1 0x64 SWAP1 REVERT JUMPDEST PUSH1 0x40 MLOAD PUSH3 0x461BCD PUSH1 0xE5 SHL DUP2 MSTORE PUSH1 0x4 DUP2 ADD DUP5 SWAP1 MSTORE PUSH1 0x17 PUSH1 0x24 DUP3 ADD MSTORE PUSH32 0x4E6F7420656C696769626C6520666F7220726566756E64000000000000000000 PUSH1 0x44 DUP3 ADD MSTORE PUSH1 0x64 SWAP1 REVERT JUMPDEST POP PUSH1 0xFF PUSH1 0x8 DUP3 ADD SLOAD PUSH1 0x10 SHR AND PUSH2 0xEE3 JUMP JUMPDEST PUSH1 0x40 MLOAD PUSH3 0x461BCD PUSH1 0xE5 SHL DUP2 MSTORE PUSH1 0x4 DUP2 ADD DUP4 SWAP1 MSTORE PUSH1 0x15 PUSH1 0x24 DUP3 ADD MSTORE PUSH21 0x43616D706169676E207374696C6C20616374697665 PUSH1 0x58 SHL PUSH1 0x44 DUP3 ADD MSTORE PUSH1 0x64 SWAP1 REVERT JUMPDEST CALLVALUE PUSH2 0x12C JUMPI PUSH1 0xE0 CALLDATASIZE PUSH1 0x3 NOT ADD SLT PUSH2 0x12C JUMPI PUSH1 0x4 CALLDATALOAD PUSH1 0x1 PUSH1 0x1 PUSH1 0x40 SHL SUB DUP2 GT PUSH2 0x12C JUMPI PUSH2 0x10C8 SWAP1 CALLDATASIZE SWAP1 PUSH1 0x4 ADD PUSH2 0x1D81 JUMP JUMPDEST PUSH1 0x24 CALLDATALOAD PUSH1 0x1 PUSH1 0x1 PUSH1 0x40 SHL SUB DUP2 GT PUSH2 0x12C JUMPI PUSH2 0x10E7 SWAP1 CALLDATASIZE SWAP1 PUSH1 0x4 ADD PUSH2 0x1D81 JUMP JUMPDEST SWAP1 PUSH1 0x44 CALLDATALOAD PUSH1 0x1 PUSH1 0x1 PUSH1 0x40 SHL SUB DUP2 GT PUSH2 0x12C JUMPI PUSH2 0x1107 SWAP1 CALLDATASIZE SWAP1 PUSH1 0x4 ADD PUSH2 0x1D81 JUMP JUMPDEST SWAP1 PUSH1 0xA4 CALLDATALOAD PUSH1 0x1 PUSH1 0x1 PUSH1 0x40 SHL SUB DUP2 GT PUSH2 0x12C JUMPI PUSH2 0x1127 SWAP1 CALLDATASIZE SWAP1 PUSH1 0x4 ADD PUSH2 0x1D81 JUMP JUMPDEST SWAP3 PUSH1 0xC4 CALLDATALOAD SWAP1 PUSH1 0x1 PUSH1 0x1 PUSH1 0x40 SHL SUB DUP3 GT PUSH2 0x12C JUMPI CALLDATASIZE PUSH1 0x23 DUP4 ADD SLT ISZERO PUSH2 0x12C JUMPI DUP2 PUSH1 0x4 ADD CALLDATALOAD SWAP5 PUSH1 0x1 PUSH1 0x1 PUSH1 0x40 SHL SUB DUP7 GT PUSH2 0x4A9 JUMPI DUP6 PUSH1 0x5 SHL SWAP3 PUSH1 0x40 MLOAD SWAP7 PUSH2 0x116F PUSH1 0x20 DUP7 ADD DUP10 PUSH2 0x1BD6 JUMP JUMPDEST DUP8 MSTORE PUSH1 0x20 DUP8 ADD SWAP1 PUSH1 0x24 DUP3 SWAP6 DUP3 ADD ADD SWAP1 CALLDATASIZE DUP3 GT PUSH2 0x12C JUMPI PUSH1 0x24 ADD SWAP2 JUMPDEST DUP2 DUP4 LT PUSH2 0x1765 JUMPI POP POP POP TIMESTAMP PUSH1 0x84 CALLDATALOAD GT ISZERO PUSH2 0x1720 JUMPI PUSH1 0x64 CALLDATALOAD ISZERO PUSH2 0x16E6 JUMPI PUSH1 0x4 SLOAD SWAP5 PUSH2 0x11B3 DUP7 PUSH2 0x1E05 JUMP JUMPDEST PUSH1 0x4 SSTORE DUP6 PUSH1 0x0 MSTORE PUSH1 0x0 PUSH1 0x20 MSTORE PUSH1 0x40 PUSH1 0x0 KECCAK256 SWAP3 CALLER PUSH12 0xFFFFFFFFFFFFFFFFFFFFFFFF PUSH1 0xA0 SHL DUP6 SLOAD AND OR DUP5 SSTORE DUP6 MLOAD PUSH1 0x1 PUSH1 0x1 PUSH1 0x40 SHL SUB DUP2 GT PUSH2 0x4A9 JUMPI PUSH2 0x11F9 PUSH1 0x1 DUP7 ADD SLOAD PUSH2 0x1B9C JUMP JUMPDEST PUSH1 0x1F DUP2 GT PUSH2 0x16B1 JUMPI JUMPDEST POP DUP1 PUSH1 0x20 PUSH1 0x1F DUP3 GT PUSH1 0x1 EQ PUSH2 0x1644 JUMPI PUSH1 0x0 SWAP2 PUSH2 0x1639 JUMPI JUMPDEST POP DUP2 PUSH1 0x1 SHL SWAP2 PUSH1 0x0 NOT SWAP1 PUSH1 0x3 SHL SHR NOT AND OR PUSH1 0x1 DUP6 ADD SSTORE JUMPDEST DUP1 MLOAD SWAP1 PUSH1 0x1 PUSH1 0x1 PUSH1 0x40 SHL SUB DUP3 GT PUSH2 0x4A9 JUMPI DUP2 SWAP1 PUSH2 0x1250 PUSH1 0x2 DUP8 ADD SLOAD PUSH2 0x1B9C JUMP JUMPDEST PUSH1 0x1F DUP2 GT PUSH2 0x1604 JUMPI JUMPDEST POP PUSH1 0x20 SWAP1 PUSH1 0x1F DUP4 GT PUSH1 0x1 EQ PUSH2 0x1592 JUMPI PUSH1 0x0 SWAP3 PUSH2 0x1587 JUMPI JUMPDEST POP POP DUP2 PUSH1 0x1 SHL SWAP2 PUSH1 0x0 NOT SWAP1 PUSH1 0x3 SHL SHR NOT AND OR PUSH1 0x2 DUP5 ADD SSTORE JUMPDEST DUP1 MLOAD SWAP1 PUSH1 0x1 PUSH1 0x1 PUSH1 0x40 SHL SUB DUP3 GT PUSH2 0x4A9 JUMPI DUP2 SWAP1 PUSH2 0x12A8 PUSH1 0x3 DUP7 ADD SLOAD PUSH2 0x1B9C JUMP JUMPDEST PUSH1 0x1F DUP2 GT PUSH2 0x1552 JUMPI JUMPDEST POP PUSH1 0x20 SWAP1 PUSH1 0x1F DUP4 GT PUSH1 0x1 EQ PUSH2 0x14E0 JUMPI PUSH1 0x0 SWAP3 PUSH2 0x14D5 JUMPI JUMPDEST POP POP DUP2 PUSH1 0x1 SHL SWAP2 PUSH1 0x0 NOT SWAP1 PUSH1 0x3 SHL SHR NOT AND OR PUSH1 0x3 DUP4 ADD SSTORE JUMPDEST DUP1 MLOAD SWAP1 PUSH1 0x1 PUSH1 0x1 PUSH1 0x40 SHL SUB DUP3 GT PUSH2 0x4A9 JUMPI PUSH2 0x12FE PUSH1 0x4 DUP5 ADD SLOAD PUSH2 0x1B9C JUMP JUMPDEST PUSH1 0x1F DUP2 GT PUSH2 0x14A0 JUMPI JUMPDEST POP PUSH1 0x20 SWAP1 PUSH1 0x1F DUP4 GT PUSH1 0x1 EQ PUSH2 0x142D JUMPI PUSH1 0xB SWAP4 SWAP3 SWAP2 PUSH1 0x0 SWAP2 DUP4 PUSH2 0x1422 JUMPI JUMPDEST POP POP DUP2 PUSH1 0x1 SHL SWAP2 PUSH1 0x0 NOT SWAP1 PUSH1 0x3 SHL SHR NOT AND OR PUSH1 0x4 DUP3 ADD SSTORE JUMPDEST PUSH1 0x64 CALLDATALOAD PUSH1 0x5 DUP3 ADD SSTORE PUSH1 0x84 CALLDATALOAD PUSH1 0x6 DUP3 ADD SSTORE ADD SWAP4 MLOAD SWAP1 PUSH1 0x1 PUSH1 0x1 PUSH1 0x40 SHL SUB DUP3 GT PUSH2 0x4A9 JUMPI PUSH1 0x1 PUSH1 0x40 SHL DUP3 GT PUSH2 0x4A9 JUMPI DUP5 SLOAD DUP3 DUP7 SSTORE DUP1 DUP4 LT PUSH2 0x1404 JUMPI JUMPDEST POP SWAP4 PUSH1 0x0 MSTORE PUSH1 0x20 PUSH1 0x0 KECCAK256 PUSH1 0x0 JUMPDEST DUP3 DUP2 LT PUSH2 0x13E7 JUMPI PUSH1 0x20 DUP6 DUP1 PUSH32 0xDC26653AF5B99B2DA33E2AD69EE6600D9AECCC82B034501DB4338309615CA238 PUSH2 0x13CC DUP9 PUSH1 0x40 MLOAD SWAP2 DUP3 SWAP2 CALLER DUP4 MSTORE PUSH1 0x80 DUP9 DUP5 ADD MSTORE PUSH1 0x80 DUP4 ADD SWAP1 PUSH2 0x1C9D JUMP JUMPDEST PUSH1 0x64 CALLDATALOAD PUSH1 0x40 DUP4 ADD MSTORE PUSH1 0x84 CALLDATALOAD PUSH1 0x60 DUP4 ADD MSTORE SUB SWAP1 LOG2 PUSH1 0x40 MLOAD SWAP1 DUP2 MSTORE RETURN JUMPDEST DUP6 MLOAD PUSH1 0x1 PUSH1 0x1 PUSH1 0xA0 SHL SUB AND DUP2 DUP4 ADD SSTORE PUSH1 0x20 SWAP1 SWAP6 ADD SWAP5 PUSH1 0x1 ADD PUSH2 0x1383 JUMP JUMPDEST PUSH2 0x141C SWAP1 DUP7 PUSH1 0x0 MSTORE DUP4 PUSH1 0x20 PUSH1 0x0 KECCAK256 SWAP2 DUP3 ADD SWAP2 ADD PUSH2 0x1E14 JUMP JUMPDEST DUP6 PUSH2 0x1376 JUMP JUMPDEST ADD MLOAD SWAP1 POP DUP9 DUP1 PUSH2 0x1324 JUMP JUMPDEST SWAP1 PUSH1 0x4 DUP5 ADD PUSH1 0x0 MSTORE PUSH1 0x20 PUSH1 0x0 KECCAK256 SWAP2 PUSH1 0x0 JUMPDEST PUSH1 0x1F NOT DUP6 AND DUP2 LT PUSH2 0x1488 JUMPI POP SWAP2 DUP4 SWAP2 PUSH1 0x1 SWAP4 PUSH1 0xB SWAP7 SWAP6 PUSH1 0x1F NOT DUP2 AND LT PUSH2 0x146F JUMPI JUMPDEST POP POP POP DUP2 SHL ADD PUSH1 0x4 DUP3 ADD SSTORE PUSH2 0x133C JUMP JUMPDEST ADD MLOAD PUSH1 0x0 NOT PUSH1 0xF8 DUP5 PUSH1 0x3 SHL AND SHR NOT AND SWAP1 SSTORE DUP9 DUP1 DUP1 PUSH2 0x145F JUMP JUMPDEST SWAP2 SWAP3 PUSH1 0x20 PUSH1 0x1 DUP2 SWAP3 DUP7 DUP6 ADD MLOAD DUP2 SSTORE ADD SWAP5 ADD SWAP3 ADD PUSH2 0x143E JUMP JUMPDEST PUSH2 0x14CF SWAP1 PUSH1 0x4 DUP6 ADD PUSH1 0x0 MSTORE PUSH1 0x20 PUSH1 0x0 KECCAK256 PUSH1 0x1F DUP6 ADD PUSH1 0x5 SHR DUP2 ADD SWAP2 PUSH1 0x20 DUP7 LT PUSH2 0xBE3 JUMPI PUSH1 0x1F ADD PUSH1 0x5 SHR ADD SWAP1 PUSH2 0x1E14 JUMP JUMPDEST DUP8 PUSH2 0x1307 JUMP JUMPDEST ADD MLOAD SWAP1 POP DUP9 DUP1 PUSH2 0x12C8 JUMP JUMPDEST SWAP3 POP PUSH1 0x3 DUP6 ADD PUSH1 0x0 MSTORE PUSH1 0x20 PUSH1 0x0 KECCAK256 SWAP1 PUSH1 0x0 SWAP4 JUMPDEST PUSH1 0x1F NOT DUP5 AND DUP6 LT PUSH2 0x1537 JUMPI PUSH1 0x1 SWAP5 POP DUP4 PUSH1 0x1F NOT DUP2 AND LT PUSH2 0x151E JUMPI JUMPDEST POP POP POP DUP2 SHL ADD PUSH1 0x3 DUP4 ADD SSTORE PUSH2 0x12E0 JUMP JUMPDEST ADD MLOAD PUSH1 0x0 NOT PUSH1 0xF8 DUP5 PUSH1 0x3 SHL AND SHR NOT AND SWAP1 SSTORE DUP9 DUP1 DUP1 PUSH2 0x150E JUMP JUMPDEST DUP2 DUP2 ADD MLOAD DUP4 SSTORE PUSH1 0x20 SWAP5 DUP6 ADD SWAP5 PUSH1 0x1 SWAP1 SWAP4 ADD SWAP3 SWAP1 SWAP2 ADD SWAP1 PUSH2 0x14F3 JUMP JUMPDEST PUSH2 0x1581 SWAP1 PUSH1 0x3 DUP8 ADD PUSH1 0x0 MSTORE PUSH1 0x20 PUSH1 0x0 KECCAK256 PUSH1 0x1F DUP6 ADD PUSH1 0x5 SHR DUP2 ADD SWAP2 PUSH1 0x20 DUP7 LT PUSH2 0xBE3 JUMPI PUSH1 0x1F ADD PUSH1 0x5 SHR ADD SWAP1 PUSH2 0x1E14 JUMP JUMPDEST DUP10 PUSH2 0x12B1 JUMP JUMPDEST ADD MLOAD SWAP1 POP DUP10 DUP1 PUSH2 0x1270 JUMP JUMPDEST SWAP3 POP PUSH1 0x2 DUP7 ADD PUSH1 0x0 MSTORE PUSH1 0x20 PUSH1 0x0 KECCAK256 SWAP1 PUSH1 0x0 SWAP4 JUMPDEST PUSH1 0x1F NOT DUP5 AND DUP6 LT PUSH2 0x15E9 JUMPI PUSH1 0x1 SWAP5 POP DUP4 PUSH1 0x1F NOT DUP2 AND LT PUSH2 0x15D0 JUMPI JUMPDEST POP POP POP DUP2 SHL ADD PUSH1 0x2 DUP5 ADD SSTORE PUSH2 0x1288 JUMP JUMPDEST ADD MLOAD PUSH1 0x0 NOT PUSH1 0xF8 DUP5 PUSH1 0x3 SHL AND SHR NOT AND SWAP1 SSTORE DUP10 DUP1 DUP1 PUSH2 0x15C0 JUMP JUMPDEST DUP2 DUP2 ADD MLOAD DUP4 SSTORE PUSH1 0x20 SWAP5 DUP6 ADD SWAP5 PUSH1 0x1 SWAP1 SWAP4 ADD SWAP3 SWAP1 SWAP2 ADD SWAP1 PUSH2 0x15A5 JUMP JUMPDEST PUSH2 0x1633 SWAP1 PUSH1 0x2 DUP9 ADD PUSH1 0x0 MSTORE PUSH1 0x20 PUSH1 0x0 KECCAK256 PUSH1 0x1F DUP6 ADD PUSH1 0x5 SHR DUP2 ADD SWAP2 PUSH1 0x20 DUP7 LT PUSH2 0xBE3 JUMPI PUSH1 0x1F ADD PUSH1 0x5 SHR ADD SWAP1 PUSH2 0x1E14 JUMP JUMPDEST DUP11 PUSH2 0x1259 JUMP JUMPDEST SWAP1 POP DUP8 ADD MLOAD DUP11 PUSH2 0x1219 JUMP JUMPDEST SWAP2 POP PUSH1 0x1 DUP7 ADD PUSH1 0x0 MSTORE PUSH1 0x20 PUSH1 0x0 KECCAK256 PUSH1 0x0 SWAP3 JUMPDEST PUSH1 0x1F NOT DUP4 AND DUP5 LT PUSH2 0x1699 JUMPI PUSH1 0x1 SWAP4 POP DUP3 PUSH1 0x1F NOT DUP2 AND LT PUSH2 0x1680 JUMPI JUMPDEST POP POP DUP2 SHL ADD PUSH1 0x1 DUP6 ADD SSTORE PUSH2 0x1230 JUMP JUMPDEST DUP10 ADD MLOAD PUSH1 0x0 NOT PUSH1 0xF8 DUP5 PUSH1 0x3 SHL AND SHR NOT AND SWAP1 SSTORE DUP11 DUP1 PUSH2 0x1671 JUMP JUMPDEST DUP10 DUP2 ADD MLOAD DUP3 SSTORE PUSH1 0x20 SWAP4 DUP5 ADD SWAP4 PUSH1 0x1 SWAP1 SWAP3 ADD SWAP2 ADD PUSH2 0x1656 JUMP JUMPDEST PUSH2 0x16E0 SWAP1 PUSH1 0x1 DUP8 ADD PUSH1 0x0 MSTORE PUSH1 0x20 PUSH1 0x0 KECCAK256 PUSH1 0x1F DUP5 ADD PUSH1 0x5 SHR DUP2 ADD SWAP2 PUSH1 0x20 DUP6 LT PUSH2 0xBE3 JUMPI PUSH1 0x1F ADD PUSH1 0x5 SHR ADD SWAP1 PUSH2 0x1E14 JUMP JUMPDEST DUP10 PUSH2 0x1202 JUMP JUMPDEST PUSH1 0x40 MLOAD PUSH3 0x461BCD PUSH1 0xE5 SHL DUP2 MSTORE PUSH1 0x20 PUSH1 0x4 DUP3 ADD MSTORE PUSH1 0x12 PUSH1 0x24 DUP3 ADD MSTORE PUSH18 0x546172676574206D757374206265203E203 PUSH1 0x74 SHL PUSH1 0x44 DUP3 ADD MSTORE PUSH1 0x64 SWAP1 REVERT JUMPDEST PUSH1 0x40 MLOAD PUSH3 0x461BCD PUSH1 0xE5 SHL DUP2 MSTORE PUSH1 0x20 PUSH1 0x4 DUP3 ADD MSTORE PUSH1 0x1A PUSH1 0x24 DUP3 ADD MSTORE PUSH32 0x446561646C696E65206D75737420626520696E20667574757265000000000000 PUSH1 0x44 DUP3 ADD MSTORE PUSH1 0x64 SWAP1 REVERT JUMPDEST DUP3 CALLDATALOAD PUSH1 0x1 PUSH1 0x1 PUSH1 0xA0 SHL SUB DUP2 AND DUP2 SUB PUSH2 0x12C JUMPI DUP2 MSTORE PUSH1 0x20 SWAP3 DUP4 ADD SWAP3 ADD PUSH2 0x118A JUMP JUMPDEST CALLVALUE PUSH2 0x12C JUMPI PUSH1 0x20 CALLDATASIZE PUSH1 0x3 NOT ADD SLT PUSH2 0x12C JUMPI PUSH1 0x4 CALLDATALOAD PUSH2 0x17AE PUSH1 0x1 DUP1 PUSH1 0xA0 SHL SUB PUSH1 0x5 SLOAD AND CALLER EQ PUSH2 0x1E84 JUMP JUMPDEST PUSH2 0x17BB PUSH1 0x4 SLOAD DUP3 LT PUSH2 0x1E2B JUMP JUMPDEST DUP1 PUSH1 0x0 MSTORE PUSH1 0x0 PUSH1 0x20 MSTORE PUSH1 0x8 PUSH1 0x40 PUSH1 0x0 KECCAK256 ADD PUSH3 0x10000 PUSH3 0xFF0000 NOT DUP3 SLOAD AND OR SWAP1 SSTORE PUSH32 0x1FD9D9D9F159BBB346CBE96D08DF5B61108B672FA79A2D53FB9C67B9717D273 PUSH1 0x0 DUP1 LOG2 STOP JUMPDEST CALLVALUE PUSH2 0x12C JUMPI PUSH1 0x20 DUP1 PUSH1 0x3 NOT CALLDATASIZE ADD SLT PUSH2 0x12C JUMPI PUSH1 0x4 CALLDATALOAD PUSH1 0x0 MSTORE PUSH1 0x3 DUP2 MSTORE PUSH1 0x40 PUSH1 0x0 KECCAK256 SWAP1 PUSH1 0x40 MLOAD SWAP1 DUP2 DUP2 DUP5 SLOAD SWAP2 DUP3 DUP2 MSTORE ADD SWAP4 PUSH1 0x0 MSTORE DUP2 PUSH1 0x0 KECCAK256 SWAP2 PUSH1 0x0 SWAP1 JUMPDEST DUP3 DUP3 LT PUSH2 0x1855 JUMPI PUSH2 0x58A DUP6 PUSH2 0x57E DUP2 DUP10 SUB DUP3 PUSH2 0x1BD6 JUMP JUMPDEST DUP4 SLOAD PUSH1 0x1 PUSH1 0x1 PUSH1 0xA0 SHL SUB AND DUP7 MSTORE SWAP5 DUP6 ADD SWAP5 PUSH1 0x1 SWAP4 DUP5 ADD SWAP4 SWAP1 SWAP2 ADD SWAP1 PUSH2 0x183E JUMP JUMPDEST CALLVALUE PUSH2 0x12C JUMPI PUSH2 0x1883 CALLDATASIZE PUSH2 0x1CDD JUMP JUMPDEST PUSH2 0x1890 PUSH1 0x4 SLOAD DUP4 LT PUSH2 0x1E2B JUMP JUMPDEST DUP2 PUSH1 0x0 MSTORE PUSH1 0x20 PUSH1 0x2 DUP2 MSTORE PUSH1 0x40 PUSH1 0x0 KECCAK256 CALLER PUSH1 0x0 MSTORE DUP2 MSTORE PUSH1 0x40 PUSH1 0x0 KECCAK256 SLOAD ISZERO PUSH2 0x19DA JUMPI DUP3 PUSH1 0x0 MSTORE PUSH1 0x1 DUP2 MSTORE PUSH1 0x40 PUSH1 0x0 KECCAK256 DUP3 PUSH1 0x0 MSTORE DUP2 MSTORE PUSH1 0x40 PUSH1 0x0 KECCAK256 PUSH1 0x6 DUP2 ADD SWAP4 CALLER PUSH1 0x0 MSTORE DUP5 DUP4 MSTORE PUSH1 0xFF PUSH1 0x40 PUSH1 0x0 KECCAK256 SLOAD AND PUSH2 0x19A5 JUMPI PUSH1 0x2 DUP3 ADD SWAP5 PUSH1 0xFF DUP7 SLOAD AND PUSH2 0x1960 JUMPI SWAP1 PUSH1 0x4 SWAP3 SWAP2 CALLER PUSH1 0x0 MSTORE DUP5 MSTORE PUSH32 0x9FFBB52F2A1362273CD74689A516CA4F52C4282DC13E2E68B7E0646A9A7AF7A3 PUSH1 0x40 DUP1 PUSH1 0x0 KECCAK256 SWAP7 PUSH1 0xFF NOT SWAP8 PUSH1 0x1 DUP10 DUP3 SLOAD AND OR SWAP1 SSTORE PUSH1 0x3 DUP6 ADD SWAP7 PUSH2 0x193E DUP9 SLOAD PUSH2 0x1E05 JUMP JUMPDEST DUP1 SWAP9 SSTORE DUP3 MLOAD SWAP2 DUP3 MSTORE CALLER SWAP1 DUP3 ADD MSTORE LOG2 ADD SLOAD GT ISZERO PUSH2 0x1956 JUMPI STOP JUMPDEST DUP2 SLOAD AND PUSH1 0x1 OR SWAP1 SSTORE STOP JUMPDEST PUSH1 0x40 MLOAD PUSH3 0x461BCD PUSH1 0xE5 SHL DUP2 MSTORE PUSH1 0x4 DUP2 ADD DUP6 SWAP1 MSTORE PUSH1 0x1A PUSH1 0x24 DUP3 ADD MSTORE PUSH32 0x4D696C6573746F6E6520616C726561647920617070726F766564000000000000 PUSH1 0x44 DUP3 ADD MSTORE PUSH1 0x64 SWAP1 REVERT JUMPDEST PUSH1 0x40 MLOAD PUSH3 0x461BCD PUSH1 0xE5 SHL DUP2 MSTORE PUSH1 0x4 DUP2 ADD DUP5 SWAP1 MSTORE PUSH1 0xD PUSH1 0x24 DUP3 ADD MSTORE PUSH13 0x105B1C9958591E481D9BDD1959 PUSH1 0x9A SHL PUSH1 0x44 DUP3 ADD MSTORE PUSH1 0x64 SWAP1 REVERT JUMPDEST PUSH1 0x64 SWAP1 PUSH1 0x40 MLOAD SWAP1 PUSH3 0x461BCD PUSH1 0xE5 SHL DUP3 MSTORE PUSH1 0x4 DUP3 ADD MSTORE PUSH1 0x17 PUSH1 0x24 DUP3 ADD MSTORE PUSH32 0x4D757374206265206120646F6E6F7220746F20766F7465000000000000000000 PUSH1 0x44 DUP3 ADD MSTORE REVERT JUMPDEST CALLVALUE PUSH2 0x12C JUMPI PUSH2 0x1A2C CALLDATASIZE PUSH2 0x1CDD JUMP JUMPDEST SWAP1 PUSH1 0x0 MSTORE PUSH1 0x1 PUSH1 0x20 MSTORE PUSH1 0x40 PUSH1 0x0 KECCAK256 SWAP1 PUSH1 0x0 MSTORE PUSH1 0x20 MSTORE PUSH1 0x40 PUSH1 0x0 KECCAK256 PUSH2 0x1A4F DUP2 PUSH2 0x1BF7 JUMP JUMPDEST SWAP1 PUSH2 0x58A PUSH1 0x1 DUP3 ADD SLOAD SWAP2 PUSH1 0x2 DUP2 ADD SLOAD SWAP1 PUSH1 0x3 DUP2 ADD SLOAD PUSH2 0xC87 PUSH1 0x5 PUSH1 0x4 DUP5 ADD SLOAD SWAP4 ADD PUSH2 0x1BF7 JUMP JUMPDEST CALLVALUE PUSH2 0x12C JUMPI PUSH1 0x20 CALLDATASIZE PUSH1 0x3 NOT ADD SLT PUSH2 0x12C JUMPI PUSH1 0x4 CALLDATALOAD PUSH1 0x0 SWAP1 DUP2 MSTORE PUSH1 0x20 DUP2 SWAP1 MSTORE PUSH1 0x40 SWAP1 KECCAK256 DUP1 SLOAD PUSH1 0x1 PUSH1 0x1 PUSH1 0xA0 SHL SUB AND PUSH2 0x1AAE PUSH1 0x1 DUP4 ADD PUSH2 0x1BF7 JUMP JUMPDEST SWAP2 PUSH2 0x1ABB PUSH1 0x2 DUP3 ADD PUSH2 0x1BF7 JUMP JUMPDEST PUSH2 0x1AC7 PUSH1 0x3 DUP4 ADD PUSH2 0x1BF7 JUMP JUMPDEST SWAP2 PUSH2 0x1AD4 PUSH1 0x4 DUP3 ADD PUSH2 0x1BF7 JUMP JUMPDEST SWAP3 PUSH1 0x5 DUP3 ADD SLOAD SWAP4 PUSH1 0x6 DUP4 ADD SLOAD PUSH1 0x7 DUP5 ADD SLOAD SWAP1 PUSH1 0x8 DUP6 ADD SLOAD SWAP3 PUSH1 0x9 DUP7 ADD SLOAD SWAP5 PUSH1 0xA DUP8 ADD SLOAD SWAP7 PUSH1 0xD ADD SLOAD SWAP8 PUSH1 0x40 MLOAD SWAP12 DUP13 SWAP12 DUP13 MSTORE DUP12 PUSH2 0x1C0 PUSH1 0x20 DUP2 SWAP3 ADD MSTORE DUP13 ADD PUSH2 0x1B1A SWAP2 PUSH2 0x1C9D JUMP JUMPDEST DUP12 DUP2 SUB PUSH1 0x40 DUP14 ADD MSTORE PUSH2 0x1B2B SWAP2 PUSH2 0x1C9D JUMP JUMPDEST DUP11 DUP2 SUB PUSH1 0x60 DUP13 ADD MSTORE PUSH2 0x1B3C SWAP2 PUSH2 0x1C9D JUMP JUMPDEST DUP10 DUP2 SUB PUSH1 0x80 DUP12 ADD MSTORE PUSH2 0x1B4D SWAP2 PUSH2 0x1C9D JUMP JUMPDEST SWAP7 PUSH1 0xA0 DUP10 ADD MSTORE PUSH1 0xC0 DUP9 ADD MSTORE PUSH1 0xE0 DUP8 ADD MSTORE PUSH1 0xFF DUP2 AND ISZERO ISZERO PUSH2 0x100 DUP8 ADD MSTORE DUP1 PUSH1 0x8 SHR PUSH1 0xFF AND ISZERO ISZERO PUSH2 0x120 DUP8 ADD MSTORE PUSH1 0x10 SHR PUSH1 0xFF AND ISZERO ISZERO PUSH2 0x140 DUP7 ADD MSTORE PUSH2 0x160 DUP6 ADD MSTORE PUSH2 0x180 DUP5 ADD MSTORE PUSH2 0x1A0 DUP4 ADD MSTORE SUB SWAP1 RETURN JUMPDEST SWAP1 PUSH1 0x1 DUP3 DUP2 SHR SWAP3 AND DUP1 ISZERO PUSH2 0x1BCC JUMPI JUMPDEST PUSH1 0x20 DUP4 LT EQ PUSH2 0x1BB6 JUMPI JUMP JUMPDEST PUSH4 0x4E487B71 PUSH1 0xE0 SHL PUSH1 0x0 MSTORE PUSH1 0x22 PUSH1 0x4 MSTORE PUSH1 0x24 PUSH1 0x0 REVERT JUMPDEST SWAP2 PUSH1 0x7F AND SWAP2 PUSH2 0x1BAB JUMP JUMPDEST SWAP1 PUSH1 0x1F DUP1 NOT SWAP2 ADD AND DUP2 ADD SWAP1 DUP2 LT PUSH1 0x1 PUSH1 0x1 PUSH1 0x40 SHL SUB DUP3 GT OR PUSH2 0x4A9 JUMPI PUSH1 0x40 MSTORE JUMP JUMPDEST SWAP1 PUSH1 0x40 MLOAD SWAP2 DUP3 PUSH1 0x0 DUP3 SLOAD SWAP3 PUSH2 0x1C0B DUP5 PUSH2 0x1B9C JUMP JUMPDEST SWAP1 DUP2 DUP5 MSTORE PUSH1 0x1 SWAP5 DUP6 DUP2 AND SWAP1 DUP2 PUSH1 0x0 EQ PUSH2 0x1C7A JUMPI POP PUSH1 0x1 EQ PUSH2 0x1C37 JUMPI JUMPDEST POP POP PUSH2 0x1C35 SWAP3 POP SUB DUP4 PUSH2 0x1BD6 JUMP JUMPDEST JUMP JUMPDEST SWAP1 SWAP4 SWAP2 POP PUSH1 0x0 MSTORE PUSH1 0x20 SWAP1 DUP2 PUSH1 0x0 KECCAK256 SWAP4 PUSH1 0x0 SWAP2 JUMPDEST DUP2 DUP4 LT PUSH2 0x1C62 JUMPI POP POP PUSH2 0x1C35 SWAP4 POP DUP3 ADD ADD CODESIZE DUP1 PUSH2 0x1C27 JUMP JUMPDEST DUP6 SLOAD DUP9 DUP5 ADD DUP6 ADD MSTORE SWAP5 DUP6 ADD SWAP5 DUP8 SWAP5 POP SWAP2 DUP4 ADD SWAP2 PUSH2 0x1C4A JUMP JUMPDEST SWAP2 POP POP PUSH2 0x1C35 SWAP5 POP PUSH1 0x20 SWAP3 POP PUSH1 0xFF NOT AND DUP3 DUP5 ADD MSTORE ISZERO ISZERO PUSH1 0x5 SHL DUP3 ADD ADD CODESIZE DUP1 PUSH2 0x1C27 JUMP JUMPDEST SWAP2 SWAP1 DUP3 MLOAD SWAP3 DUP4 DUP3 MSTORE PUSH1 0x0 JUMPDEST DUP5 DUP2 LT PUSH2 0x1CC9 JUMPI POP POP DUP3 PUSH1 0x0 PUSH1 0x20 DUP1 SWAP5 SWAP6 DUP5 ADD ADD MSTORE PUSH1 0x1F DUP1 NOT SWAP2 ADD AND ADD ADD SWAP1 JUMP JUMPDEST PUSH1 0x20 DUP2 DUP4 ADD DUP2 ADD MLOAD DUP5 DUP4 ADD DUP3 ADD MSTORE ADD PUSH2 0x1CA8 JUMP JUMPDEST PUSH1 0x40 SWAP1 PUSH1 0x3 NOT ADD SLT PUSH2 0x12C JUMPI PUSH1 0x4 CALLDATALOAD SWAP1 PUSH1 0x24 CALLDATALOAD SWAP1 JUMP JUMPDEST SWAP4 SWAP1 SWAP3 PUSH2 0x1D0F PUSH2 0x1D3A SWAP9 SWAP7 SWAP4 SWAP8 SWAP5 PUSH1 0xE0 DUP8 MSTORE PUSH1 0xE0 DUP8 ADD SWAP1 PUSH2 0x1C9D JUMP JUMPDEST SWAP7 PUSH1 0x20 DUP7 ADD MSTORE ISZERO ISZERO PUSH1 0x40 DUP6 ADD MSTORE ISZERO ISZERO PUSH1 0x60 DUP5 ADD MSTORE PUSH1 0x80 DUP4 ADD MSTORE PUSH1 0xA0 DUP3 ADD MSTORE PUSH1 0xC0 DUP2 DUP5 SUB SWAP2 ADD MSTORE PUSH2 0x1C9D JUMP JUMPDEST SWAP1 JUMP JUMPDEST PUSH1 0x20 SWAP1 DUP2 PUSH1 0x40 DUP2 DUP4 ADD SWAP3 DUP3 DUP2 MSTORE DUP6 MLOAD DUP1 SWAP5 MSTORE ADD SWAP4 ADD SWAP2 PUSH1 0x0 JUMPDEST DUP3 DUP2 LT PUSH2 0x1D64 JUMPI POP POP POP POP SWAP1 JUMP JUMPDEST DUP4 MLOAD PUSH1 0x1 PUSH1 0x1 PUSH1 0xA0 SHL SUB AND DUP6 MSTORE SWAP4 DUP2 ADD SWAP4 SWAP3 DUP2 ADD SWAP3 PUSH1 0x1 ADD PUSH2 0x1D56 JUMP JUMPDEST DUP2 PUSH1 0x1F DUP3 ADD SLT ISZERO PUSH2 0x12C JUMPI DUP1 CALLDATALOAD SWAP1 PUSH1 0x1 PUSH1 0x1 PUSH1 0x40 SHL SUB DUP3 GT PUSH2 0x4A9 JUMPI PUSH1 0x40 MLOAD SWAP3 PUSH2 0x1DB5 PUSH1 0x1F DUP5 ADD PUSH1 0x1F NOT AND PUSH1 0x20 ADD DUP6 PUSH2 0x1BD6 JUMP JUMPDEST DUP3 DUP5 MSTORE PUSH1 0x20 DUP4 DUP4 ADD ADD GT PUSH2 0x12C JUMPI DUP2 PUSH1 0x0 SWAP3 PUSH1 0x20 DUP1 SWAP4 ADD DUP4 DUP7 ADD CALLDATACOPY DUP4 ADD ADD MSTORE SWAP1 JUMP JUMPDEST DUP1 SLOAD DUP3 LT ISZERO PUSH2 0x1DEF JUMPI PUSH1 0x0 MSTORE PUSH1 0x20 PUSH1 0x0 KECCAK256 ADD SWAP1 PUSH1 0x0 SWAP1 JUMP JUMPDEST PUSH4 0x4E487B71 PUSH1 0xE0 SHL PUSH1 0x0 MSTORE PUSH1 0x32 PUSH1 0x4 MSTORE PUSH1 0x24 PUSH1 0x0 REVERT JUMPDEST PUSH1 0x0 NOT DUP2 EQ PUSH2 0x9BF JUMPI PUSH1 0x1 ADD SWAP1 JUMP JUMPDEST DUP2 DUP2 LT PUSH2 0x1E1F JUMPI POP POP JUMP JUMPDEST PUSH1 0x0 DUP2 SSTORE PUSH1 0x1 ADD PUSH2 0x1E14 JUMP JUMPDEST ISZERO PUSH2 0x1E32 JUMPI JUMP JUMPDEST PUSH1 0x40 MLOAD PUSH3 0x461BCD PUSH1 0xE5 SHL DUP2 MSTORE PUSH1 0x20 PUSH1 0x4 DUP3 ADD MSTORE PUSH1 0x17 PUSH1 0x24 DUP3 ADD MSTORE PUSH32 0x43616D706169676E20646F6573206E6F74206578697374000000000000000000 PUSH1 0x44 DUP3 ADD MSTORE PUSH1 0x64 SWAP1 REVERT JUMPDEST SWAP2 SWAP1 DUP3 ADD DUP1 SWAP3 GT PUSH2 0x9BF JUMPI JUMP JUMPDEST ISZERO PUSH2 0x1E8B JUMPI JUMP JUMPDEST PUSH1 0x40 MLOAD PUSH3 0x461BCD PUSH1 0xE5 SHL DUP2 MSTORE PUSH1 0x20 PUSH1 0x4 DUP3 ADD MSTORE PUSH1 0x9 PUSH1 0x24 DUP3 ADD MSTORE PUSH9 0x2737BA1030B236B4B7 PUSH1 0xB9 SHL PUSH1 0x44 DUP3 ADD MSTORE PUSH1 0x64 SWAP1 REVERT JUMPDEST ISZERO PUSH2 0x1EC3 JUMPI JUMP JUMPDEST PUSH1 0x40 MLOAD PUSH3 0x461BCD PUSH1 0xE5 SHL DUP2 MSTORE PUSH1 0x20 PUSH1 0x4 DUP3 ADD MSTORE PUSH1 0x12 PUSH1 0x24 DUP3 ADD MSTORE PUSH18 0x2737BA1031B0B6B830B4B3B71037BBB732B9 PUSH1 0x71 SHL PUSH1 0x44 DUP3 ADD MSTORE PUSH1 0x64 SWAP1 REVERT INVALID LOG2 PUSH5 0x6970667358 0x22 SLT KECCAK256 CALLCODE 0xFC SIGNEXTEND MOD ADD PUSH30 0xF03554A7BC6CDA5B1E7B7E930EF0641CE54E44D59E8C5A763C9A64736F6C PUSH4 0x43000813 STOP CALLER "},"methodIdentifiers":{"addMilestone(uint256,string,uint256,uint256)":"93d17e25","admin()":"f851a440","approveMilestone(uint256,uint256)":"20913da5","campaignCount()":"7274e30d","campaigns(uint256)":"141961bc","claimRefund(uint256)":"5b7baf64","confirmWithdrawal(uint256)":"f3b38690","createCampaign(string,string,string,uint256,uint256,string,address[])":"571b0cef","donate(uint256)":"f14faf6f","donations(uint256,address)":"ee1554a3","donors(uint256,uint256)":"83bd62dd","enableRefunds(uint256)":"52b23809","executeMultiSigWithdrawal(uint256)":"ba129472","getContractBalance()":"6f9fb98a","getDonors(uint256)":"29516511","getMilestone(uint256,uint256)":"8ed9895c","getMultiSigners(uint256)":"f00bffa6","milestones(uint256,uint256)":"1c376c63","uploadMilestoneProof(uint256,uint256,string)":"6728da9d","verifyCampaign(uint256)":"f52cb29b","withdrawFunds(uint256,uint256)":"e5253105"}}}}}