{"contracts/FundChain.sol":{"FundChain":{"abi":[{"inputs":[],"stateMutability":"nonpayable","type":"constructor"},{"anonymous":false,"inputs":[{"indexed":true,"internalType":"uint256","name":"id","type":"uint256"},{"indexed":false,"internalType":"address","name":"owner","type":"address"},{"indexed":false,"internalType":"string","name":"title","type":"string"},{"indexed":false,"internalType":"uint256","name":"target","type":"uint256"},{"indexed":false,"internalType":"uint256","name":"deadline","type":"uint256"}],"name":"CampaignCreated","type":"event"},{"anonymous":false,"inputs":[{"indexed":true,"internalType":"uint256","name":"campaignId","type":"uint256"},{"indexed":false,"internalType":"address","name":"admin","type":"address"}],"name":"CampaignVerified","type":"event"},{"anonymous":false,"inputs":[{"indexed":true,"internalType":"uint256","name":"campaignId","type":"uint256"},{"indexed":false,"internalType":"address","name":"donor","type":"address"},{"indexed":false,"internalType":"uint256","name":"amount","type":"uint256"},{"indexed":false,"internalType":"uint256","name":"totalCollected","type":"uint256"}],"name":"DonationReceived","type":"event"},{"anonymous":false,"inputs":[{"indexed":true,"internalType":"uint256","name":"campaignId","type":"uint256"},{"indexed":false,"internalType":"uint256","name":"milestoneId","type":"uint256"},{"indexed":false,"internalType":"uint256","name":"amount","type":"uint256"}],"name":"FundsWithdrawn","type":"event"},{"anonymous":false,"inputs":[{"indexed":true,"internalType":"uint256","name":"campaignId","type":"uint256"},{"indexed":false,"internalType":"uint256","name":"milestoneId","type":"uint256"},{"indexed":false,"internalType":"string","name":"title","type":"string"},{"indexed":false,"internalType":"uint256","name":"amount","type":"uint256"},{"indexed":false,"internalType":"uint256","name":"requiredApprovals","type":"uint256"}],"name":"MilestoneAdded","type":"event"},{"anonymous":false,"inputs":[{"indexed":true,"internalType":"uint256","name":"campaignId","type":"uint256"},{"indexed":false,"internalType":"uint256","name":"milestoneId","type":"uint256"},{"indexed":false,"internalType":"address","name":"approver","type":"address"}],"name":"MilestoneApproved","type":"event"},{"anonymous":false,"inputs":[{"indexed":true,"internalType":"uint256","name":"campaignId","type":"uint256"},{"indexed":false,"internalType":"uint256","name":"milestoneId","type":"uint256"},{"indexed":false,"internalType":"string","name":"ipfsHash","type":"string"}],"name":"MilestoneProofUploaded","type":"event"},{"anonymous":false,"inputs":[{"indexed":true,"internalType":"uint256","name":"campaignId","type":"uint256"},{"indexed":false,"internalType":"address","name":"signer","type":"address"},{"indexed":false,"internalType":"uint256","name":"confirmations","type":"uint256"}],"name":"MultiSigConfirmed","type":"event"},{"anonymous":false,"inputs":[{"indexed":true,"internalType":"uint256","name":"campaignId","type":"uint256"},{"indexed":false,"internalType":"address","name":"donor","type":"address"},{"indexed":false,"internalType":"uint256","name":"amount","type":"uint256"}],"name":"RefundIssued","type":"event"},{"anonymous":false,"inputs":[{"indexed":true,"internalType":"uint256","name":"campaignId","type":"uint256"}],"name":"RefundsEnabled","type":"event"},{"inputs":[{"internalType":"uint256","name":"_campaignId","type":"uint256"},{"internalType":"string","name":"_title","type":"string"},{"internalType":"uint256","name":"_amount","type":"uint256"},{"internalType":"uint256","name":"_requiredApprovals","type":"uint256"}],"name":"addMilestone","outputs":[],"stateMutability":"nonpayable","type":"function"},{"inputs":[],"name":"admin","outputs":[{"internalType":"address","name":"","type":"address"}],"stateMutability":"view","type":"function"},{"inputs":[{"internalType":"uint256","name":"_campaignId","type":"uint256"},{"internalType":"uint256","name":"_milestoneId","type":"uint256"}],"name":"approveMilestone","outputs":[],"stateMutability":"nonpayable","type":"function"},{"inputs":[],"name":"campaignCount","outputs":[{"internalType":"uint256","name":"","type":"uint256"}],"stateMutability":"view","type":"function"},{"inputs":[{"internalType":"uint256","name":"","type":"uint256"}],"name":"campaigns","outputs":[{"internalType":"address","name":"owner","type":"address"},{"internalType":"string","name":"title","type":"string"},{"internalType":"string","name":"description","type":"string"},{"internalType":"string","name":"category","type":"string"},{"internalType":"string","name":"ipfsImageHash","type":"string"},{"internalType":"uint256","name":"target","type":"uint256"},{"internalType":"uint256","name":"deadline","type":"uint256"},{"internalType":"uint256","name":"amountCollected","type":"uint256"},{"internalType":"bool","name":"withdrawn","type":"bool"},{"internalType":"bool","name":"verified","type":"bool"},{"internalType":"bool","name":"refundsEnabled","type":"bool"},{"internalType":"uint256","name":"milestoneCount","type":"uint256"},{"internalType":"uint256","name":"donorCount","type":"uint256"},{"internalType":"uint256","name":"confirmationCount","type":"uint256"}],"stateMutability":"view","type":"function"},{"inputs":[{"internalType":"uint256","name":"_id","type":"uint256"}],"name":"claimRefund","outputs":[],"stateMutability":"nonpayable","type":"function"},{"inputs":[{"internalType":"uint256","name":"_id","type":"uint256"}],"name":"confirmWithdrawal","outputs":[],"stateMutability":"nonpayable","type":"function"},{"inputs":[{"internalType":"string","name":"_title","type":"string"},{"internalType":"string","name":"_description","type":"string"},{"internalType":"string","name":"_category","type":"string"},{"internalType":"uint256","name":"_target","type":"uint256"},{"internalType":"uint256","name":"_deadline","type":"uint256"},{"internalType":"string","name":"_ipfsImageHash","type":"string"},{"internalType":"address[]","name":"_multiSigners","type":"address[]"}],"name":"createCampaign","outputs":[{"internalType":"uint256","name":"","type":"uint256"}],"stateMutability":"nonpayable","type":"function"},{"inputs":[{"internalType":"uint256","name":"_id","type":"uint256"}],"name":"donate","outputs":[],"stateMutability":"payable","type":"function"},{"inputs":[{"internalType":"uint256","name":"","type":"uint256"},{"internalType":"address","name":"","type":"address"}],"name":"donations","outputs":[{"internalType":"uint256","name":"","type":"uint256"}],"stateMutability":"view","type":"function"},{"inputs":[{"internalType":"uint256","name":"","type":"uint256"},{"internalType":"uint256","name":"","type":"uint256"}],"name":"donors","outputs":[{"internalType":"address","name":"","type":"address"}],"stateMutability":"view","type":"function"},{"inputs":[{"internalType":"uint256","name":"_id","type":"uint256"}],"name":"enableRefunds","outputs":[],"stateMutability":"nonpayable","type":"function"},{"inputs":[{"internalType":"uint256","name":"_id","type":"uint256"}],"name":"executeMultiSigWithdrawal","outputs":[],"stateMutability":"nonpayable","type":"function"},{"inputs":[],"name":"getContractBalance","outputs":[{"internalType":"uint256","name":"","type":"uint256"}],"stateMutability":"view","type":"function"},{"inputs":[{"internalType":"uint256","name":"_id","type":"uint256"}],"name":"getDonors","outputs":[{"internalType":"address[]","name":"","type":"address[]"}],"stateMutability":"view","type":"function"},{"inputs":[{"internalType":"uint256","name":"_campaignId","type":"uint256"},{"internalType":"uint256","name":"_milestoneId","type":"uint256"}],"name":"getMilestone","outputs":[{"internalType":"string","name":"title","type":"string"},{"internalType":"uint256","name":"amount","type":"uint256"},{"internalType":"bool","name":"approved","type":"bool"},{"internalType":"bool","name":"fundsReleased","type":"bool"},{"internalType":"uint256","name":"approvalCount","type":"uint256"},{"internalType":"uint256","name":"requiredApprovals","type":"uint256"},{"internalType":"string","name":"ipfsProofHash","type":"string"}],"stateMutability":"view","type":"function"},{"inputs":[{"internalType":"uint256","name":"_id","type":"uint256"}],"name":"getMultiSigners","outputs":[{"internalType":"address[]","name":"","type":"address[]"}],"stateMutability":"view","type":"function"},{"inputs":[{"internalType":"uint256","name":"","type":"uint256"},{"internalType":"uint256","name":"","type":"uint256"}],"name":"milestones","outputs":[{"internalType":"string","name":"title","type":"string"},{"internalType":"uint256","name":"amount","type":"uint256"},{"internalType":"bool","name":"approved","type":"bool"},{"internalType":"bool","name":"fundsReleased","type":"bool"},{"internalType":"uint256","name":"approvalCount","type":"uint256"},{"internalType":"uint256","name":"requiredApprovals","type":"uint256"},{"internalType":"string","name":"ipfsProofHash","type":"string"}],"stateMutability":"view","type":"function"},{"inputs":[{"internalType":"uint256","name":"_campaignId","type":"uint256"},{"internalType":"uint256","name":"_milestoneId","type":"uint256"},{"internalType":"string","name":"_ipfsHash","type":"string"}],"name":"uploadMilestoneProof","outputs":[],"stateMutability":"nonpayable","type":"function"},{"inputs":[{"internalType":"uint256","name":"_id","type":"uint256"}],"name":"verifyCampaign","outputs":[],"stateMutability":"nonpayable","type":"function"},{"inputs":[{"internalType":"uint256","name":"_campaignId","type":"uint256"},{"internalType":"uint256","name":"_milestoneId","type":"uint256"}],"name":"withdrawFunds","outputs":[],"stateMutability":"nonpayable","type":"function"}],"evm":{"bytecode":{"linkReferences":{},"object":"6080806040523461002857600580546001600160a01b03191633179055612197908161002e8239f35b600080fdfe6080604052600436101561001257600080fd5b60003560e01c8063141961bc14611bc85780631c376c6314611b7157806320913da51461192757806329516511146118b457806352b2380914611837578063571b0cef1461114a5780635b7baf6414610f465780636728da9d14610d775780636f9fb98a14610d5b5780637274e30d14610d3d57806383bd62dd14610cf35780638ed9895c14610c8657806393d17e2514610a24578063ba1294721461086f578063e5253105146105fb578063ee1554a3146105ae578063f00bffa614610528578063f14faf6f14610354578063f3b38690146101b1578063f52cb29b146101315763f851a4401461010357600080fd5b3461012c57600036600319011261012c576005546040516001600160a01b039091168152602090f35b600080fd5b3461012c57602036600319011261012c5760043561015a60018060a01b03600554163314611ff8565b6101676004548210611f92565b806000526000602052600860406000200161010061ff00198254161790557fcd3ac142ca63f77a9b68e9d6ca66363c24d59be6fade6c25b9ef29c1cd0a82dd6020604051338152a2005b3461012c5760208060031936011261012c57600435906101d46004548310611f92565b8160005260008152604060002090600080600b84018054915b828110610316575b5050508015610303575b156102bf57600c8201903360005281815260ff60406000205416610287577f03e3ee959d51be77c5c7847de477f80beeca9dbcea2fb1b0f5afaa8765caee8a9261028292600d9233600052526040600020600160ff19825416179055016102668154611f6c565b9081905560408051338152602081019290925290918291820190565b0390a2005b6064906040519062461bcd60e51b825260048201526011602482015270105b1c9958591e4818dbdb999a5c9b5959607a1b6044820152fd5b6064906040519062461bcd60e51b82526004820152601860248201527f4e6f7420616e20617574686f72697a6564207369676e657200000000000000006044820152fd5b5081546001600160a01b031633146101ff565b6103208183611f3e565b905460039190911b1c6001600160a01b031633146103465761034190611f6c565b6101ed565b5050505060018480806101f5565b60208060031936011261012c57600435906103726004548310611f92565b816000526000815260406000209060068201544210156104f35734156104bf578260005260028152604060002033600052815260406000205415610420575b60609060077f3dbea1b4ce5f95137fdcac9b1d685825c3d70ace830df1ca5a181d3887add410938560005260028352604060002033600052835260406000206103fb348254611fde565b905501610409348254611fde565b8091556040519133835234908301526040820152a2005b82600052600381526040600020908154600160401b8110156104a9577f3dbea1b4ce5f95137fdcac9b1d685825c3d70ace830df1ca5a181d3887add41093610472826060956001600795018155611f3e565b81546001600160a01b0360039290921b91821b19163390911b179055600a8101805461049d90611f6c565b905593505090506103b1565b634e487b7160e01b600052604160045260246000fd5b6064906040519062461bcd60e51b82526004820152600d60248201526c09aeae6e840e6cadcc8408aa89609b1b6044820152fd5b6064906040519062461bcd60e51b82526004820152600e60248201526d10d85b5c185a59db88195b99195960921b6044820152fd5b3461012c5760208060031936011261012c5760043560005260008152600b60406000200190604051908181845491828152019360005281600020916000905b82821061058e5761058a8561057e81890382611d29565b60405191829182611e98565b0390f35b83546001600160a01b031686529485019460019384019390910190610567565b3461012c57604036600319011261012c576024356001600160a01b0381169081900361012c5760043560005260026020526040600020906000526020526020604060002054604051908152f35b3461012c5761060936611e38565b6106166004548310611f92565b8160005260206000815260018060a01b0361063981604060002054163314612030565b8360005260008252604060002090600183526040600020846000528352604060002090600282019283549360ff85161561081e5760ff8560081c166107e0576001479401946106f1865495610700603961069289612071565b61069b84612071565b8c60405196879375024b739bab33334b1b4b2b73a103130b630b731b29d160551b838601526106d38151809285603689019101611df0565b840191620101f160ed1b603684015283519384918785019101611df0565b01036019810185520183611d29565b86116107ba575061ff0019166101001790555460009283928392839291165af13d156107b5573d61073081611edc565b9061073e6040519283611d29565b81526000843d92013e5b1561077e575460408051938452918301527fd5550c71ca14cc44783a664cd798ecb70dcefed6b3cfdf323041ce6d221f2d7291a2005b60405162461bcd60e51b815260048101839052600f60248201526e151c985b9cd9995c8819985a5b1959608a1b6044820152606490fd5b610748565b876107dc60405192839262461bcd60e51b845260048401526024830190611e13565b0390fd5b60405162461bcd60e51b8152600481018790526016602482015275119d5b991cc8185b1c9958591e481c995b19585cd95960521b6044820152606490fd5b60405162461bcd60e51b8152600481018790526024808201527f4d696c6573746f6e65206e6f742079657420617070726f76656420627920646f6044820152636e6f727360e01b6064820152608490fd5b3461012c5760208060031936011261012c57600435906108926004548310611f92565b816000526000815260018060a01b036108b381604060002054163314612030565b8260005260008252604060002090600b82015460011c60018101809111610a0e57600d830154106109c957600882019182549260ff84166109905760078201549384156109555784600094859485946001869560ff1916179055541682f115610949577fd5550c71ca14cc44783a664cd798ecb70dcefed6b3cfdf323041ce6d221f2d72916040918251916000198352820152a2005b6040513d6000823e3d90fd5b60405162461bcd60e51b81526004810187905260136024820152724e6f7468696e6720746f20776974686472617760681b6044820152606490fd5b60405162461bcd60e51b815260048101869052601160248201527020b63932b0b23c903bb4ba34323930bbb760791b6044820152606490fd5b60405162461bcd60e51b815260048101849052601860248201527f4e6f7420656e6f75676820636f6e6669726d6174696f6e7300000000000000006044820152606490fd5b634e487b7160e01b600052601160045260246000fd5b3461012c57608036600319011261012c576001600160401b0360043560243582811161012c57610a58903690600401611ef7565b916044359060643591610a6e6004548510611f92565b8360005260209260008452610a9160018060a01b03604060002054163314612030565b8015610c41578460005260008452600960406000200192835493610ab485611f6c565b9055856000526001808652604060002085600052865260406000209188519081116104a957610ae38354611cef565b601f8111610c06575b5086601f8211600114610b7a57610b5f93867f9a9d239b8adb10007d5005bf50c7aa61972faf2aeff3e1eefe642dd9e1487d979a9b94848895600495600091610b6f575b50600019600383901b1c191690821b1783555b8201550155608060405196879687528601526080850190611e13565b91604084015260608301520390a2005b90508701518f610b30565b601f1982169084600052886000209160005b818110610bf15750847f9a9d239b8adb10007d5005bf50c7aa61972faf2aeff3e1eefe642dd9e1487d979b9c9585600495610b5f99958b988d9610610bd8575b5050811b018355610b43565b89015160001960f88460031b161c191690558f80610bcc565b8c830151845592850192918a01918a01610b8c565b610c31908460005288600020601f840160051c8101918a8510610c37575b601f0160051c0190611f7b565b89610aec565b9091508190610c24565b60405162461bcd60e51b815260048101859052601860248201527f4e656564206174206c65617374203120617070726f76616c00000000000000006044820152606490fd5b3461012c57610c9436611e38565b9060005260016020526040600020906000526020526040600020600181015461058a60028301546003840154600485015490610cdb6005610cd488611d4a565b9701611d4a565b9260405196879660ff808460081c1693169188611e4e565b3461012c57610d0136611e38565b9060005260036020526040600020805482101561012c57602091610d2491611f3e565b905460405160039290921b1c6001600160a01b03168152f35b3461012c57600036600319011261012c576020600454604051908152f35b3461012c57600036600319011261012c57602047604051908152f35b3461012c57606036600319011261012c576024356004356001600160401b0360443581811161012c57610dae903690600401611ef7565b92610dbc6004548410611f92565b8260005260209160008352610ddf60018060a01b03604060002054163314612030565b83600052600190818452604060002083600052845260056040600020019186519182116104a957610e108354611cef565b601f8111610f16575b5084601f8311600114610e8c5791808061028295937fa242dc265ec329d765b4d1175eb5f3d36f052da4b6bf61b340d71ca9846ca7a2999a95600093610e81575b501b916000199060031b1c19161790555b6040805194859485528401526040830190611e13565b86015192508b610e5a565b601f9291921982169084600052866000209160005b818110610f01575091839161028296947fa242dc265ec329d765b4d1175eb5f3d36f052da4b6bf61b340d71ca9846ca7a29a9b969410610ee8575b5050811b019055610e6b565b85015160001960f88460031b161c191690558980610edc565b8a830151845592850192918801918801610ea1565b610f40908460005286600020601f850160051c810191888610610c3757601f0160051c0190611f7b565b87610e19565b3461012c5760208060031936011261012c5760043590610f696004548310611f92565b81600052600081526040600020600681015442111561110d576007810190815460058201541180156110fc575b156110b7576008015460ff166110725782600052600282526040600020336000528252604060002054918215611036578360005260028152604060002090336000525260006040812055610feb828254611feb565b90556000808080843382f115610949576040805133815260208101929092527f7a482fdeb6bc9a1376f597068a214a7a39472bb2eff1b8cad21ba04f49ddca1b919081908101610282565b6064906040519062461bcd60e51b825260048201526015602482015274139bc8191bdb985d1a5bdb881d1bc81c99599d5b99605a1b6044820152fd5b60405162461bcd60e51b815260048101839052601760248201527f416c72656164792066756c6c792077697468647261776e0000000000000000006044820152606490fd5b60405162461bcd60e51b815260048101849052601760248201527f4e6f7420656c696769626c6520666f7220726566756e640000000000000000006044820152606490fd5b5060ff600882015460101c16610f96565b60405162461bcd60e51b815260048101839052601560248201527443616d706169676e207374696c6c2061637469766560581b6044820152606490fd5b3461012c5760e036600319011261012c576004356001600160401b03811161012c5761117a903690600401611ef7565b6024356001600160401b03811161012c57611199903690600401611ef7565b906044356001600160401b03811161012c576111b9903690600401611ef7565b9060a4356001600160401b03811161012c576111d9903690600401611ef7565b9260c435906001600160401b03821161012c573660238301121561012c578160040135946001600160401b0386116104a9578560051b92604051966112216020860189611d29565b87526020870190602482958201019036821161012c57602401915b818310611817575050504260843511156117d25760643515611798576004549461126586611f6c565b600455856000526000602052604060002092336bffffffffffffffffffffffff60a01b85541617845585516001600160401b0381116104a9576112ab6001860154611cef565b601f8111611763575b50806020601f82116001146116f6576000916116eb575b508160011b916000199060031b1c19161760018501555b8051906001600160401b0382116104a95781906113026002870154611cef565b601f81116116b6575b50602090601f831160011461164457600092611639575b50508160011b916000199060031b1c19161760028401555b8051906001600160401b0382116104a957819061135a6003860154611cef565b601f8111611604575b50602090601f831160011461159257600092611587575b50508160011b916000199060031b1c19161760038301555b8051906001600160401b0382116104a9576113b06004840154611cef565b601f8111611552575b50602090601f83116001146114df57600b939291600091836114d4575b50508160011b916000199060031b1c19161760048201555b60643560058201556084356006820155019351906001600160401b0382116104a957600160401b82116104a95784548286558083106114b6575b5093600052602060002060005b82811061149957602085807fdc26653af5b99b2da33e2ad69ee6600d9aeccc82b034501db4338309615ca23861147e886040519182913383526080888401526080830190611e13565b606435604083015260843560608301520390a2604051908152f35b85516001600160a01b031681830155602090950194600101611435565b6114ce90866000528360206000209182019101611f7b565b85611428565b0151905088806113d6565b906004840160005260206000209160005b601f198516811061153a5750918391600193600b9695601f19811610611521575b505050811b0160048201556113ee565b015160001960f88460031b161c19169055888080611511565b919260206001819286850151815501940192016114f0565b61158190600485016000526020600020601f850160051c81019160208610610c3757601f0160051c0190611f7b565b876113b9565b01519050888061137a565b9250600385016000526020600020906000935b601f19841685106115e9576001945083601f198116106115d0575b505050811b016003830155611392565b015160001960f88460031b161c191690558880806115c0565b818101518355602094850194600190930192909101906115a5565b61163390600387016000526020600020601f850160051c81019160208610610c3757601f0160051c0190611f7b565b89611363565b015190508980611322565b9250600286016000526020600020906000935b601f198416851061169b576001945083601f19811610611682575b505050811b01600284015561133a565b015160001960f88460031b161c19169055898080611672565b81810151835560209485019460019093019290910190611657565b6116e590600288016000526020600020601f850160051c81019160208610610c3757601f0160051c0190611f7b565b8a61130b565b90508701518a6112cb565b91506001860160005260206000206000925b601f198316841061174b576001935082601f19811610611732575b5050811b0160018501556112e2565b89015160001960f88460031b161c191690558a80611723565b89810151825560209384019360019092019101611708565b61179290600187016000526020600020601f840160051c81019160208510610c3757601f0160051c0190611f7b565b896112b4565b60405162461bcd60e51b81526020600482015260126024820152710546172676574206d757374206265203e20360741b6044820152606490fd5b60405162461bcd60e51b815260206004820152601a60248201527f446561646c696e65206d75737420626520696e206675747572650000000000006044820152606490fd5b82356001600160a01b038116810361012c5781526020928301920161123c565b3461012c57602036600319011261012c5760043561186060018060a01b03600554163314611ff8565b61186d6004548210611f92565b80600052600060205260086040600020016201000062ff0000198254161790557f01fd9d9d9f159bbb346cbe96d08df5b61108b672fa79a2d53fb9c67b9717d273600080a2005b3461012c5760208060031936011261012c5760043560005260038152604060002090604051908181845491828152019360005281600020916000905b8282106119075761058a8561057e81890382611d29565b83546001600160a01b0316865294850194600193840193909101906118f0565b3461012c5761193536611e38565b906119436004548210611f92565b80600052602060028152604060002033600052815260406000205415611b2d578160005260008152600960406000200154831015611af257816000526001815260406000208360005281526040600020916004830190815415611aad5760068401943360005285845260ff60406000205416611a7857600285019560ff875416611a33577f9ffbb52f2a1362273cd74689a516ca4f52c4282dc13e2e68b7e0646a9a7af7a3916040913360005286526003826000209760ff199860018a8254161790550195611a128754611f6c565b80975582519182523390820152a2541115611a2957005b8154166001179055005b60405162461bcd60e51b815260048101869052601a60248201527f4d696c6573746f6e6520616c726561647920617070726f7665640000000000006044820152606490fd5b60405162461bcd60e51b815260048101859052600d60248201526c105b1c9958591e481d9bdd1959609a1b6044820152606490fd5b60405162461bcd60e51b815260048101849052601960248201527f4d696c6573746f6e65206e6f7420696e697469616c697a6564000000000000006044820152606490fd5b6064906040519062461bcd60e51b825260048201526014602482015273125b9d985b1a59081b5a5b195cdd1bdb9948125160621b6044820152fd5b6064906040519062461bcd60e51b82526004820152601760248201527f4d757374206265206120646f6e6f7220746f20766f74650000000000000000006044820152fd5b3461012c57611b7f36611e38565b9060005260016020526040600020906000526020526040600020611ba281611d4a565b9061058a6001820154916002810154906003810154610cdb600560048401549301611d4a565b3461012c57602036600319011261012c57600435600090815260208190526040902080546001600160a01b0316611c0160018301611d4a565b91611c0e60028201611d4a565b611c1a60038301611d4a565b91611c2760048201611d4a565b926005820154936006830154600784015490600885015492600986015494600a87015496600d0154976040519b8c9b8c528b6101c06020819201528c01611c6d91611e13565b8b810360408d0152611c7e91611e13565b8a810360608c0152611c8f91611e13565b89810360808b0152611ca091611e13565b9660a089015260c088015260e087015260ff811615156101008701528060081c60ff16151561012087015260101c60ff1615156101408601526101608501526101808401526101a08301520390f35b90600182811c92168015611d1f575b6020831014611d0957565b634e487b7160e01b600052602260045260246000fd5b91607f1691611cfe565b90601f801991011681019081106001600160401b038211176104a957604052565b9060405191826000825492611d5e84611cef565b908184526001948581169081600014611dcd5750600114611d8a575b5050611d8892500383611d29565b565b9093915060005260209081600020936000915b818310611db5575050611d8893508201013880611d7a565b85548884018501529485019487945091830191611d9d565b915050611d8894506020925060ff191682840152151560051b8201013880611d7a565b60005b838110611e035750506000910152565b8181015183820152602001611df3565b90602091611e2c81518092818552858086019101611df0565b601f01601f1916010190565b604090600319011261012c576004359060243590565b939092611e6a611e95989693979460e0875260e0870190611e13565b9660208601521515604085015215156060840152608083015260a082015260c0818403910152611e13565b90565b6020908160408183019282815285518094520193019160005b828110611ebf575050505090565b83516001600160a01b031685529381019392810192600101611eb1565b6001600160401b0381116104a957601f01601f191660200190565b81601f8201121561012c57803590611f0e82611edc565b92611f1c6040519485611d29565b8284526020838301011161012c57816000926020809301838601378301015290565b8054821015611f565760005260206000200190600090565b634e487b7160e01b600052603260045260246000fd5b6000198114610a0e5760010190565b818110611f86575050565b60008155600101611f7b565b15611f9957565b60405162461bcd60e51b815260206004820152601760248201527f43616d706169676e20646f6573206e6f742065786973740000000000000000006044820152606490fd5b91908201809211610a0e57565b91908203918211610a0e57565b15611fff57565b60405162461bcd60e51b81526020600482015260096024820152682737ba1030b236b4b760b91b6044820152606490fd5b1561203757565b60405162461bcd60e51b81526020600482015260126024820152712737ba1031b0b6b830b4b3b71037bbb732b960711b6044820152606490fd5b80156121335780816000925b61211f575061208b82611edc565b916120996040519384611d29565b80835281601f196120a983611edc565b01916020923684870137925b6120bf5750505090565b6000198301928311610a0e5782600a80830492818402918483041484151715610a0e576120ef60ff928392611feb565b16603001908111610a0e578551821015611f565760f81b6001600160f81b03191660001a908501830153806120b5565b9161212b600a91611f6c565b92048061207d565b50604051604081018181106001600160401b038211176104a95760405260018152600360fc1b60208201529056fea26469706673582212201ed651352b257f23e0f7ff7704b951cadee44720805da3b7dd7e5e68d643e5fe64736f6c63430008130033","opcodes":"PUSH1 0x80 DUP1 PUSH1 0x40 MSTORE CALLVALUE PUSH2 0x28 JUMPI PUSH1 0x5 DUP1 SLOAD PUSH1 0x1 PUSH1 0x1 PUSH1 0xA0 SHL SUB NOT AND CALLER OR SWAP1 SSTORE PUSH2 0x2197 SWAP1 DUP2 PUSH2 0x2E DUP3 CODECOPY RETURN JUMPDEST PUSH1 0x0 DUP1 REVERT INVALID PUSH1 0x80 PUSH1 0x40 MSTORE PUSH1 0x4 CALLDATASIZE LT ISZERO PUSH2 0x12 JUMPI PUSH1 0x0 DUP1 REVERT JUMPDEST PUSH1 0x0 CALLDATALOAD PUSH1 0xE0 SHR DUP1 PUSH4 0x141961BC EQ PUSH2 0x1BC8 JUMPI DUP1 PUSH4 0x1C376C63 EQ PUSH2 0x1B71 JUMPI DUP1 PUSH4 0x20913DA5 EQ PUSH2 0x1927 JUMPI DUP1 PUSH4 0x29516511 EQ PUSH2 0x18B4 JUMPI DUP1 PUSH4 0x52B23809 EQ PUSH2 0x1837 JUMPI DUP1 PUSH4 0x571B0CEF EQ PUSH2 0x114A JUMPI DUP1 PUSH4 0x5B7BAF64 EQ PUSH2 0xF46 JUMPI DUP1 PUSH4 0x6728DA9D EQ PUSH2 0xD77 JUMPI DUP1 PUSH4 0x6F9FB98A EQ PUSH2 0xD5B JUMPI DUP1 PUSH4 0x7274E30D EQ PUSH2 0xD3D JUMPI DUP1 PUSH4 0x83BD62DD EQ PUSH2 0xCF3 JUMPI DUP1 PUSH4 0x8ED9895C EQ PUSH2 0xC86 JUMPI DUP1 PUSH4 0x93D17E25 EQ PUSH2 0xA24 JUMPI DUP1 PUSH4 0xBA129472 EQ PUSH2 0x86F JUMPI DUP1 PUSH4 0xE5253105 EQ PUSH2 0x5FB JUMPI DUP1 PUSH4 0xEE1554A3 EQ PUSH2 0x5AE JUMPI DUP1 PUSH4 0xF00BFFA6 EQ PUSH2 0x528 JUMPI DUP1 PUSH4 0xF14FAF6F EQ PUSH2 0x354 JUMPI DUP1 PUSH4 0xF3B38690 EQ PUSH2 0x1B1 JUMPI DUP1 PUSH4 0xF52CB29B EQ PUSH2 0x131 JUMPI PUSH4 0xF851A440 EQ PUSH2 0x103 JUMPI PUSH1 0x0 DUP1 REVERT JUMPDEST CALLVALUE PUSH2 0x12C JUMPI PUSH1 0x0 CALLDATASIZE PUSH1 0x3 NOT ADD SLT PUSH2 0x12C JUMPI PUSH1 0x5 SLOAD PUSH1 0x40 MLOAD PUSH1 0x1 PUSH1 0x1 PUSH1 0xA0 SHL SUB SWAP1 SWAP2 AND DUP2 MSTORE PUSH1 0x20 SWAP1 RETURN JUMPDEST PUSH1 0x0 DUP1 REVERT JUMPDEST CALLVALUE PUSH2 0x12C JUMPI PUSH1 0x20 CALLDATASIZE PUSH1 0x3 NOT ADD SLT PUSH2 0x12C JUMPI PUSH1 0x4 CALLDATALOAD PUSH2 0x15A PUSH1 0x1 DUP1 PUSH1 0xA0 SHL SUB PUSH1 0x5 SLOAD AND CALLER EQ PUSH2 0x1FF8 JUMP JUMPDEST PUSH2 0x167 PUSH1 0x4 SLOAD DUP3 LT PUSH2 0x1F92 JUMP JUMPDEST DUP1 PUSH1 0x0 MSTORE PUSH1 0x0 PUSH1 0x20 MSTORE PUSH1 0x8 PUSH1 0x40 PUSH1 0x0 KECCAK256 ADD PUSH2 0x100 PUSH2 0xFF00 NOT DUP3 SLOAD AND OR SWAP1 SSTORE PUSH32 0xCD3AC142CA63F77A9B68E9D6CA66363C24D59BE6FADE6C25B9EF29C1CD0A82DD PUSH1 0x20 PUSH1 0x40 MLOAD CALLER DUP2 MSTORE LOG2 STOP JUMPDEST CALLVALUE PUSH2 0x12C JUMPI PUSH1 0x20 DUP1 PUSH1 0x3 NOT CALLDATASIZE ADD SLT PUSH2 0x12C JUMPI PUSH1 0x4 CALLDATALOAD SWAP1 PUSH2 0x1D4 PUSH1 0x4 SLOAD DUP4 LT PUSH2 0x1F92 JUMP JUMPDEST DUP2 PUSH1 0x0 MSTORE PUSH1 0x0 DUP2 MSTORE PUSH1 0x40 PUSH1 0x0 KECCAK256 SWAP1 PUSH1 0x0 DUP1 PUSH1 0xB DUP5 ADD DUP1 SLOAD SWAP2 JUMPDEST DUP3 DUP2 LT PUSH2 0x316 JUMPI JUMPDEST POP POP POP DUP1 ISZERO PUSH2 0x303 JUMPI JUMPDEST ISZERO PUSH2 0x2BF JUMPI PUSH1 0xC DUP3 ADD SWAP1 CALLER PUSH1 0x0 MSTORE DUP2 DUP2 MSTORE PUSH1 0xFF PUSH1 0x40 PUSH1 0x0 KECCAK256 SLOAD AND PUSH2 0x287 JUMPI PUSH32 0x3E3EE959D51BE77C5C7847DE477F80BEECA9DBCEA2FB1B0F5AFAA8765CAEE8A SWAP3 PUSH2 0x282 SWAP3 PUSH1 0xD SWAP3 CALLER PUSH1 0x0 MSTORE MSTORE PUSH1 0x40 PUSH1 0x0 KECCAK256 PUSH1 0x1 PUSH1 0xFF NOT DUP3 SLOAD AND OR SWAP1 SSTORE ADD PUSH2 0x266 DUP2 SLOAD PUSH2 0x1F6C JUMP JUMPDEST SWAP1 DUP2 SWAP1 SSTORE PUSH1 0x40 DUP1 MLOAD CALLER DUP2 MSTORE PUSH1 0x20 DUP2 ADD SWAP3 SWAP1 SWAP3 MSTORE SWAP1 SWAP2 DUP3 SWAP2 DUP3 ADD SWAP1 JUMP JUMPDEST SUB SWAP1 LOG2 STOP JUMPDEST PUSH1 0x64 SWAP1 PUSH1 0x40 MLOAD SWAP1 PUSH3 0x461BCD PUSH1 0xE5 SHL DUP3 MSTORE PUSH1 0x4 DUP3 ADD MSTORE PUSH1 0x11 PUSH1 0x24 DUP3 ADD MSTORE PUSH17 0x105B1C9958591E4818DBDB999A5C9B5959 PUSH1 0x7A SHL PUSH1 0x44 DUP3 ADD MSTORE REVERT JUMPDEST PUSH1 0x64 SWAP1 PUSH1 0x40 MLOAD SWAP1 PUSH3 0x461BCD PUSH1 0xE5 SHL DUP3 MSTORE PUSH1 0x4 DUP3 ADD MSTORE PUSH1 0x18 PUSH1 0x24 DUP3 ADD MSTORE PUSH32 0x4E6F7420616E20617574686F72697A6564207369676E65720000000000000000 PUSH1 0x44 DUP3 ADD MSTORE REVERT JUMPDEST POP DUP2 SLOAD PUSH1 0x1 PUSH1 0x1 PUSH1 0xA0 SHL SUB AND CALLER EQ PUSH2 0x1FF JUMP JUMPDEST PUSH2 0x320 DUP2 DUP4 PUSH2 0x1F3E JUMP JUMPDEST SWAP1 SLOAD PUSH1 0x3 SWAP2 SWAP1 SWAP2 SHL SHR PUSH1 0x1 PUSH1 0x1 PUSH1 0xA0 SHL SUB AND CALLER EQ PUSH2 0x346 JUMPI PUSH2 0x341 SWAP1 PUSH2 0x1F6C JUMP JUMPDEST PUSH2 0x1ED JUMP JUMPDEST POP POP POP POP PUSH1 0x1 DUP5 DUP1 DUP1 PUSH2 0x1F5 JUMP JUMPDEST PUSH1 0x20 DUP1 PUSH1 0x3 NOT CALLDATASIZE ADD SLT PUSH2 0x12C JUMPI PUSH1 0x4 CALLDATALOAD SWAP1 PUSH2 0x372 PUSH1 0x4 SLOAD DUP4 LT PUSH2 0x1F92 JUMP JUMPDEST DUP2 PUSH1 0x0 MSTORE PUSH1 0x0 DUP2 MSTORE PUSH1 0x40 PUSH1 0x0 KECCAK256 SWAP1 PUSH1 0x6 DUP3 ADD SLOAD TIMESTAMP LT ISZERO PUSH2 0x4F3 JUMPI CALLVALUE ISZERO PUSH2 0x4BF JUMPI DUP3 PUSH1 0x0 MSTORE PUSH1 0x2 DUP2 MSTORE PUSH1 0x40 PUSH1 0x0 KECCAK256 CALLER PUSH1 0x0 MSTORE DUP2 MSTORE PUSH1 0x40 PUSH1 0x0 KECCAK256 SLOAD ISZERO PUSH2 0x420 JUMPI JUMPDEST PUSH1 0x60 SWAP1 PUSH1 0x7 PUSH32 0x3DBEA1B4CE5F95137FDCAC9B1D685825C3D70ACE830DF1CA5A181D3887ADD410 SWAP4 DUP6 PUSH1 0x0 MSTORE PUSH1 0x2 DUP4 MSTORE PUSH1 0x40 PUSH1 0x0 KECCAK256 CALLER PUSH1 0x0 MSTORE DUP4 MSTORE PUSH1 0x40 PUSH1 0x0 KECCAK256 PUSH2 0x3FB CALLVALUE DUP3 SLOAD PUSH2 0x1FDE JUMP JUMPDEST SWAP1 SSTORE ADD PUSH2 0x409 CALLVALUE DUP3 SLOAD PUSH2 0x1FDE JUMP JUMPDEST DUP1 SWAP2 SSTORE PUSH1 0x40 MLOAD SWAP2 CALLER DUP4 MSTORE CALLVALUE SWAP1 DUP4 ADD MSTORE PUSH1 0x40 DUP3 ADD MSTORE LOG2 STOP JUMPDEST DUP3 PUSH1 0x0 MSTORE PUSH1 0x3 DUP2 MSTORE PUSH1 0x40 PUSH1 0x0 KECCAK256 SWAP1 DUP2 SLOAD PUSH1 0x1 PUSH1 0x40 SHL DUP2 LT ISZERO PUSH2 0x4A9 JUMPI PUSH32 0x3DBEA1B4CE5F95137FDCAC9B1D685825C3D70ACE830DF1CA5A181D3887ADD410 SWAP4 PUSH2 0x472 DUP3 PUSH1 0x60 SWAP6 PUSH1 0x1 PUSH1 0x7 SWAP6 ADD DUP2 SSTORE PUSH2 0x1F3E JUMP JUMPDEST DUP2 SLOAD PUSH1 0x1 PUSH1 0x1 PUSH1 0xA0 SHL SUB PUSH1 0x3 SWAP3 SWAP1 SWAP3 SHL SWAP2 DUP3 SHL NOT AND CALLER SWAP1 SWAP2 SHL OR SWAP1 SSTORE PUSH1 0xA DUP2 ADD DUP1 SLOAD PUSH2 0x49D SWAP1 PUSH2 0x1F6C JUMP JUMPDEST SWAP1 SSTORE SWAP4 POP POP SWAP1 POP PUSH2 0x3B1 JUMP JUMPDEST PUSH4 0x4E487B71 PUSH1 0xE0 SHL PUSH1 0x0 MSTORE PUSH1 0x41 PUSH1 0x4 MSTORE PUSH1 0x24 PUSH1 0x0 REVERT JUMPDEST PUSH1 0x64 SWAP1 PUSH1 0x40 MLOAD SWAP1 PUSH3 0x461BCD PUSH1 0xE5 SHL DUP3 MSTORE PUSH1 0x4 DUP3 ADD MSTORE PUSH1 0xD PUSH1 0x24 DUP3 ADD MSTORE PUSH13 0x9AEAE6E840E6CADCC8408AA89 PUSH1 0x9B SHL PUSH1 0x44 DUP3 ADD MSTORE REVERT JUMPDEST PUSH1 0x64 SWAP1 PUSH1 0x40 MLOAD SWAP1 PUSH3 0x461BCD PUSH1 0xE5 SHL DUP3 MSTORE PUSH1 0x4 DUP3 ADD MSTORE PUSH1 0xE PUSH1 0x24 DUP3 ADD MSTORE PUSH14 0x10D85B5C185A59DB88195B991959 PUSH1 0x92 SHL PUSH1 0x44 DUP3 ADD MSTORE REVERT JUMPDEST CALLVALUE PUSH2 0x12C JUMPI PUSH1 0x20 DUP1 PUSH1 0x3 NOT CALLDATASIZE ADD SLT PUSH2 0x12C JUMPI PUSH1 0x4 CALLDATALOAD PUSH1 0x0 MSTORE PUSH1 0x0 DUP2 MSTORE PUSH1 0xB PUSH1 0x40 PUSH1 0x0 KECCAK256 ADD SWAP1 PUSH1 0x40 MLOAD SWAP1 DUP2 DUP2 DUP5 SLOAD SWAP2 DUP3 DUP2 MSTORE ADD SWAP4 PUSH1 0x0 MSTORE DUP2 PUSH1 0x0 KECCAK256 SWAP2 PUSH1 0x0 SWAP1 JUMPDEST DUP3 DUP3 LT PUSH2 0x58E JUMPI PUSH2 0x58A DUP6 PUSH2 0x57E DUP2 DUP10 SUB DUP3 PUSH2 0x1D29 JUMP JUMPDEST PUSH1 0x40 MLOAD SWAP2 DUP3 SWAP2 DUP3 PUSH2 0x1E98 JUMP JUMPDEST SUB SWAP1 RETURN JUMPDEST DUP4 SLOAD PUSH1 0x1 PUSH1 0x1 PUSH1 0xA0 SHL SUB AND DUP7 MSTORE SWAP5 DUP6 ADD SWAP5 PUSH1 0x1 SWAP4 DUP5 ADD SWAP4 SWAP1 SWAP2 ADD SWAP1 PUSH2 0x567 JUMP JUMPDEST CALLVALUE PUSH2 0x12C JUMPI PUSH1 0x40 CALLDATASIZE PUSH1 0x3 NOT ADD SLT PUSH2 0x12C JUMPI PUSH1 0x24 CALLDATALOAD PUSH1 0x1 PUSH1 0x1 PUSH1 0xA0 SHL SUB DUP2 AND SWAP1 DUP2 SWAP1 SUB PUSH2 0x12C JUMPI PUSH1 0x4 CALLDATALOAD PUSH1 0x0 MSTORE PUSH1 0x2 PUSH1 0x20 MSTORE PUSH1 0x40 PUSH1 0x0 KECCAK256 SWAP1 PUSH1 0x0 MSTORE PUSH1 0x20 MSTORE PUSH1 0x20 PUSH1 0x40 PUSH1 0x0 KECCAK256 SLOAD PUSH1 0x40 MLOAD SWAP1 DUP2 MSTORE RETURN JUMPDEST CALLVALUE PUSH2 0x12C JUMPI PUSH2 0x609 CALLDATASIZE PUSH2 0x1E38 JUMP JUMPDEST PUSH2 0x616 PUSH1 0x4 SLOAD DUP4 LT PUSH2 0x1F92 JUMP JUMPDEST DUP2 PUSH1 0x0 MSTORE PUSH1 0x20 PUSH1 0x0 DUP2 MSTORE PUSH1 0x1 DUP1 PUSH1 0xA0 SHL SUB PUSH2 0x639 DUP2 PUSH1 0x40 PUSH1 0x0 KECCAK256 SLOAD AND CALLER EQ PUSH2 0x2030 JUMP JUMPDEST DUP4 PUSH1 0x0 MSTORE PUSH1 0x0 DUP3 MSTORE PUSH1 0x40 PUSH1 0x0 KECCAK256 SWAP1 PUSH1 0x1 DUP4 MSTORE PUSH1 0x40 PUSH1 0x0 KECCAK256 DUP5 PUSH1 0x0 MSTORE DUP4 MSTORE PUSH1 0x40 PUSH1 0x0 KECCAK256 SWAP1 PUSH1 0x2 DUP3 ADD SWAP3 DUP4 SLOAD SWAP4 PUSH1 0xFF DUP6 AND ISZERO PUSH2 0x81E JUMPI PUSH1 0xFF DUP6 PUSH1 0x8 SHR AND PUSH2 0x7E0 JUMPI PUSH1 0x1 SELFBALANCE SWAP5 ADD SWAP5 PUSH2 0x6F1 DUP7 SLOAD SWAP6 PUSH2 0x700 PUSH1 0x39 PUSH2 0x692 DUP10 PUSH2 0x2071 JUMP JUMPDEST PUSH2 0x69B DUP5 PUSH2 0x2071 JUMP JUMPDEST DUP13 PUSH1 0x40 MLOAD SWAP7 DUP8 SWAP4 PUSH22 0x24B739BAB33334B1B4B2B73A103130B630B731B29D1 PUSH1 0x55 SHL DUP4 DUP7 ADD MSTORE PUSH2 0x6D3 DUP2 MLOAD DUP1 SWAP3 DUP6 PUSH1 0x36 DUP10 ADD SWAP2 ADD PUSH2 0x1DF0 JUMP JUMPDEST DUP5 ADD SWAP2 PUSH3 0x101F1 PUSH1 0xED SHL PUSH1 0x36 DUP5 ADD MSTORE DUP4 MLOAD SWAP4 DUP5 SWAP2 DUP8 DUP6 ADD SWAP2 ADD PUSH2 0x1DF0 JUMP JUMPDEST ADD SUB PUSH1 0x19 DUP2 ADD DUP6 MSTORE ADD DUP4 PUSH2 0x1D29 JUMP JUMPDEST DUP7 GT PUSH2 0x7BA JUMPI POP PUSH2 0xFF00 NOT AND PUSH2 0x100 OR SWAP1 SSTORE SLOAD PUSH1 0x0 SWAP3 DUP4 SWAP3 DUP4 SWAP3 DUP4 SWAP3 SWAP2 AND GAS CALL RETURNDATASIZE ISZERO PUSH2 0x7B5 JUMPI RETURNDATASIZE PUSH2 0x730 DUP2 PUSH2 0x1EDC JUMP JUMPDEST SWAP1 PUSH2 0x73E PUSH1 0x40 MLOAD SWAP3 DUP4 PUSH2 0x1D29 JUMP JUMPDEST DUP2 MSTORE PUSH1 0x0 DUP5 RETURNDATASIZE SWAP3 ADD RETURNDATACOPY JUMPDEST ISZERO PUSH2 0x77E JUMPI SLOAD PUSH1 0x40 DUP1 MLOAD SWAP4 DUP5 MSTORE SWAP2 DUP4 ADD MSTORE PUSH32 0xD5550C71CA14CC44783A664CD798ECB70DCEFED6B3CFDF323041CE6D221F2D72 SWAP2 LOG2 STOP JUMPDEST PUSH1 0x40 MLOAD PUSH3 0x461BCD PUSH1 0xE5 SHL DUP2 MSTORE PUSH1 0x4 DUP2 ADD DUP4 SWAP1 MSTORE PUSH1 0xF PUSH1 0x24 DUP3 ADD MSTORE PUSH15 0x151C985B9CD9995C8819985A5B1959 PUSH1 0x8A SHL PUSH1 0x44 DUP3 ADD MSTORE PUSH1 0x64 SWAP1 REVERT JUMPDEST PUSH2 0x748 JUMP JUMPDEST DUP8 PUSH2 0x7DC PUSH1 0x40 MLOAD SWAP3 DUP4 SWAP3 PUSH3 0x461BCD PUSH1 0xE5 SHL DUP5 MSTORE PUSH1 0x4 DUP5 ADD MSTORE PUSH1 0x24 DUP4 ADD SWAP1 PUSH2 0x1E13 JUMP JUMPDEST SUB SWAP1 REVERT JUMPDEST PUSH1 0x40 MLOAD PUSH3 0x461BCD PUSH1 0xE5 SHL DUP2 MSTORE PUSH1 0x4 DUP2 ADD DUP8 SWAP1 MSTORE PUSH1 0x16 PUSH1 0x24 DUP3 ADD MSTORE PUSH22 0x119D5B991CC8185B1C9958591E481C995B19585CD959 PUSH1 0x52 SHL PUSH1 0x44 DUP3 ADD MSTORE PUSH1 0x64 SWAP1 REVERT JUMPDEST PUSH1 0x40 MLOAD PUSH3 0x461BCD PUSH1 0xE5 SHL DUP2 MSTORE PUSH1 0x4 DUP2 ADD DUP8 SWAP1 MSTORE PUSH1 0x24 DUP1 DUP3 ADD MSTORE PUSH32 0x4D696C6573746F6E65206E6F742079657420617070726F76656420627920646F PUSH1 0x44 DUP3 ADD MSTORE PUSH4 0x6E6F7273 PUSH1 0xE0 SHL PUSH1 0x64 DUP3 ADD MSTORE PUSH1 0x84 SWAP1 REVERT JUMPDEST CALLVALUE PUSH2 0x12C JUMPI PUSH1 0x20 DUP1 PUSH1 0x3 NOT CALLDATASIZE ADD SLT PUSH2 0x12C JUMPI PUSH1 0x4 CALLDATALOAD SWAP1 PUSH2 0x892 PUSH1 0x4 SLOAD DUP4 LT PUSH2 0x1F92 JUMP JUMPDEST DUP2 PUSH1 0x0 MSTORE PUSH1 0x0 DUP2 MSTORE PUSH1 0x1 DUP1 PUSH1 0xA0 SHL SUB PUSH2 0x8B3 DUP2 PUSH1 0x40 PUSH1 0x0 KECCAK256 SLOAD AND CALLER EQ PUSH2 0x2030 JUMP JUMPDEST DUP3 PUSH1 0x0 MSTORE PUSH1 0x0 DUP3 MSTORE PUSH1 0x40 PUSH1 0x0 KECCAK256 SWAP1 PUSH1 0xB DUP3 ADD SLOAD PUSH1 0x1 SHR PUSH1 0x1 DUP2 ADD DUP1 SWAP2 GT PUSH2 0xA0E JUMPI PUSH1 0xD DUP4 ADD SLOAD LT PUSH2 0x9C9 JUMPI PUSH1 0x8 DUP3 ADD SWAP2 DUP3 SLOAD SWAP3 PUSH1 0xFF DUP5 AND PUSH2 0x990 JUMPI PUSH1 0x7 DUP3 ADD SLOAD SWAP4 DUP5 ISZERO PUSH2 0x955 JUMPI DUP5 PUSH1 0x0 SWAP5 DUP6 SWAP5 DUP6 SWAP5 PUSH1 0x1 DUP7 SWAP6 PUSH1 0xFF NOT AND OR SWAP1 SSTORE SLOAD AND DUP3 CALL ISZERO PUSH2 0x949 JUMPI PUSH32 0xD5550C71CA14CC44783A664CD798ECB70DCEFED6B3CFDF323041CE6D221F2D72 SWAP2 PUSH1 0x40 SWAP2 DUP3 MLOAD SWAP2 PUSH1 0x0 NOT DUP4 MSTORE DUP3 ADD MSTORE LOG2 STOP JUMPDEST PUSH1 0x40 MLOAD RETURNDATASIZE PUSH1 0x0 DUP3 RETURNDATACOPY RETURNDATASIZE SWAP1 REVERT JUMPDEST PUSH1 0x40 MLOAD PUSH3 0x461BCD PUSH1 0xE5 SHL DUP2 MSTORE PUSH1 0x4 DUP2 ADD DUP8 SWAP1 MSTORE PUSH1 0x13 PUSH1 0x24 DUP3 ADD MSTORE PUSH19 0x4E6F7468696E6720746F207769746864726177 PUSH1 0x68 SHL PUSH1 0x44 DUP3 ADD MSTORE PUSH1 0x64 SWAP1 REVERT JUMPDEST PUSH1 0x40 MLOAD PUSH3 0x461BCD PUSH1 0xE5 SHL DUP2 MSTORE PUSH1 0x4 DUP2 ADD DUP7 SWAP1 MSTORE PUSH1 0x11 PUSH1 0x24 DUP3 ADD MSTORE PUSH17 0x20B63932B0B23C903BB4BA34323930BBB7 PUSH1 0x79 SHL PUSH1 0x44 DUP3 ADD MSTORE PUSH1 0x64 SWAP1 REVERT JUMPDEST PUSH1 0x40 MLOAD PUSH3 0x461BCD PUSH1 0xE5 SHL DUP2 MSTORE PUSH1 0x4 DUP2 ADD DUP5 SWAP1 MSTORE PUSH1 0x18 PUSH1 0x24 DUP3 ADD MSTORE PUSH32 0x4E6F7420656E6F75676820636F6E6669726D6174696F6E730000000000000000 PUSH1 0x44 DUP3 ADD MSTORE PUSH1 0x64 SWAP1 REVERT JUMPDEST PUSH4 0x4E487B71 PUSH1 0xE0 SHL PUSH1 0x0 MSTORE PUSH1 0x11 PUSH1 0x4 MSTORE PUSH1 0x24 PUSH1 0x0 REVERT JUMPDEST CALLVALUE PUSH2 0x12C JUMPI PUSH1 0x80 CALLDATASIZE PUSH1 0x3 NOT ADD SLT PUSH2 0x12C JUMPI PUSH1 0x1 PUSH1 0x1 PUSH1 0x40 SHL SUB PUSH1 0x4 CALLDATALOAD PUSH1 0x24 CALLDATALOAD DUP3 DUP2 GT PUSH2 0x12C JUMPI PUSH2 0xA58 SWAP1 CALLDATASIZE SWAP1 PUSH1 0x4 ADD PUSH2 0x1EF7 JUMP JUMPDEST SWAP2 PUSH1 0x44 CALLDATALOAD SWAP1 PUSH1 0x64 CALLDATALOAD SWAP2 PUSH2 0xA6E PUSH1 0x4 SLOAD DUP6 LT PUSH2 0x1F92 JUMP JUMPDEST DUP4 PUSH1 0x0 MSTORE PUSH1 0x20 SWAP3 PUSH1 0x0 DUP5 MSTORE PUSH2 0xA91 PUSH1 0x1 DUP1 PUSH1 0xA0 SHL SUB PUSH1 0x40 PUSH1 0x0 KECCAK256 SLOAD AND CALLER EQ PUSH2 0x2030 JUMP JUMPDEST DUP1 ISZERO PUSH2 0xC41 JUMPI DUP5 PUSH1 0x0 MSTORE PUSH1 0x0 DUP5 MSTORE PUSH1 0x9 PUSH1 0x40 PUSH1 0x0 KECCAK256 ADD SWAP3 DUP4 SLOAD SWAP4 PUSH2 0xAB4 DUP6 PUSH2 0x1F6C JUMP JUMPDEST SWAP1 SSTORE DUP6 PUSH1 0x0 MSTORE PUSH1 0x1 DUP1 DUP7 MSTORE PUSH1 0x40 PUSH1 0x0 KECCAK256 DUP6 PUSH1 0x0 MSTORE DUP7 MSTORE PUSH1 0x40 PUSH1 0x0 KECCAK256 SWAP2 DUP9 MLOAD SWAP1 DUP2 GT PUSH2 0x4A9 JUMPI PUSH2 0xAE3 DUP4 SLOAD PUSH2 0x1CEF JUMP JUMPDEST PUSH1 0x1F DUP2 GT PUSH2 0xC06 JUMPI JUMPDEST POP DUP7 PUSH1 0x1F DUP3 GT PUSH1 0x1 EQ PUSH2 0xB7A JUMPI PUSH2 0xB5F SWAP4 DUP7 PUSH32 0x9A9D239B8ADB10007D5005BF50C7AA61972FAF2AEFF3E1EEFE642DD9E1487D97 SWAP11 SWAP12 SWAP5 DUP5 DUP9 SWAP6 PUSH1 0x4 SWAP6 PUSH1 0x0 SWAP2 PUSH2 0xB6F JUMPI JUMPDEST POP PUSH1 0x0 NOT PUSH1 0x3 DUP4 SWAP1 SHL SHR NOT AND SWAP1 DUP3 SHL OR DUP4 SSTORE JUMPDEST DUP3 ADD SSTORE ADD SSTORE PUSH1 0x80 PUSH1 0x40 MLOAD SWAP7 DUP8 SWAP7 DUP8 MSTORE DUP7 ADD MSTORE PUSH1 0x80 DUP6 ADD SWAP1 PUSH2 0x1E13 JUMP JUMPDEST SWAP2 PUSH1 0x40 DUP5 ADD MSTORE PUSH1 0x60 DUP4 ADD MSTORE SUB SWAP1 LOG2 STOP JUMPDEST SWAP1 POP DUP8 ADD MLOAD DUP16 PUSH2 0xB30 JUMP JUMPDEST PUSH1 0x1F NOT DUP3 AND SWAP1 DUP5 PUSH1 0x0 MSTORE DUP9 PUSH1 0x0 KECCAK256 SWAP2 PUSH1 0x0 JUMPDEST DUP2 DUP2 LT PUSH2 0xBF1 JUMPI POP DUP5 PUSH32 0x9A9D239B8ADB10007D5005BF50C7AA61972FAF2AEFF3E1EEFE642DD9E1487D97 SWAP12 SWAP13 SWAP6 DUP6 PUSH1 0x4 SWAP6 PUSH2 0xB5F SWAP10 SWAP6 DUP12 SWAP9 DUP14 SWAP7 LT PUSH2 0xBD8 JUMPI JUMPDEST POP POP DUP2 SHL ADD DUP4 SSTORE PUSH2 0xB43 JUMP JUMPDEST DUP10 ADD MLOAD PUSH1 0x0 NOT PUSH1 0xF8 DUP5 PUSH1 0x3 SHL AND SHR NOT AND SWAP1 SSTORE DUP16 DUP1 PUSH2 0xBCC JUMP JUMPDEST DUP13 DUP4 ADD MLOAD DUP5 SSTORE SWAP3 DUP6 ADD SWAP3 SWAP2 DUP11 ADD SWAP2 DUP11 ADD PUSH2 0xB8C JUMP JUMPDEST PUSH2 0xC31 SWAP1 DUP5 PUSH1 0x0 MSTORE DUP9 PUSH1 0x0 KECCAK256 PUSH1 0x1F DUP5 ADD PUSH1 0x5 SHR DUP2 ADD SWAP2 DUP11 DUP6 LT PUSH2 0xC37 JUMPI JUMPDEST PUSH1 0x1F ADD PUSH1 0x5 SHR ADD SWAP1 PUSH2 0x1F7B JUMP JUMPDEST DUP10 PUSH2 0xAEC JUMP JUMPDEST SWAP1 SWAP2 POP DUP2 SWAP1 PUSH2 0xC24 JUMP JUMPDEST PUSH1 0x40 MLOAD PUSH3 0x461BCD PUSH1 0xE5 SHL DUP2 MSTORE PUSH1 0x4 DUP2 ADD DUP6 SWAP1 MSTORE PUSH1 0x18 PUSH1 0x24 DUP3 ADD MSTORE PUSH32 0x4E656564206174206C65617374203120617070726F76616C0000000000000000 PUSH1 0x44 DUP3 ADD MSTORE PUSH1 0x64 SWAP1 REVERT JUMPDEST CALLVALUE PUSH2 0x12C JUMPI PUSH2 0xC94 CALLDATASIZE PUSH2 0x1E38 JUMP JUMPDEST SWAP1 PUSH1 0x0 MSTORE PUSH1 0x1 PUSH1 0x20 MSTORE PUSH1 0x40 PUSH1 0x0 KECCAK256 SWAP1 PUSH1 0x0 MSTORE PUSH1 0x20 MSTORE PUSH1 0x40 PUSH1 0x0 KECCAK256 PUSH1 0x1 DUP2 ADD SLOAD PUSH2 0x58A PUSH1 0x2 DUP4 ADD SLOAD PUSH1 0x3 DUP5 ADD SLOAD PUSH1 0x4 DUP6 ADD SLOAD SWAP1 PUSH2 0xCDB PUSH1 0x5 PUSH2 0xCD4 DUP9 PUSH2 0x1D4A JUMP JUMPDEST SWAP8 ADD PUSH2 0x1D4A JUMP JUMPDEST SWAP3 PUSH1 0x40 MLOAD SWAP7 DUP8 SWAP7 PUSH1 0xFF DUP1 DUP5 PUSH1 0x8 SHR AND SWAP4 AND SWAP2 DUP9 PUSH2 0x1E4E JUMP JUMPDEST CALLVALUE PUSH2 0x12C JUMPI PUSH2 0xD01 CALLDATASIZE PUSH2 0x1E38 JUMP JUMPDEST SWAP1 PUSH1 0x0 MSTORE PUSH1 0x3 PUSH1 0x20 MSTORE PUSH1 0x40 PUSH1 0x0 KECCAK256 DUP1 SLOAD DUP3 LT ISZERO PUSH2 0x12C JUMPI PUSH1 0x20 SWAP2 PUSH2 0xD24 SWAP2 PUSH2 0x1F3E JUMP JUMPDEST SWAP1 SLOAD PUSH1 0x40 MLOAD PUSH1 0x3 SWAP3 SWAP1 SWAP3 SHL SHR PUSH1 0x1 PUSH1 0x1 PUSH1 0xA0 SHL SUB AND DUP2 MSTORE RETURN JUMPDEST CALLVALUE PUSH2 0x12C JUMPI PUSH1 0x0 CALLDATASIZE PUSH1 0x3 NOT ADD SLT PUSH2 0x12C JUMPI PUSH1 0x20 PUSH1 0x4 SLOAD PUSH1 0x40 MLOAD SWAP1 DUP2 MSTORE RETURN JUMPDEST CALLVALUE PUSH2 0x12C JUMPI PUSH1 0x0 CALLDATASIZE PUSH1 0x3 NOT ADD SLT PUSH2 0x12C JUMPI PUSH1 0x20 SELFBALANCE PUSH1 0x40 MLOAD SWAP1 DUP2 MSTORE RETURN JUMPDEST CALLVALUE PUSH2 0x12C JUMPI PUSH1 0x60 CALLDATASIZE PUSH1 0x3 NOT ADD SLT PUSH2 0x12C JUMPI PUSH1 0x24 CALLDATALOAD PUSH1 0x4 CALLDATALOAD PUSH1 0x1 PUSH1 0x1 PUSH1 0x40 SHL SUB PUSH1 0x44 CALLDATALOAD DUP2 DUP2 GT PUSH2 0x12C JUMPI PUSH2 0xDAE SWAP1 CALLDATASIZE SWAP1 PUSH1 0x4 ADD PUSH2 0x1EF7 JUMP JUMPDEST SWAP3 PUSH2 0xDBC PUSH1 0x4 SLOAD DUP5 LT PUSH2 0x1F92 JUMP JUMPDEST DUP3 PUSH1 0x0 MSTORE PUSH1 0x20 SWAP2 PUSH1 0x0 DUP4 MSTORE PUSH2 0xDDF PUSH1 0x1 DUP1 PUSH1 0xA0 SHL SUB PUSH1 0x40 PUSH1 0x0 KECCAK256 SLOAD AND CALLER EQ PUSH2 0x2030 JUMP JUMPDEST DUP4 PUSH1 0x0 MSTORE PUSH1 0x1 SWAP1 DUP2 DUP5 MSTORE PUSH1 0x40 PUSH1 0x0 KECCAK256 DUP4 PUSH1 0x0 MSTORE DUP5 MSTORE PUSH1 0x5 PUSH1 0x40 PUSH1 0x0 KECCAK256 ADD SWAP2 DUP7 MLOAD SWAP2 DUP3 GT PUSH2 0x4A9 JUMPI PUSH2 0xE10 DUP4 SLOAD PUSH2 0x1CEF JUMP JUMPDEST PUSH1 0x1F DUP2 GT PUSH2 0xF16 JUMPI JUMPDEST POP DUP5 PUSH1 0x1F DUP4 GT PUSH1 0x1 EQ PUSH2 0xE8C JUMPI SWAP2 DUP1 DUP1 PUSH2 0x282 SWAP6 SWAP4 PUSH32 0xA242DC265EC329D765B4D1175EB5F3D36F052DA4B6BF61B340D71CA9846CA7A2 SWAP10 SWAP11 SWAP6 PUSH1 0x0 SWAP4 PUSH2 0xE81 JUMPI JUMPDEST POP SHL SWAP2 PUSH1 0x0 NOT SWAP1 PUSH1 0x3 SHL SHR NOT AND OR SWAP1 SSTORE JUMPDEST PUSH1 0x40 DUP1 MLOAD SWAP5 DUP6 SWAP5 DUP6 MSTORE DUP5 ADD MSTORE PUSH1 0x40 DUP4 ADD SWAP1 PUSH2 0x1E13 JUMP JUMPDEST DUP7 ADD MLOAD SWAP3 POP DUP12 PUSH2 0xE5A JUMP JUMPDEST PUSH1 0x1F SWAP3 SWAP2 SWAP3 NOT DUP3 AND SWAP1 DUP5 PUSH1 0x0 MSTORE DUP7 PUSH1 0x0 KECCAK256 SWAP2 PUSH1 0x0 JUMPDEST DUP2 DUP2 LT PUSH2 0xF01 JUMPI POP SWAP2 DUP4 SWAP2 PUSH2 0x282 SWAP7 SWAP5 PUSH32 0xA242DC265EC329D765B4D1175EB5F3D36F052DA4B6BF61B340D71CA9846CA7A2 SWAP11 SWAP12 SWAP7 SWAP5 LT PUSH2 0xEE8 JUMPI JUMPDEST POP POP DUP2 SHL ADD SWAP1 SSTORE PUSH2 0xE6B JUMP JUMPDEST DUP6 ADD MLOAD PUSH1 0x0 NOT PUSH1 0xF8 DUP5 PUSH1 0x3 SHL AND SHR NOT AND SWAP1 SSTORE DUP10 DUP1 PUSH2 0xEDC JUMP JUMPDEST DUP11 DUP4 ADD MLOAD DUP5 SSTORE SWAP3 DUP6 ADD SWAP3 SWAP2 DUP9 ADD SWAP2 DUP9 ADD PUSH2 0xEA1 JUMP JUMPDEST PUSH2 0xF40 SWAP1 DUP5 PUSH1 0x0 MSTORE DUP7 PUSH1 0x0 KECCAK256 PUSH1 0x1F DUP6 ADD PUSH1 0x5 SHR DUP2 ADD SWAP2 DUP9 DUP7 LT PUSH2 0xC37 JUMPI PUSH1 0x1F ADD PUSH1 0x5 SHR ADD SWAP1 PUSH2 0x1F7B JUMP JUMPDEST DUP8 PUSH2 0xE19 JUMP JUMPDEST CALLVALUE PUSH2 0x12C JUMPI PUSH1 0x20 DUP1 PUSH1 0x3 NOT CALLDATASIZE ADD SLT PUSH2 0x12C JUMPI PUSH1 0x4 CALLDATALOAD SWAP1 PUSH2 0xF69 PUSH1 0x4 SLOAD DUP4 LT PUSH2 0x1F92 JUMP JUMPDEST DUP2 PUSH1 0x0 MSTORE PUSH1 0x0 DUP2 MSTORE PUSH1 0x40 PUSH1 0x0 KECCAK256 PUSH1 0x6 DUP2 ADD SLOAD TIMESTAMP GT ISZERO PUSH2 0x110D JUMPI PUSH1 0x7 DUP2 ADD SWAP1 DUP2 SLOAD PUSH1 0x5 DUP3 ADD SLOAD GT DUP1 ISZERO PUSH2 0x10FC JUMPI JUMPDEST ISZERO PUSH2 0x10B7 JUMPI PUSH1 0x8 ADD SLOAD PUSH1 0xFF AND PUSH2 0x1072 JUMPI DUP3 PUSH1 0x0 MSTORE PUSH1 0x2 DUP3 MSTORE PUSH1 0x40 PUSH1 0x0 KECCAK256 CALLER PUSH1 0x0 MSTORE DUP3 MSTORE PUSH1 0x40 PUSH1 0x0 KECCAK256 SLOAD SWAP2 DUP3 ISZERO PUSH2 0x1036 JUMPI DUP4 PUSH1 0x0 MSTORE PUSH1 0x2 DUP2 MSTORE PUSH1 0x40 PUSH1 0x0 KECCAK256 SWAP1 CALLER PUSH1 0x0 MSTORE MSTORE PUSH1 0x0 PUSH1 0x40 DUP2 KECCAK256 SSTORE PUSH2 0xFEB DUP3 DUP3 SLOAD PUSH2 0x1FEB JUMP JUMPDEST SWAP1 SSTORE PUSH1 0x0 DUP1 DUP1 DUP1 DUP5 CALLER DUP3 CALL ISZERO PUSH2 0x949 JUMPI PUSH1 0x40 DUP1 MLOAD CALLER DUP2 MSTORE PUSH1 0x20 DUP2 ADD SWAP3 SWAP1 SWAP3 MSTORE PUSH32 0x7A482FDEB6BC9A1376F597068A214A7A39472BB2EFF1B8CAD21BA04F49DDCA1B SWAP2 SWAP1 DUP2 SWAP1 DUP2 ADD PUSH2 0x282 JUMP JUMPDEST PUSH1 0x64 SWAP1 PUSH1 0x40 MLOAD SWAP1 PUSH3 0x461BCD PUSH1 0xE5 SHL DUP3 MSTORE PUSH1 0x4 DUP3 ADD MSTORE PUSH1 0x15 PUSH1 0x24 DUP3 ADD MSTORE PUSH21 0x139BC8191BDB985D1A5BDB881D1BC81C99599D5B99 PUSH1 0x5A SHL PUSH1 0x44 DUP3 ADD MSTORE REVERT JUMPDEST PUSH1 0x40 MLOAD PUSH3 0x461BCD PUSH1 0xE5 SHL DUP2 MSTORE PUSH1 0x4 DUP2 ADD DUP4 SWAP1 MSTORE PUSH1 0x17 PUSH1 0x24 DUP3 ADD MSTORE PUSH32 0x416C72656164792066756C6C792077697468647261776E000000000000000000 PUSH1 0x44 DUP3 ADD MSTORE PUSH1 0x64 SWAP1 REVERT JUMPDEST PUSH1 0x40 MLOAD PUSH3 0x461BCD PUSH1 0xE5 SHL DUP2 MSTORE PUSH1 0x4 DUP2 ADD DUP5 SWAP1 MSTORE PUSH1 0x17 PUSH1 0x24 DUP3 ADD MSTORE PUSH32 0x4E6F7420656C696769626C6520666F7220726566756E64000000000000000000 PUSH1 0x44 DUP3 ADD MSTORE PUSH1 0x64 SWAP1 REVERT JUMPDEST POP PUSH1 0xFF PUSH1 0x8 DUP3 ADD SLOAD PUSH1 0x10 SHR AND PUSH2 0xF96 JUMP JUMPDEST PUSH1 0x40 MLOAD PUSH3 0x461BCD PUSH1 0xE5 SHL DUP2 MSTORE PUSH1 0x4 DUP2 ADD DUP4 SWAP1 MSTORE PUSH1 0x15 PUSH1 0x24 DUP3 ADD MSTORE PUSH21 0x43616D706169676E207374696C6C20616374697665 PUSH1 0x58 SHL PUSH1 0x44 DUP3 ADD MSTORE PUSH1 0x64 SWAP1 REVERT JUMPDEST CALLVALUE PUSH2 0x12C JUMPI PUSH1 0xE0 CALLDATASIZE PUSH1 0x3 NOT ADD SLT PUSH2 0x12C JUMPI PUSH1 0x4 CALLDATALOAD PUSH1 0x1 PUSH1 0x1 PUSH1 0x40 SHL SUB DUP2 GT PUSH2 0x12C JUMPI PUSH2 0x117A SWAP1 CALLDATASIZE SWAP1 PUSH1 0x4 ADD PUSH2 0x1EF7 JUMP JUMPDEST PUSH1 0x24 CALLDATALOAD PUSH1 0x1 PUSH1 0x1 PUSH1 0x40 SHL SUB DUP2 GT PUSH2 0x12C JUMPI PUSH2 0x1199 SWAP1 CALLDATASIZE SWAP1 PUSH1 0x4 ADD PUSH2 0x1EF7 JUMP JUMPDEST SWAP1 PUSH1 0x44 CALLDATALOAD PUSH1 0x1 PUSH1 0x1 PUSH1 0x40 SHL SUB DUP2 GT PUSH2 0x12C JUMPI PUSH2 0x11B9 SWAP1 CALLDATASIZE SWAP1 PUSH1 0x4 ADD PUSH2 0x1EF7 JUMP JUMPDEST SWAP1 PUSH1 0xA4 CALLDATALOAD PUSH1 0x1 PUSH1 0x1 PUSH1 0x40 SHL SUB DUP2 GT PUSH2 0x12C JUMPI PUSH2 0x11D9 SWAP1 CALLDATASIZE SWAP1 PUSH1 0x4 ADD PUSH2 0x1EF7 JUMP JUMPDEST SWAP3 PUSH1 0xC4 CALLDATALOAD SWAP1 PUSH1 0x1 PUSH1 0x1 PUSH1 0x40 SHL SUB DUP3 GT PUSH2 0x12C JUMPI CALLDATASIZE PUSH1 0x23 DUP4 ADD SLT ISZERO PUSH2 0x12C JUMPI DUP2 PUSH1 0x4 ADD CALLDATALOAD SWAP5 PUSH1 0x1 PUSH1 0x1 PUSH1 0x40 SHL SUB DUP7 GT PUSH2 0x4A9 JUMPI DUP6 PUSH1 0x5 SHL SWAP3 PUSH1 0x40 MLOAD SWAP7 PUSH2 0x1221 PUSH1 0x20 DUP7 ADD DUP10 PUSH2 0x1D29 JUMP JUMPDEST DUP8 MSTORE PUSH1 0x20 DUP8 ADD SWAP1 PUSH1 0x24 DUP3 SWAP6 DUP3 ADD ADD SWAP1 CALLDATASIZE DUP3 GT PUSH2 0x12C JUMPI PUSH1 0x24 ADD SWAP2 JUMPDEST DUP2 DUP4 LT PUSH2 0x1817 JUMPI POP POP POP TIMESTAMP PUSH1 0x84 CALLDATALOAD GT ISZERO PUSH2 0x17D2 JUMPI PUSH1 0x64 CALLDATALOAD ISZERO PUSH2 0x1798 JUMPI PUSH1 0x4 SLOAD SWAP5 PUSH2 0x1265 DUP7 PUSH2 0x1F6C JUMP JUMPDEST PUSH1 0x4 SSTORE DUP6 PUSH1 0x0 MSTORE PUSH1 0x0 PUSH1 0x20 MSTORE PUSH1 0x40 PUSH1 0x0 KECCAK256 SWAP3 CALLER PUSH12 0xFFFFFFFFFFFFFFFFFFFFFFFF PUSH1 0xA0 SHL DUP6 SLOAD AND OR DUP5 SSTORE DUP6 MLOAD PUSH1 0x1 PUSH1 0x1 PUSH1 0x40 SHL SUB DUP2 GT PUSH2 0x4A9 JUMPI PUSH2 0x12AB PUSH1 0x1 DUP7 ADD SLOAD PUSH2 0x1CEF JUMP JUMPDEST PUSH1 0x1F DUP2 GT PUSH2 0x1763 JUMPI JUMPDEST POP DUP1 PUSH1 0x20 PUSH1 0x1F DUP3 GT PUSH1 0x1 EQ PUSH2 0x16F6 JUMPI PUSH1 0x0 SWAP2 PUSH2 0x16EB JUMPI JUMPDEST POP DUP2 PUSH1 0x1 SHL SWAP2 PUSH1 0x0 NOT SWAP1 PUSH1 0x3 SHL SHR NOT AND OR PUSH1 0x1 DUP6 ADD SSTORE JUMPDEST DUP1 MLOAD SWAP1 PUSH1 0x1 PUSH1 0x1 PUSH1 0x40 SHL SUB DUP3 GT PUSH2 0x4A9 JUMPI DUP2 SWAP1 PUSH2 0x1302 PUSH1 0x2 DUP8 ADD SLOAD PUSH2 0x1CEF JUMP JUMPDEST PUSH1 0x1F DUP2 GT PUSH2 0x16B6 JUMPI JUMPDEST POP PUSH1 0x20 SWAP1 PUSH1 0x1F DUP4 GT PUSH1 0x1 EQ PUSH2 0x1644 JUMPI PUSH1 0x0 SWAP3 PUSH2 0x1639 JUMPI JUMPDEST POP POP DUP2 PUSH1 0x1 SHL SWAP2 PUSH1 0x0 NOT SWAP1 PUSH1 0x3 SHL SHR NOT AND OR PUSH1 0x2 DUP5 ADD SSTORE JUMPDEST DUP1 MLOAD SWAP1 PUSH1 0x1 PUSH1 0x1 PUSH1 0x40 SHL SUB DUP3 GT PUSH2 0x4A9 JUMPI DUP2 SWAP1 PUSH2 0x135A PUSH1 0x3 DUP7 ADD SLOAD PUSH2 0x1CEF JUMP JUMPDEST PUSH1 0x1F DUP2 GT PUSH2 0x1604 JUMPI JUMPDEST POP PUSH1 0x20 SWAP1 PUSH1 0x1F DUP4 GT PUSH1 0x1 EQ PUSH2 0x1592 JUMPI PUSH1 0x0 SWAP3 PUSH2 0x1587 JUMPI JUMPDEST POP POP DUP2 PUSH1 0x1 SHL SWAP2 PUSH1 0x0 NOT SWAP1 PUSH1 0x3 SHL SHR NOT AND OR PUSH1 0x3 DUP4 ADD SSTORE JUMPDEST DUP1 MLOAD SWAP1 PUSH1 0x1 PUSH1 0x1 PUSH1 0x40 SHL SUB DUP3 GT PUSH2 0x4A9 JUMPI PUSH2 0x13B0 PUSH1 0x4 DUP5 ADD SLOAD PUSH2 0x1CEF JUMP JUMPDEST PUSH1 0x1F DUP2 GT PUSH2 0x1552 JUMPI JUMPDEST POP PUSH1 0x20 SWAP1 PUSH1 0x1F DUP4 GT PUSH1 0x1 EQ PUSH2 0x14DF JUMPI PUSH1 0xB SWAP4 SWAP3 SWAP2 PUSH1 0x0 SWAP2 DUP4 PUSH2 0x14D4 JUMPI JUMPDEST POP POP DUP2 PUSH1 0x1 SHL SWAP2 PUSH1 0x0 NOT SWAP1 PUSH1 0x3 SHL SHR NOT AND OR PUSH1 0x4 DUP3 ADD SSTORE JUMPDEST PUSH1 0x64 CALLDATALOAD PUSH1 0x5 DUP3 ADD SSTORE PUSH1 0x84 CALLDATALOAD PUSH1 0x6 DUP3 ADD SSTORE ADD SWAP4 MLOAD SWAP1 PUSH1 0x1 PUSH1 0x1 PUSH1 0x40 SHL SUB DUP3 GT PUSH2 0x4A9 JUMPI PUSH1 0x1 PUSH1 0x40 SHL DUP3 GT PUSH2 0x4A9 JUMPI DUP5 SLOAD DUP3 DUP7 SSTORE DUP1 DUP4 LT PUSH2 0x14B6 JUMPI JUMPDEST POP SWAP4 PUSH1 0x0 MSTORE PUSH1 0x20 PUSH1 0x0 KECCAK256 PUSH1 0x0 JUMPDEST DUP3 DUP2 LT PUSH2 0x1499 JUMPI PUSH1 0x20 DUP6 DUP1 PUSH32 0xDC26653AF5B99B2DA33E2AD69EE6600D9AECCC82B034501DB4338309615CA238 PUSH2 0x147E DUP9 PUSH1 0x40 MLOAD SWAP2 DUP3 SWAP2 CALLER DUP4 MSTORE PUSH1 0x80 DUP9 DUP5 ADD MSTORE PUSH1 0x80 DUP4 ADD SWAP1 PUSH2 0x1E13 JUMP JUMPDEST PUSH1 0x64 CALLDATALOAD PUSH1 0x40 DUP4 ADD MSTORE PUSH1 0x84 CALLDATALOAD PUSH1 0x60 DUP4 ADD MSTORE SUB SWAP1 LOG2 PUSH1 0x40 MLOAD SWAP1 DUP2 MSTORE RETURN JUMPDEST DUP6 MLOAD PUSH1 0x1 PUSH1 0x1 PUSH1 0xA0 SHL SUB AND DUP2 DUP4 ADD SSTORE PUSH1 0x20 SWAP1 SWAP6 ADD SWAP5 PUSH1 0x1 ADD PUSH2 0x1435 JUMP JUMPDEST PUSH2 0x14CE SWAP1 DUP7 PUSH1 0x0 MSTORE DUP4 PUSH1 0x20 PUSH1 0x0 KECCAK256 SWAP2 DUP3 ADD SWAP2 ADD PUSH2 0x1F7B JUMP JUMPDEST DUP6 PUSH2 0x1428 JUMP JUMPDEST ADD MLOAD SWAP1 POP DUP9 DUP1 PUSH2 0x13D6 JUMP JUMPDEST SWAP1 PUSH1 0x4 DUP5 ADD PUSH1 0x0 MSTORE PUSH1 0x20 PUSH1 0x0 KECCAK256 SWAP2 PUSH1 0x0 JUMPDEST PUSH1 0x1F NOT DUP6 AND DUP2 LT PUSH2 0x153A JUMPI POP SWAP2 DUP4 SWAP2 PUSH1 0x1 SWAP4 PUSH1 0xB SWAP7 SWAP6 PUSH1 0x1F NOT DUP2 AND LT PUSH2 0x1521 JUMPI JUMPDEST POP POP POP DUP2 SHL ADD PUSH1 0x4 DUP3 ADD SSTORE PUSH2 0x13EE JUMP JUMPDEST ADD MLOAD PUSH1 0x0 NOT PUSH1 0xF8 DUP5 PUSH1 0x3 SHL AND SHR NOT AND SWAP1 SSTORE DUP9 DUP1 DUP1 PUSH2 0x1511 JUMP JUMPDEST SWAP2 SWAP3 PUSH1 0x20 PUSH1 0x1 DUP2 SWAP3 DUP7 DUP6 ADD MLOAD DUP2 SSTORE ADD SWAP5 ADD SWAP3 ADD PUSH2 0x14F0 JUMP JUMPDEST PUSH2 0x1581 SWAP1 PUSH1 0x4 DUP6 ADD PUSH1 0x0 MSTORE PUSH1 0x20 PUSH1 0x0 KECCAK256 PUSH1 0x1F DUP6 ADD PUSH1 0x5 SHR DUP2 ADD SWAP2 PUSH1 0x20 DUP7 LT PUSH2 0xC37 JUMPI PUSH1 0x1F ADD PUSH1 0x5 SHR ADD SWAP1 PUSH2 0x1F7B JUMP JUMPDEST DUP8 PUSH2 0x13B9 JUMP JUMPDEST ADD MLOAD SWAP1 POP DUP9 DUP1 PUSH2 0x137A JUMP JUMPDEST SWAP3 POP PUSH1 0x3 DUP6 ADD PUSH1 0x0 MSTORE PUSH1 0x20 PUSH1 0x0 KECCAK256 SWAP1 PUSH1 0x0 SWAP4 JUMPDEST PUSH1 0x1F NOT DUP5 AND DUP6 LT PUSH2 0x15E9 JUMPI PUSH1 0x1 SWAP5 POP DUP4 PUSH1 0x1F NOT DUP2 AND LT PUSH2 0x15D0 JUMPI JUMPDEST POP POP POP DUP2 SHL ADD PUSH1 0x3 DUP4 ADD SSTORE PUSH2 0x1392 JUMP JUMPDEST ADD MLOAD PUSH1 0x0 NOT PUSH1 0xF8 DUP5 PUSH1 0x3 SHL AND SHR NOT AND SWAP1 SSTORE DUP9 DUP1 DUP1 PUSH2 0x15C0 JUMP JUMPDEST DUP2 DUP2 ADD MLOAD DUP4 SSTORE PUSH1 0x20 SWAP5 DUP6 ADD SWAP5 PUSH1 0x1 SWAP1 SWAP4 ADD SWAP3 SWAP1 SWAP2 ADD SWAP1 PUSH2 0x15A5 JUMP JUMPDEST PUSH2 0x1633 SWAP1 PUSH1 0x3 DUP8 ADD PUSH1 0x0 MSTORE PUSH1 0x20 PUSH1 0x0 KECCAK256 PUSH1 0x1F DUP6 ADD PUSH1 0x5 SHR DUP2 ADD SWAP2 PUSH1 0x20 DUP7 LT PUSH2 0xC37 JUMPI PUSH1 0x1F ADD PUSH1 0x5 SHR ADD SWAP1 PUSH2 0x1F7B JUMP JUMPDEST DUP10 PUSH2 0x1363 JUMP JUMPDEST ADD MLOAD SWAP1 POP DUP10 DUP1 PUSH2 0x1322 JUMP JUMPDEST SWAP3 POP PUSH1 0x2 DUP7 ADD PUSH1 0x0 MSTORE PUSH1 0x20 PUSH1 0x0 KECCAK256 SWAP1 PUSH1 0x0 SWAP4 JUMPDEST PUSH1 0x1F NOT DUP5 AND DUP6 LT PUSH2 0x169B JUMPI PUSH1 0x1 SWAP5 POP DUP4 PUSH1 0x1F NOT DUP2 AND LT PUSH2 0x1682 JUMPI JUMPDEST POP POP POP DUP2 SHL ADD PUSH1 0x2 DUP5 ADD SSTORE PUSH2 0x133A JUMP JUMPDEST ADD MLOAD PUSH1 0x0 NOT PUSH1 0xF8 DUP5 PUSH1 0x3 SHL AND SHR NOT AND SWAP1 SSTORE DUP10 DUP1 DUP1 PUSH2 0x1672 JUMP JUMPDEST DUP2 DUP2 ADD MLOAD DUP4 SSTORE PUSH1 0x20 SWAP5 DUP6 ADD SWAP5 PUSH1 0x1 SWAP1 SWAP4 ADD SWAP3 SWAP1 SWAP2 ADD SWAP1 PUSH2 0x1657 JUMP JUMPDEST PUSH2 0x16E5 SWAP1 PUSH1 0x2 DUP9 ADD PUSH1 0x0 MSTORE PUSH1 0x20 PUSH1 0x0 KECCAK256 PUSH1 0x1F DUP6 ADD PUSH1 0x5 SHR DUP2 ADD SWAP2 PUSH1 0x20 DUP7 LT PUSH2 0xC37 JUMPI PUSH1 0x1F ADD PUSH1 0x5 SHR ADD SWAP1 PUSH2 0x1F7B JUMP JUMPDEST DUP11 PUSH2 0x130B JUMP JUMPDEST SWAP1 POP DUP8 ADD MLOAD DUP11 PUSH2 0x12CB JUMP JUMPDEST SWAP2 POP PUSH1 0x1 DUP7 ADD PUSH1 0x0 MSTORE PUSH1 0x20 PUSH1 0x0 KECCAK256 PUSH1 0x0 SWAP3 JUMPDEST PUSH1 0x1F NOT DUP4 AND DUP5 LT PUSH2 0x174B JUMPI PUSH1 0x1 SWAP4 POP DUP3 PUSH1 0x1F NOT DUP2 AND LT PUSH2 0x1732 JUMPI JUMPDEST POP POP DUP2 SHL ADD PUSH1 0x1 DUP6 ADD SSTORE PUSH2 0x12E2 JUMP JUMPDEST DUP10 ADD MLOAD PUSH1 0x0 NOT PUSH1 0xF8 DUP5 PUSH1 0x3 SHL AND SHR NOT AND SWAP1 SSTORE DUP11 DUP1 PUSH2 0x1723 JUMP JUMPDEST DUP10 DUP2 ADD MLOAD DUP3 SSTORE PUSH1 0x20 SWAP4 DUP5 ADD SWAP4 PUSH1 0x1 SWAP1 SWAP3 ADD SWAP2 ADD PUSH2 0x1708 JUMP JUMPDEST PUSH2 0x1792 SWAP1 PUSH1 0x1 DUP8 ADD PUSH1 0x0 MSTORE PUSH1 0x20 PUSH1 0x0 KECCAK256 PUSH1 0x1F DUP5 ADD PUSH1 0x5 SHR DUP2 ADD SWAP2 PUSH1 0x20 DUP6 LT PUSH2 0xC37 JUMPI PUSH1 0x1F ADD PUSH1 0x5 SHR ADD SWAP1 PUSH2 0x1F7B JUMP JUMPDEST DUP10 PUSH2 0x12B4 JUMP JUMPDEST PUSH1 0x40 MLOAD PUSH3 0x461BCD PUSH1 0xE5 SHL DUP2 MSTORE PUSH1 0x20 PUSH1 0x4 DUP3 ADD MSTORE PUSH1 0x12 PUSH1 0x24 DUP3 ADD MSTORE PUSH18 0x546172676574206D757374206265203E203 PUSH1 0x74 SHL PUSH1 0x44 DUP3 ADD MSTORE PUSH1 0x64 SWAP1 REVERT JUMPDEST PUSH1 0x40 MLOAD PUSH3 0x461BCD PUSH1 0xE5 SHL DUP2 MSTORE PUSH1 0x20 PUSH1 0x4 DUP3 ADD MSTORE PUSH1 0x1A PUSH1 0x24 DUP3 ADD MSTORE PUSH32 0x446561646C696E65206D75737420626520696E20667574757265000000000000 PUSH1 0x44 DUP3 ADD MSTORE PUSH1 0x64 SWAP1 REVERT JUMPDEST DUP3 CALLDATALOAD PUSH1 0x1 PUSH1 0x1 PUSH1 0xA0 SHL SUB DUP2 AND DUP2 SUB PUSH2 0x12C JUMPI DUP2 MSTORE PUSH1 0x20 SWAP3 DUP4 ADD SWAP3 ADD PUSH2 0x123C JUMP JUMPDEST CALLVALUE PUSH2 0x12C JUMPI PUSH1 0x20 CALLDATASIZE PUSH1 0x3 NOT ADD SLT PUSH2 0x12C JUMPI PUSH1 0x4 CALLDATALOAD PUSH2 0x1860 PUSH1 0x1 DUP1 PUSH1 0xA0 SHL SUB PUSH1 0x5 SLOAD AND CALLER EQ PUSH2 0x1FF8 JUMP JUMPDEST PUSH2 0x186D PUSH1 0x4 SLOAD DUP3 LT PUSH2 0x1F92 JUMP JUMPDEST DUP1 PUSH1 0x0 MSTORE PUSH1 0x0 PUSH1 0x20 MSTORE PUSH1 0x8 PUSH1 0x40 PUSH1 0x0 KECCAK256 ADD PUSH3 0x10000 PUSH3 0xFF0000 NOT DUP3 SLOAD AND OR SWAP1 SSTORE PUSH32 0x1FD9D9D9F159BBB346CBE96D08DF5B61108B672FA79A2D53FB9C67B9717D273 PUSH1 0x0 DUP1 LOG2 STOP JUMPDEST CALLVALUE PUSH2 0x12C JUMPI PUSH1 0x20 DUP1 PUSH1 0x3 NOT CALLDATASIZE ADD SLT PUSH2 0x12C JUMPI PUSH1 0x4 CALLDATALOAD PUSH1 0x0 MSTORE PUSH1 0x3 DUP2 MSTORE PUSH1 0x40 PUSH1 0x0 KECCAK256 SWAP1 PUSH1 0x40 MLOAD SWAP1 DUP2 DUP2 DUP5 SLOAD SWAP2 DUP3 DUP2 MSTORE ADD SWAP4 PUSH1 0x0 MSTORE DUP2 PUSH1 0x0 KECCAK256 SWAP2 PUSH1 0x0 SWAP1 JUMPDEST DUP3 DUP3 LT PUSH2 0x1907 JUMPI PUSH2 0x58A DUP6 PUSH2 0x57E DUP2 DUP10 SUB DUP3 PUSH2 0x1D29 JUMP JUMPDEST DUP4 SLOAD PUSH1 0x1 PUSH1 0x1 PUSH1 0xA0 SHL SUB AND DUP7 MSTORE SWAP5 DUP6 ADD SWAP5 PUSH1 0x1 SWAP4 DUP5 ADD SWAP4 SWAP1 SWAP2 ADD SWAP1 PUSH2 0x18F0 JUMP JUMPDEST CALLVALUE PUSH2 0x12C JUMPI PUSH2 0x1935 CALLDATASIZE PUSH2 0x1E38 JUMP JUMPDEST SWAP1 PUSH2 0x1943 PUSH1 0x4 SLOAD DUP3 LT PUSH2 0x1F92 JUMP JUMPDEST DUP1 PUSH1 0x0 MSTORE PUSH1 0x20 PUSH1 0x2 DUP2 MSTORE PUSH1 0x40 PUSH1 0x0 KECCAK256 CALLER PUSH1 0x0 MSTORE DUP2 MSTORE PUSH1 0x40 PUSH1 0x0 KECCAK256 SLOAD ISZERO PUSH2 0x1B2D JUMPI DUP2 PUSH1 0x0 MSTORE PUSH1 0x0 DUP2 MSTORE PUSH1 0x9 PUSH1 0x40 PUSH1 0x0 KECCAK256 ADD SLOAD DUP4 LT ISZERO PUSH2 0x1AF2 JUMPI DUP2 PUSH1 0x0 MSTORE PUSH1 0x1 DUP2 MSTORE PUSH1 0x40 PUSH1 0x0 KECCAK256 DUP4 PUSH1 0x0 MSTORE DUP2 MSTORE PUSH1 0x40 PUSH1 0x0 KECCAK256 SWAP2 PUSH1 0x4 DUP4 ADD SWAP1 DUP2 SLOAD ISZERO PUSH2 0x1AAD JUMPI PUSH1 0x6 DUP5 ADD SWAP5 CALLER PUSH1 0x0 MSTORE DUP6 DUP5 MSTORE PUSH1 0xFF PUSH1 0x40 PUSH1 0x0 KECCAK256 SLOAD AND PUSH2 0x1A78 JUMPI PUSH1 0x2 DUP6 ADD SWAP6 PUSH1 0xFF DUP8 SLOAD AND PUSH2 0x1A33 JUMPI PUSH32 0x9FFBB52F2A1362273CD74689A516CA4F52C4282DC13E2E68B7E0646A9A7AF7A3 SWAP2 PUSH1 0x40 SWAP2 CALLER PUSH1 0x0 MSTORE DUP7 MSTORE PUSH1 0x3 DUP3 PUSH1 0x0 KECCAK256 SWAP8 PUSH1 0xFF NOT SWAP9 PUSH1 0x1 DUP11 DUP3 SLOAD AND OR SWAP1 SSTORE ADD SWAP6 PUSH2 0x1A12 DUP8 SLOAD PUSH2 0x1F6C JUMP JUMPDEST DUP1 SWAP8 SSTORE DUP3 MLOAD SWAP2 DUP3 MSTORE CALLER SWAP1 DUP3 ADD MSTORE LOG2 SLOAD GT ISZERO PUSH2 0x1A29 JUMPI STOP JUMPDEST DUP2 SLOAD AND PUSH1 0x1 OR SWAP1 SSTORE STOP JUMPDEST PUSH1 0x40 MLOAD PUSH3 0x461BCD PUSH1 0xE5 SHL DUP2 MSTORE PUSH1 0x4 DUP2 ADD DUP7 SWAP1 MSTORE PUSH1 0x1A PUSH1 0x24 DUP3 ADD MSTORE PUSH32 0x4D696C6573746F6E6520616C726561647920617070726F766564000000000000 PUSH1 0x44 DUP3 ADD MSTORE PUSH1 0x64 SWAP1 REVERT JUMPDEST PUSH1 0x40 MLOAD PUSH3 0x461BCD PUSH1 0xE5 SHL DUP2 MSTORE PUSH1 0x4 DUP2 ADD DUP6 SWAP1 MSTORE PUSH1 0xD PUSH1 0x24 DUP3 ADD MSTORE PUSH13 0x105B1C9958591E481D9BDD1959 PUSH1 0x9A SHL PUSH1 0x44 DUP3 ADD MSTORE PUSH1 0x64 SWAP1 REVERT JUMPDEST PUSH1 0x40 MLOAD PUSH3 0x461BCD PUSH1 0xE5 SHL DUP2 MSTORE PUSH1 0x4 DUP2 ADD DUP5 SWAP1 MSTORE PUSH1 0x19 PUSH1 0x24 DUP3 ADD MSTORE PUSH32 0x4D696C6573746F6E65206E6F7420696E697469616C697A656400000000000000 PUSH1 0x44 DUP3 ADD MSTORE PUSH1 0x64 SWAP1 REVERT JUMPDEST PUSH1 0x64 SWAP1 PUSH1 0x40 MLOAD SWAP1 PUSH3 0x461BCD PUSH1 0xE5 SHL DUP3 MSTORE PUSH1 0x4 DUP3 ADD MSTORE PUSH1 0x14 PUSH1 0x24 DUP3 ADD MSTORE PUSH20 0x125B9D985B1A59081B5A5B195CDD1BDB99481251 PUSH1 0x62 SHL PUSH1 0x44 DUP3 ADD MSTORE REVERT JUMPDEST PUSH1 0x64 SWAP1 PUSH1 0x40 MLOAD SWAP1 PUSH3 0x461BCD PUSH1 0xE5 SHL DUP3 MSTORE PUSH1 0x4 DUP3 ADD MSTORE PUSH1 0x17 PUSH1 0x24 DUP3 ADD MSTORE PUSH32 0x4D757374206265206120646F6E6F7220746F20766F7465000000000000000000 PUSH1 0x44 DUP3 ADD MSTORE REVERT JUMPDEST CALLVALUE PUSH2 0x12C JUMPI PUSH2 0x1B7F CALLDATASIZE PUSH2 0x1E38 JUMP JUMPDEST SWAP1 PUSH1 0x0 MSTORE PUSH1 0x1 PUSH1 0x20 MSTORE PUSH1 0x40 PUSH1 0x0 KECCAK256 SWAP1 PUSH1 0x0 MSTORE PUSH1 0x20 MSTORE PUSH1 0x40 PUSH1 0x0 KECCAK256 PUSH2 0x1BA2 DUP2 PUSH2 0x1D4A JUMP JUMPDEST SWAP1 PUSH2 0x58A PUSH1 0x1 DUP3 ADD SLOAD SWAP2 PUSH1 0x2 DUP2 ADD SLOAD SWAP1 PUSH1 0x3 DUP2 ADD SLOAD PUSH2 0xCDB PUSH1 0x5 PUSH1 0x4 DUP5 ADD SLOAD SWAP4 ADD PUSH2 0x1D4A JUMP JUMPDEST CALLVALUE PUSH2 0x12C JUMPI PUSH1 0x20 CALLDATASIZE PUSH1 0x3 NOT ADD SLT PUSH2 0x12C JUMPI PUSH1 0x4 CALLDATALOAD PUSH1 0x0 SWAP1 DUP2 MSTORE PUSH1 0x20 DUP2 SWAP1 MSTORE PUSH1 0x40 SWAP1 KECCAK256 DUP1 SLOAD PUSH1 0x1 PUSH1 0x1 PUSH1 0xA0 SHL SUB AND PUSH2 0x1C01 PUSH1 0x1 DUP4 ADD PUSH2 0x1D4A JUMP JUMPDEST SWAP2 PUSH2 0x1C0E PUSH1 0x2 DUP3 ADD PUSH2 0x1D4A JUMP JUMPDEST PUSH2 0x1C1A PUSH1 0x3 DUP4 ADD PUSH2 0x1D4A JUMP JUMPDEST SWAP2 PUSH2 0x1C27 PUSH1 0x4 DUP3 ADD PUSH2 0x1D4A JUMP JUMPDEST SWAP3 PUSH1 0x5 DUP3 ADD SLOAD SWAP4 PUSH1 0x6 DUP4 ADD SLOAD PUSH1 0x7 DUP5 ADD SLOAD SWAP1 PUSH1 0x8 DUP6 ADD SLOAD SWAP3 PUSH1 0x9 DUP7 ADD SLOAD SWAP5 PUSH1 0xA DUP8 ADD SLOAD SWAP7 PUSH1 0xD ADD SLOAD SWAP8 PUSH1 0x40 MLOAD SWAP12 DUP13 SWAP12 DUP13 MSTORE DUP12 PUSH2 0x1C0 PUSH1 0x20 DUP2 SWAP3 ADD MSTORE DUP13 ADD PUSH2 0x1C6D SWAP2 PUSH2 0x1E13 JUMP JUMPDEST DUP12 DUP2 SUB PUSH1 0x40 DUP14 ADD MSTORE PUSH2 0x1C7E SWAP2 PUSH2 0x1E13 JUMP JUMPDEST DUP11 DUP2 SUB PUSH1 0x60 DUP13 ADD MSTORE PUSH2 0x1C8F SWAP2 PUSH2 0x1E13 JUMP JUMPDEST DUP10 DUP2 SUB PUSH1 0x80 DUP12 ADD MSTORE PUSH2 0x1CA0 SWAP2 PUSH2 0x1E13 JUMP JUMPDEST SWAP7 PUSH1 0xA0 DUP10 ADD MSTORE PUSH1 0xC0 DUP9 ADD MSTORE PUSH1 0xE0 DUP8 ADD MSTORE PUSH1 0xFF DUP2 AND ISZERO ISZERO PUSH2 0x100 DUP8 ADD MSTORE DUP1 PUSH1 0x8 SHR PUSH1 0xFF AND ISZERO ISZERO PUSH2 0x120 DUP8 ADD MSTORE PUSH1 0x10 SHR PUSH1 0xFF AND ISZERO ISZERO PUSH2 0x140 DUP7 ADD MSTORE PUSH2 0x160 DUP6 ADD MSTORE PUSH2 0x180 DUP5 ADD MSTORE PUSH2 0x1A0 DUP4 ADD MSTORE SUB SWAP1 RETURN JUMPDEST SWAP1 PUSH1 0x1 DUP3 DUP2 SHR SWAP3 AND DUP1 ISZERO PUSH2 0x1D1F JUMPI JUMPDEST PUSH1 0x20 DUP4 LT EQ PUSH2 0x1D09 JUMPI JUMP JUMPDEST PUSH4 0x4E487B71 PUSH1 0xE0 SHL PUSH1 0x0 MSTORE PUSH1 0x22 PUSH1 0x4 MSTORE PUSH1 0x24 PUSH1 0x0 REVERT JUMPDEST SWAP2 PUSH1 0x7F AND SWAP2 PUSH2 0x1CFE JUMP JUMPDEST SWAP1 PUSH1 0x1F DUP1 NOT SWAP2 ADD AND DUP2 ADD SWAP1 DUP2 LT PUSH1 0x1 PUSH1 0x1 PUSH1 0x40 SHL SUB DUP3 GT OR PUSH2 0x4A9 JUMPI PUSH1 0x40 MSTORE JUMP JUMPDEST SWAP1 PUSH1 0x40 MLOAD SWAP2 DUP3 PUSH1 0x0 DUP3 SLOAD SWAP3 PUSH2 0x1D5E DUP5 PUSH2 0x1CEF JUMP JUMPDEST SWAP1 DUP2 DUP5 MSTORE PUSH1 0x1 SWAP5 DUP6 DUP2 AND SWAP1 DUP2 PUSH1 0x0 EQ PUSH2 0x1DCD JUMPI POP PUSH1 0x1 EQ PUSH2 0x1D8A JUMPI JUMPDEST POP POP PUSH2 0x1D88 SWAP3 POP SUB DUP4 PUSH2 0x1D29 JUMP JUMPDEST JUMP JUMPDEST SWAP1 SWAP4 SWAP2 POP PUSH1 0x0 MSTORE PUSH1 0x20 SWAP1 DUP2 PUSH1 0x0 KECCAK256 SWAP4 PUSH1 0x0 SWAP2 JUMPDEST DUP2 DUP4 LT PUSH2 0x1DB5 JUMPI POP POP PUSH2 0x1D88 SWAP4 POP DUP3 ADD ADD CODESIZE DUP1 PUSH2 0x1D7A JUMP JUMPDEST DUP6 SLOAD DUP9 DUP5 ADD DUP6 ADD MSTORE SWAP5 DUP6 ADD SWAP5 DUP8 SWAP5 POP SWAP2 DUP4 ADD SWAP2 PUSH2 0x1D9D JUMP JUMPDEST SWAP2 POP POP PUSH2 0x1D88 SWAP5 POP PUSH1 0x20 SWAP3 POP PUSH1 0xFF NOT AND DUP3 DUP5 ADD MSTORE ISZERO ISZERO PUSH1 0x5 SHL DUP3 ADD ADD CODESIZE DUP1 PUSH2 0x1D7A JUMP JUMPDEST PUSH1 0x0 JUMPDEST DUP4 DUP2 LT PUSH2 0x1E03 JUMPI POP POP PUSH1 0x0 SWAP2 ADD MSTORE JUMP JUMPDEST DUP2 DUP2 ADD MLOAD DUP4 DUP3 ADD MSTORE PUSH1 0x20 ADD PUSH2 0x1DF3 JUMP JUMPDEST SWAP1 PUSH1 0x20 SWAP2 PUSH2 0x1E2C DUP2 MLOAD DUP1 SWAP3 DUP2 DUP6 MSTORE DUP6 DUP1 DUP7 ADD SWAP2 ADD PUSH2 0x1DF0 JUMP JUMPDEST PUSH1 0x1F ADD PUSH1 0x1F NOT AND ADD ADD SWAP1 JUMP JUMPDEST PUSH1 0x40 SWAP1 PUSH1 0x3 NOT ADD SLT PUSH2 0x12C JUMPI PUSH1 0x4 CALLDATALOAD SWAP1 PUSH1 0x24 CALLDATALOAD SWAP1 JUMP JUMPDEST SWAP4 SWAP1 SWAP3 PUSH2 0x1E6A PUSH2 0x1E95 SWAP9 SWAP7 SWAP4 SWAP8 SWAP5 PUSH1 0xE0 DUP8 MSTORE PUSH1 0xE0 DUP8 ADD SWAP1 PUSH2 0x1E13 JUMP JUMPDEST SWAP7 PUSH1 0x20 DUP7 ADD MSTORE ISZERO ISZERO PUSH1 0x40 DUP6 ADD MSTORE ISZERO ISZERO PUSH1 0x60 DUP5 ADD MSTORE PUSH1 0x80 DUP4 ADD MSTORE PUSH1 0xA0 DUP3 ADD MSTORE PUSH1 0xC0 DUP2 DUP5 SUB SWAP2 ADD MSTORE PUSH2 0x1E13 JUMP JUMPDEST SWAP1 JUMP JUMPDEST PUSH1 0x20 SWAP1 DUP2 PUSH1 0x40 DUP2 DUP4 ADD SWAP3 DUP3 DUP2 MSTORE DUP6 MLOAD DUP1 SWAP5 MSTORE ADD SWAP4 ADD SWAP2 PUSH1 0x0 JUMPDEST DUP3 DUP2 LT PUSH2 0x1EBF JUMPI POP POP POP POP SWAP1 JUMP JUMPDEST DUP4 MLOAD PUSH1 0x1 PUSH1 0x1 PUSH1 0xA0 SHL SUB AND DUP6 MSTORE SWAP4 DUP2 ADD SWAP4 SWAP3 DUP2 ADD SWAP3 PUSH1 0x1 ADD PUSH2 0x1EB1 JUMP JUMPDEST PUSH1 0x1 PUSH1 0x1 PUSH1 0x40 SHL SUB DUP2 GT PUSH2 0x4A9 JUMPI PUSH1 0x1F ADD PUSH1 0x1F NOT AND PUSH1 0x20 ADD SWAP1 JUMP JUMPDEST DUP2 PUSH1 0x1F DUP3 ADD SLT ISZERO PUSH2 0x12C JUMPI DUP1 CALLDATALOAD SWAP1 PUSH2 0x1F0E DUP3 PUSH2 0x1EDC JUMP JUMPDEST SWAP3 PUSH2 0x1F1C PUSH1 0x40 MLOAD SWAP5 DUP6 PUSH2 0x1D29 JUMP JUMPDEST DUP3 DUP5 MSTORE PUSH1 0x20 DUP4 DUP4 ADD ADD GT PUSH2 0x12C JUMPI DUP2 PUSH1 0x0 SWAP3 PUSH1 0x20 DUP1 SWAP4 ADD DUP4 DUP7 ADD CALLDATACOPY DUP4 ADD ADD MSTORE SWAP1 JUMP JUMPDEST DUP1 SLOAD DUP3 LT ISZERO PUSH2 0x1F56 JUMPI PUSH1 0x0 MSTORE PUSH1 0x20 PUSH1 0x0 KECCAK256 ADD SWAP1 PUSH1 0x0 SWAP1 JUMP JUMPDEST PUSH4 0x4E487B71 PUSH1 0xE0 SHL PUSH1 0x0 MSTORE PUSH1 0x32 PUSH1 0x4 MSTORE PUSH1 0x24 PUSH1 0x0 REVERT JUMPDEST PUSH1 0x0 NOT DUP2 EQ PUSH2 0xA0E JUMPI PUSH1 0x1 ADD SWAP1 JUMP JUMPDEST DUP2 DUP2 LT PUSH2 0x1F86 JUMPI POP POP JUMP JUMPDEST PUSH1 0x0 DUP2 SSTORE PUSH1 0x1 ADD PUSH2 0x1F7B JUMP JUMPDEST ISZERO PUSH2 0x1F99 JUMPI JUMP JUMPDEST PUSH1 0x40 MLOAD PUSH3 0x461BCD PUSH1 0xE5 SHL DUP2 MSTORE PUSH1 0x20 PUSH1 0x4 DUP3 ADD MSTORE PUSH1 0x17 PUSH1 0x24 DUP3 ADD MSTORE PUSH32 0x43616D706169676E20646F6573206E6F74206578697374000000000000000000 PUSH1 0x44 DUP3 ADD MSTORE PUSH1 0x64 SWAP1 REVERT JUMPDEST SWAP2 SWAP1 DUP3 ADD DUP1 SWAP3 GT PUSH2 0xA0E JUMPI JUMP JUMPDEST SWAP2 SWAP1 DUP3 SUB SWAP2 DUP3 GT PUSH2 0xA0E JUMPI JUMP JUMPDEST ISZERO PUSH2 0x1FFF JUMPI JUMP JUMPDEST PUSH1 0x40 MLOAD PUSH3 0x461BCD PUSH1 0xE5 SHL DUP2 MSTORE PUSH1 0x20 PUSH1 0x4 DUP3 ADD MSTORE PUSH1 0x9 PUSH1 0x24 DUP3 ADD MSTORE PUSH9 0x2737BA1030B236B4B7 PUSH1 0xB9 SHL PUSH1 0x44 DUP3 ADD MSTORE PUSH1 0x64 SWAP1 REVERT JUMPDEST ISZERO PUSH2 0x2037 JUMPI JUMP JUMPDEST PUSH1 0x40 MLOAD PUSH3 0x461BCD PUSH1 0xE5 SHL DUP2 MSTORE PUSH1 0x20 PUSH1 0x4 DUP3 ADD MSTORE PUSH1 0x12 PUSH1 0x24 DUP3 ADD MSTORE PUSH18 0x2737BA1031B0B6B830B4B3B71037BBB732B9 PUSH1 0x71 SHL PUSH1 0x44 DUP3 ADD MSTORE PUSH1 0x64 SWAP1 REVERT JUMPDEST DUP1 ISZERO PUSH2 0x2133 JUMPI DUP1 DUP2 PUSH1 0x0 SWAP3 JUMPDEST PUSH2 0x211F JUMPI POP PUSH2 0x208B DUP3 PUSH2 0x1EDC JUMP JUMPDEST SWAP2 PUSH2 0x2099 PUSH1 0x40 MLOAD SWAP4 DUP5 PUSH2 0x1D29 JUMP JUMPDEST DUP1 DUP4 MSTORE DUP2 PUSH1 0x1F NOT PUSH2 0x20A9 DUP4 PUSH2 0x1EDC JUMP JUMPDEST ADD SWAP2 PUSH1 0x20 SWAP3 CALLDATASIZE DUP5 DUP8 ADD CALLDATACOPY SWAP3 JUMPDEST PUSH2 0x20BF JUMPI POP POP POP SWAP1 JUMP JUMPDEST PUSH1 0x0 NOT DUP4 ADD SWAP3 DUP4 GT PUSH2 0xA0E JUMPI DUP3 PUSH1 0xA DUP1 DUP4 DIV SWAP3 DUP2 DUP5 MUL SWAP2 DUP5 DUP4 DIV EQ DUP5 ISZERO OR ISZERO PUSH2 0xA0E JUMPI PUSH2 0x20EF PUSH1 0xFF SWAP3 DUP4 SWAP3 PUSH2 0x1FEB JUMP JUMPDEST AND PUSH1 0x30 ADD SWAP1 DUP2 GT PUSH2 0xA0E JUMPI DUP6 MLOAD DUP3 LT ISZERO PUSH2 0x1F56 JUMPI PUSH1 0xF8 SHL PUSH1 0x1 PUSH1 0x1 PUSH1 0xF8 SHL SUB NOT AND PUSH1 0x0 BYTE SWAP1 DUP6 ADD DUP4 ADD MSTORE8 DUP1 PUSH2 0x20B5 JUMP JUMPDEST SWAP2 PUSH2 0x212B PUSH1 0xA SWAP2 PUSH2 0x1F6C JUMP JUMPDEST SWAP3 DIV DUP1 PUSH2 0x207D JUMP JUMPDEST POP PUSH1 0x40 MLOAD PUSH1 0x40 DUP2 ADD DUP2 DUP2 LT PUSH1 0x1 PUSH1 0x1 PUSH1 0x40 SHL SUB DUP3 GT OR PUSH2 0x4A9 JUMPI PUSH1 0x40 MSTORE PUSH1 0x1 DUP2 MSTORE PUSH1 0x3 PUSH1 0xFC SHL PUSH1 0x20 DUP3 ADD MSTORE SWAP1 JUMP INVALID LOG2 PUSH5 0x6970667358 0x22 SLT KECCAK256 0x1E 0xD6 MLOAD CALLDATALOAD 0x2B 0x25 PUSH32 0x23E0F7FF7704B951CADEE44720805DA3B7DD7E5E68D643E5FE64736F6C634300 ADDMOD SGT STOP CALLER "},"methodIdentifiers":{"addMilestone(uint256,string,uint256,uint256)":"93d17e25","admin()":"f851a440","approveMilestone(uint256,uint256)":"20913da5","campaignCount()":"7274e30d","campaigns(uint256)":"141961bc","claimRefund(uint256)":"5b7baf64","confirmWithdrawal(uint256)":"f3b38690","createCampaign(string,string,string,uint256,uint256,string,address[])":"571b0cef","donate(uint256)":"f14faf6f","donations(uint256,address)":"ee1554a3","donors(uint256,uint256)":"83bd62dd","enableRefunds(uint256)":"52b23809","executeMultiSigWithdrawal(uint256)":"ba129472","getContractBalance()":"6f9fb98a","getDonors(uint256)":"29516511","getMilestone(uint256,uint256)":"8ed9895c","getMultiSigners(uint256)":"f00bffa6","milestones(uint256,uint256)":"1c376c63","uploadMilestoneProof(uint256,uint256,string)":"6728da9d","verifyCampaign(uint256)":"f52cb29b","withdrawFunds(uint256,uint256)":"e5253105"}}}}}